:020000040800F2
:1000000000040020D9020008DB020008DB0200081F
:10001000DB020008DB020008DB020008DB0200084C
:10002000DB020008DB020008DB020008D1490008FF
:10003000DB020008DB020008DB020008DB0200082C
:10004000DB020008DB020008DB020008DB0200081C
:10005000DB020008DB020008DB020008DB0200080C
:10006000DB020008DB020008DB020008A125000813
:10007000E12500083126000881260008D126000865
:100080001127000861270008DB020008DB020008D6
:10009000DB020008DB020008DB020008DB020008CC
:1000A000DB020008DB020008DB020008DB020008BC
:1000B00071220008DB020008DB020008DB020008F6
:1000C000DB020008DB020008DB020008DB0200089C
:1000D000DB02000881210008B1210008DB020008D2
:1000E000DB020008DB020008DB020008DB0200087C
:1000F000DB020008DB020008DB020008B127000871
:10010000DB020008DB020008DB020008DB0200085B
:10011000DB020008DB020008DB020008DB0200084B
:10012000012800084128000891280008E12800085B
:1001300031290008DB020008DB020008DB020008AE
:10014000DB020008DB020008DB020008DB0200081B
:1001500071290008C1290008112A0008DB020008E3
:10016000DB020008DB020008DB020008DB020008FB
:10017000DB020008DB020008DB020008DB020008EB
:10018000DB020008DB020008DB020008DB020008DB
:10019000DB020008DB020008DB020008DB020008CB
:1001A000DB020008DB020008DB020008DB020008BB
:1001B000DB020008DB020008DB020008DB020008AB
:1001C000DB020008DB020008DB020008DB0200089B
:1001D000DB020008DB020008DB020008DB0200088B
:1002000072B6274880F30888264880F30988264874
:100210004EF60851CEF200010860022080F31488E7
:10022000BFF36F8F01F054F903F0DAF84FF0553057
:100230001E491B4A91423CBF41F8040BFAE71C4996
:10024000184A91423CBF41F8040BFAE719491A4A8F
:100250001A4B9A423EBF51F8040B42F8040BF8E7E0
:1002600000201749174A91423CBF41F8040BFAE7B6
:1002700001F046F901F034F9134C144DAC4203DAA5
:1002800054F8041B8847F9E706F0B2FA104C114DF8
:10029000AC4203DA54F8041B8847F9E701F028B9A7
:1002A00000040020000800200000000800000020DA
:1002B00000040020F073000800080020800C0020DB
:1002C000800C002090160020E0010008E0010008EA
:1002D000E0010008E001000892E700F000F8FEE706
:1002E0002DE9F04FC1F80CD0C3689D46BDE8F08FF2
:1002F000002383F311882846A047002004F088F8E3
:10030000FEE703F0E5FD00DFFEE70000844641EA7A
:10031000000313F003036DD1403A41D351F8043B7D
:1003200040F8043B51F8043B40F8043B51F8043BCF
:1003300040F8043B51F8043B40F8043B51F8043BBF
:1003400040F8043B51F8043B40F8043B51F8043BAF
:1003500040F8043B51F8043B40F8043B51F8043B9F
:1003600040F8043B51F8043B40F8043B51F8043B8F
:1003700040F8043B51F8043B40F8043B51F8043B7F
:1003800040F8043B51F8043B40F8043B51F8043B6F
:1003900040F8043B51F8043B40F8043B403ABDD2DE
:1003A000303211D351F8043B40F8043B51F8043B80
:1003B00040F8043B51F8043B40F8043B51F8043B3F
:1003C00040F8043B103AEDD20C3205D351F8043B0F
:1003D00040F8043B043AF9D2043208D0D2071CBFDB
:1003E00011F8013B00F8013B01D30B880380604604
:1003F000704700BF082A13D38B078DD010F003037A
:100400008AD0C3F10403D21ADB071CBF11F8013BE9
:1004100000F8013B80D331F8023B20F8023B7BE738
:10042000043AD9D3013A11F8013B00F8013BF9D263
:100430000B7803704B7843708B78837060467047FD
:10044000A2EB0300704700BF02780B78012A28BF97
:100450009A42F5D16DE9044540EA0104CDE902670D
:100460006FF0000C4FEA447212B380EA010414F0FA
:10047000070F6AD100F0070420F0070004F003051D
:1004800021F007014FEAC505F0E8042314F0040F3A
:10049000F1E804670CFA05F462EA040266EA04066D
:1004A0000AD063EA0403624667EA0407664603E08B
:1004B000F0E80423F1E8046782FA4CF582EA0604C6
:1004C000A4FA8CF46CBB83FA4CF583EA0705A5FA11
:1004D0008CF595B950E9022351E9026782FA4CF58F
:1004E00082EA0604A4FA8CF483FA4CF583EA070541
:1004F000A5FA8CF52543DBD09CB92DBAB5FA85F465
:1005000024F0070427FA04F1DDE9026723FA04F373
:1005100003F0FF0001F0FF01FDE80445A0EB01003E
:10052000704724BAB4FA84F424F0070426FA04F1DC
:10053000DDE9026722FA04F202F0FF0001F0FF0198
:10054000FDE80445A0EB0100704714F0030F3CD117
:1005500010F0030428D150F8082B51F8083B82FA18
:100560004CF582EA0305A5FA8CF55DB950F8042C28
:1005700051F8043C82FA4CF582EA0305A5FA8CF5A1
:10058000002DE8D02DBAB5FA85F424F0070423FA3B
:1005900004F122FA04F202F0FF0001F0FF01FDE88D
:1005A0000445A0EB010070474FEAC40420F00300AB
:1005B00050F8082B21F0030151F8083B0CFA04F421
:1005C00062EA040263EA0403C9E710F003041AD0E4
:1005D000A1EB040120F00300E40750F8042B06D03F
:1005E0000FD28B785FFAA2F4E41A06D12BB1CB7844
:1005F0005FFAB2F4E41A00D11BB920465DF8104B43
:10060000704701F1040150F8042BCC0721F00301DD
:1006100051F8043B48D824D222F07F4482FA4CF5AA
:1006200094EA1325A5FA8CF50AD165B951F8043B73
:1006300084EA0204B4EB036F0ED150F8042BEBE70D
:100640004FEA132355E035F07F454DD10878FDE89A
:100650000445C0F1000070474FEA126203F0FF0347
:1006600047E002EA1C4482FA4CF594EA1345A5FAE5
:100670008CF50AD165B951F8043B84EA0204B4EB65
:10068000034F0CD150F8042BEBE74FEA134330E053
:1006900015EA1C4528D10B884FEA124229E04FEA9F
:1006A000124203EA1C4324E002F0FF0482FA4CF5F4
:1006B00094EA1365A5FA8CF50AD165B951F8043BA3
:1006C00084EA0204B4EB032F09D150F8042BEBE7C2
:1006D0004FEA13630DE015F0FF0F05D10B684FEAE9
:1006E000122223F07F4304E04FF00000FDE80445B0
:1006F000704712BA1BBA82FA4CF482EA0304A4FAD5
:100700008CF5B5FA85F402FA04F203FA04F34FEA21
:100710001260FDE80445A0EB136070470000000084
:1007200000000000000000000000000000000000C9
:1007300000000000000000000000000000000000B9
:1007400090F800F06DE9024520F007016FF0000C11
:1007500010F0070491F820F040F049804FF00004B9
:100760006FF00700D1E9002391F840F000F1080094
:1007700082FA4CF2A4FA8CF283FA4CF3A2FA8CF3CC
:100780004BBBD1E9022382FA4CF200F10800A4FA33
:100790008CF283FA4CF3A2FA8CF3E3B9D1E9042387
:1007A00082FA4CF200F10800A4FA8CF283FA4CF3BE
:1007B000A2FA8CF37BB9D1E9062301F1200182FA78
:1007C0004CF200F10800A4FA8CF283FA4CF3A2FA7E
:1007D0008CF3002BC6D0002A04BF04301A4612BA8C
:1007E000B2FA82F2FDE8024500EBD2007047D1E98F
:1007F000002304F00305C4F100004FEAC50514F01E
:10080000040F91F840F00CFA05F562EA05021CBFEE
:1008100063EA050362464FF00004A9E781F0004156
:1008200002E000BF83F0004330B54FEA41044FEAD5
:10083000430594EA050F08BF90EA020F1FBF54EA70
:10084000000C55EA020C7FEA645C7FEA655C00F00C
:10085000E2804FEA5454D4EB5555B8BF6D420CDDDD
:100860002C4480EA020281EA030382EA000083EA60
:10087000010180EA020281EA0303362D88BF30BD00
:1008800011F0004F4FEA01314FF4801C4CEA113156
:1008900002D0404261EB410113F0004F4FEA0333B5
:1008A0004CEA133302D0524263EB430394EA050F40
:1008B00000F0A780A4F10104D5F1200E0DDB02FAAF
:1008C0000EFC22FA05F2801841F1000103FA0EF243
:1008D000801843FA05F359410EE0A5F120050EF109
:1008E000200E012A03FA0EFC28BF4CF0020C43FA3A
:1008F00005F3C01851EBE37101F0004507D54FF047
:10090000000EDCF1000C7EEB00006EEB0101B1F596
:10091000801F1BD3B1F5001F0CD349085FEA3000DC
:100920004FEA3C0C04F101044FEA445212F5800FE7
:1009300080F09A80BCF1004F08BF5FEA500C50F184
:10094000000041EB045141EA050130BD5FEA4C0C67
:10095000404141EB0101013C28BFB1F5801FE9D2C4
:1009600091F0000F04BF01460020B1FA81F308BFE7
:100970002033A3F10B03B3F120020CDA0C3208DDB3
:1009800002F1140CC2F10C0201FA0CF021FA02F18E
:100990000CE002F11402D8BFC2F1200C01FA02F1FE
:1009A00020FA0CFCDCBF41EA0C019040E41AA2BF23
:1009B00001EB0451294330BD6FEA04041F3C1CDAEB
:1009C0000C340EDC04F11404C4F1200220FA04F00B
:1009D00001FA02F340EA030021FA04F345EA0301B5
:1009E00030BDC4F10C04C4F1200220FA02F001FA77
:1009F00004F340EA0300294630BD21FA04F02946F9
:100A000030BD94F0000F83F4801306BF81F4801191
:100A10000134013D4EE77FEA645C18BF7FEA655C04
:100A200029D094EA050F08BF90EA020F05D054EAD6
:100A3000000C04BF1946104630BD91EA030F1EBFDB
:100A40000021002030BD5FEA545C05D140004941DF
:100A500028BF41F0004130BD14F580043CBF01F5D2
:100A6000801130BD01F0004545F0FE4141F47001B8
:100A70004FF0000030BD7FEA645C1ABF1946104693
:100A80007FEA655C1CBF0B46024650EA013406BF94
:100A900052EA033591EA030F41F4002130BD00BF53
:100AA00090F0000F04BF0021704730B54FF4806410
:100AB00004F132044FF000054FF0000150E700BF91
:100AC00090F0000F04BF0021704730B54FF48064F0
:100AD00004F1320410F0004548BF40424FF00001DD
:100AE0003EE700BF42004FEAE2014FEA31014FEA20
:100AF00002701FBF12F07F4393F07F4F81F060516F
:100B0000704732F07F4208BF704793F07F4F04BFB9
:100B100041F40021704730B54FF4607401F0004596
:100B200021F000411CE700BF50EA010208BF7047F6
:100B300030B54FF000050AE050EA010208BF7047E7
:100B400030B511F0004502D5404261EB41014FF450
:100B5000806404F132045FEA915C3FF4D8AE4FF058
:100B600003025FEADC0C18BF03325FEADC0C18BF3B
:100B7000033202EBDC02C2F1200300FA03FC20FA8C
:100B800002F001FA03FE40EA0E0021FA02F11444D9
:100B9000BDE600BF70B54FF0FF0C4CF4E06C1CEAF2
:100BA00011541DBF1CEA135594EA0C0F95EA0C0F63
:100BB00000F0DEF82C4481EA030621EA4C5123EAD6
:100BC0004C5350EA013518BF52EA033541F4801105
:100BD00043F4801338D0A0FB02CE4FF00005E1FBB8
:100BE00002E506F00042E0FB03E54FF00006E1FB02
:100BF00003569CF0000F18BF4EF0010EA4F1FF0445
:100C0000B6F5007F64F5407404D25FEA4E0E6D4184
:100C100046EB060642EAC62141EA55514FEAC52095
:100C200040EA5E504FEACE2EB4F1FD0C88BFBCF511
:100C3000E06F1ED8BEF1004F08BF5FEA500E50F1C2
:100C4000000041EB045170BD06F0004646EA010188
:100C500040EA020081EA0301B4EB5C04C2BFD4EBBA
:100C60000C0541EA045170BD41F480114FF0000EB3
:100C7000013C00F3AB8014F1360FDEBF002001F021
:100C8000004170BDC4F10004203C35DA0C341BDC9B
:100C900004F11404C4F1200500FA05F320FA04F06D
:100CA00001FA05F240EA020001F0004221F00041A1
:100CB00010EBD37021FA04F642EB06015EEA430E14
:100CC00008BF20EAD37070BDC4F10C04C4F1200544
:100CD00000FA04F320FA05F001FA04F240EA0200F7
:100CE00001F0004110EBD37041F100015EEA430EC8
:100CF00008BF20EAD37070BDC4F1200500FA05F2E8
:100D00004EEA020E20FA04F301FA05F243EA020366
:100D100021FA04F001F0004121FA04F220EA020075
:100D200000EBD3705EEA430E08BF20EAD37070BDBB
:100D300094F0000F0FD101F00046400041EB01019B
:100D400011F4801F08BF013CF7D041EA060195F07D
:100D5000000F18BF704703F00046520043EB030337
:100D600013F4801F08BF013DF7D043EA0603704724
:100D700094EA0C0F0CEA135518BF95EA0C0F0CD02F
:100D800050EA410618BF52EA4306D1D181EA030175
:100D900001F000414FF0000070BD50EA410606BF6F
:100DA0001046194652EA430619D094EA0C0F02D1B4
:100DB00050EA013613D195EA0C0F05D152EA0336F9
:100DC0001CBF104619460AD181EA030101F0004117
:100DD00041F0FE4141F470014FF0000070BD41F060
:100DE000FE4141F4780170BD70B54FF0FF0C4CF43A
:100DF000E06C1CEA11541DBF1CEA135594EA0C0F59
:100E000095EA0C0F00F0A7F8A4EB050481EA030EA5
:100E100052EA03354FEA013100F088804FEA03338C
:100E20004FF0805545EA131343EA12634FEA02225A
:100E300045EA111545EA10654FEA00260EF000411B
:100E40009D4208BF964244F1FD0404F5407402D26D
:100E50005B084FEA3202B61A65EB03055B084FEAFE
:100E600032024FF480104FF4002CB6EB020E75EBFB
:100E7000030E22BFB61A754640EA0C005B084FEA23
:100E80003202B6EB020E75EB030E22BFB61A7546A0
:100E900040EA5C005B084FEA3202B6EB020E75EBEB
:100EA000030E22BFB61A754640EA9C005B084FEA63
:100EB0003202B6EB020E75EB030E22BFB61A754670
:100EC00040EADC0055EA060E18D04FEA051545EA5F
:100ED00016754FEA06164FEAC30343EA52734FEA08
:100EE000C2025FEA1C1CC0D111F4801F0BD141EA81
:100EF00000014FF000004FF0004CB6E711F4801FE6
:100F000004BF01430020B4F1FD0C88BFBCF5E06FC5
:100F10003FF6AFAEB5EB030C04BFB6EB020C5FEAD5
:100F2000500C50F1000041EB045170BD0EF0004E2A
:100F30004EEA113114EB5C04C2BFD4EB0C0541EA5C
:100F4000045170BD41F480114FF0000E013C90E659
:100F500045EA060E8DE60CEA135594EA0C0F08BF1D
:100F600095EA0C0F3FF43BAF94EA0C0F0AD150EA1C
:100F700001347FF434AF95EA0C0F7FF425AF1046AF
:100F800019462CE795EA0C0F06D152EA03353FF4D7
:100F9000FDAE1046194622E750EA410618BF52EA54
:100FA00043067FF4C5AE50EA41047FF40DAF52EA28
:100FB00043057FF4EBAE12E74FEA410212F500124F
:100FC00015D211D56FF47873B3EB625212D94FEA90
:100FD000C12343F0004343EA505311F0004F23FA7A
:100FE00002F018BF404270474FF00000704750EACF
:100FF000013005D111F0004008BF6FF0004070478C
:101000004FF00000704700BF80F0004002E000BFDA
:1010100081F0004142001FBF5FEA410392EA030FE3
:101020007FEA226C7FEA236C6AD04FEA1262D2EB2D
:101030001363C1BFD218414048404140B8BF5B4232
:10104000192B88BF704710F0004F40F4000020F0CB
:101050007F4018BF404211F0004F41F4000121F0E1
:101060007F4118BF494292EA030F3FD0A2F101022B
:1010700041FA03FC10EB0C00C3F1200301FA03F169
:1010800000F0004302D5494260EB4000B0F5000F8C
:1010900013D3B0F1807F06D340084FEA310102F14B
:1010A0000102FE2A51D2B1F1004F40EBC25008BFFD
:1010B00020F0010040EA03007047490040EB0000C7
:1010C000013A28BFB0F5000FEDD2B0FA80FCACF1C8
:1010D000080CB2EB0C0200FA0CF0AABF00EBC250F5
:1010E00052421843BCBFD0401843704792F0000FE3
:1010F00081F4000106BF80F400000132013BB5E736
:101100004FEA41037FEA226C18BF7FEA236C21D0AB
:1011100092EA030F04D092F0000F08BF0846704710
:1011200090EA010F1CBF0020704712F07F4F04D1DE
:10113000400028BF40F00040704712F100723CBFF1
:1011400000F50000704700F0004343F0FE4040F41B
:10115000000070477FEA226216BF08467FEA2363D9
:101160000146420206BF5FEA412390EA010F40F4C4
:10117000800070474FF0000304E000BF10F0004310
:1011800048BF40425FEA000C08BF704743F09643F7
:1011900001464FF000001CE050EA010208BF704712
:1011A0004FF000030AE000BF50EA010208BF704799
:1011B00011F0004302D5404261EB41015FEA010CAE
:1011C00002BF84460146002043F0B64308BFA3F1A6
:1011D0008053A3F50003BCFA8CF2083AA3EBC25388
:1011E00010DB01FA02FC634400FA02FCC2F12002A7
:1011F000BCF1004F20FA02F243EB020008BF20F0DE
:101200000100704702F1200201FA02FCC2F1200243
:1012100050EA4C0021FA02F243EB020008BF20EA38
:10122000DC7070474FF0FF0C1CEAD0521EBF1CEA66
:10123000D15392EA0C0F93EA0C0F6FD01A4480EA54
:10124000010C400218BF5FEA41211ED04FF000633D
:1012500043EA501043EA5111A0FB01310CF0004069
:10126000B1F5000F3EBF490041EAD3715B0040EA8F
:10127000010062F17F02FD2A1DD8B3F1004F40EB5F
:10128000C25008BF20F00100704790F0000F0CF032
:10129000004C08BF49024CEA502040EA51207F3AF6
:1012A000C2BFD2F1FF0340EAC250704740F40000D1
:1012B0004FF00003013A5DDC12F1190FDCBF00F0C2
:1012C00000407047C2F10002410021FA02F1C2F170
:1012D000200200FA02FC5FEA310040F1000053EA0C
:1012E0004C0308BF20EADC70704792F0000F00F05A
:1012F000004C02BF400010F4000F013AF9D040EA60
:101300000C0093F0000F01F0004C02BF490011F4F3
:10131000000F013BF9D041EA0C018FE70CEAD153F1
:1013200092EA0C0F18BF93EA0C0F0AD030F0004C71
:1013300018BF31F0004CD8D180EA010000F0004025
:10134000704790F0000F17BF90F0004F084691F0E3
:10135000000F91F0004F14D092EA0C0F01D142021D
:101360000FD193EA0C0F03D14B0218BF084608D1E6
:1013700080EA010000F0004040F0FE4040F4000030
:10138000704740F0FE4040F4400070474FF0FF0CC3
:101390001CEAD0521EBF1CEAD15392EA0C0F93EA0A
:1013A0000C0F69D0A2EB030280EA010C49024FEA5C
:1013B000402037D04FF0805343EA111143EA101315
:1013C0000CF000408B4238BF5B0042F17D024FF4CD
:1013D000000C8B4224BF5B1A40EA0C00B3EB510FA8
:1013E00024BFA3EB510340EA5C00B3EB910F24BF91
:1013F000A3EB910340EA9C00B3EBD10F24BFA3EB16
:10140000D10340EADC001B0118BF5FEA1C1CE0D1DD
:10141000FD2A3FF650AF8B4240EBC25008BF20F090
:10142000010070470CF0004C4CEA50207F32C2BFE4
:10143000D2F1FF0340EAC250704740F400004FF081
:101440000003013A37E792F0000F00F0004C02BFB2
:10145000400010F4000F013AF9D040EA0C0093F07C
:10146000000F01F0004C02BF490011F4000F013BD6
:10147000F9D041EA0C0195E70CEAD15392EA0C0F3E
:1014800008D142027FF47DAF93EA0C0F7FF470AF76
:10149000084676E793EA0C0F04D14B023FF44CAFB9
:1014A00008466EE730F0004C18BF31F0004CCAD14E
:1014B00030F000427FF45CAF31F000437FF43CAF8A
:1014C0005FE700BF00000000000000000000000017
:1014D00000BF704700000000000000000000000096
:1014E00000BF704700000000000000000000000086
:1014F000FEE700BF00000000000000000000000048
:1015000084B0174B0393039B1B680293039B5B6898
:10151000019309E0029B1A68019B1A60019B043346
:101520000193029B04330293039B9B68019A9A42A6
:10153000F0D305E0019B00221A60019B0433019364
:10154000039BDB68019A9A42F4D3039B1033039305
:10155000039B044A9342D6D300BF00BF04B0704738
:10156000146A0008946A00080000000000000000EF
:1015700000BF7047000000000000000000000000F5
:1015800008B5FFF7F5FF00F013FF01F0A1FA00F036
:10159000B7FC00F02DFD01F02BFF00F041F800BF7B
:1015A00008BD00BF000000000000000000000000B7
:1015B0004FF080435B6A1846704700BF0000000090
:1015C00082B001904FF08042019B53634FF0804303
:1015D00000221A614FF080430222DA6000BF02B09D
:1015E000704700BF00000000000000000000000085
:1015F0004FF080430022DA6000BF70470000000017
:1016000082B001904FF08042019B536300BF02B053
:10161000704700BF00000000000000000000000054
:1016200008B501F04DFB00BF08BD00BF0000000081
:1016300008B5FFF7BDFF0346184608BD00000000CF
:1016400000B583B001900198FFF7BAFF00BF03B067
:101650005DF804FB00000000000000000000000036
:1016600008B5FFF7C5FF00BF08BD00BF00000000C0
:1016700000B583B001900198FFF7C2FF00BF03B02F
:101680005DF804FB00000000000000000000000006
:1016900082B00190019B019A1A60019B019A5A60E5
:1016A00000BF02B0704700BF000000000000000053
:1016B00082B020230193019B83F3118800BF00BFF8
:1016C00000BF02B0704700BF000000000000000033
:1016D00082B000230193019B83F3118800BF00BFF8
:1016E00000BF02B0704700BF000000000000000013
:1016F00000B583B00190019B1846FFF7C9FF00BFFA
:1017000003B05DF804FB00BF000000000000000013
:1017100008B5FFF7CDFF00BF08BD00BF0000000007
:1017200008B5FFF7D5FF00BF08BD00BF00000000EF
:1017300000B583B001900198FFF7DAFF00BF03B056
:101740005DF804FB00000000000000000000000045
:1017500000B583B0019000910099019802F0B8FEA5
:101760000346184603B05DF804FB00BF000000000C
:1017700000B583B0019000910099019802F0C8FE75
:1017800000BF03B05DF804FB000000000000000093
:1017900000B587B0039002910192039B9B68019A68
:1017A0009A4202D9039B9B680193039B1A69039B8E
:1017B0009B69D31A0593019A059B9A420DD2039B0C
:1017C0009B69019A19460298FEF7A0FD039B9A694E
:1017D000019B1A44039B9A612BE0019A059B9A4254
:1017E0001CD9039B9B69059A19460298FEF78EFD4A
:1017F000029A059B13440293019A059BD31A049302
:10180000039BDB68049A19460298FEF77FFD039B51
:10181000DA68049B1A44039B9A610AE0039B9B6964
:10182000019A19460298FEF771FD039BDA68039B43
:101830009A61039B9A68019BD21A039B9A60019B51
:10184000184607B05DF804FB00000000000000002F
:1018500000B587B0039002910192039B9B68019AA7
:101860009A4202D9039B9B680193039B1A69039BCD
:101870005B69D31A0593019A059B9A420DD2039B8B
:101880005B69019A02991846FEF740FD039B5A696D
:10189000019B1A44039B5A612BE0019A059B9A42D3
:1018A0001CD9039B5B69059A02991846FEF72EFD29
:1018B000029A059B13440293019A059BD31A049341
:1018C000039BDB68049A02991846FEF71FFD039BF1
:1018D000DA68049B1A44039B5A610AE0039B5B6924
:1018E000019A02991846FEF711FD039BDA68039BE3
:1018F0005A61039B9A68019BD21A039B9A60019BD1
:10190000184607B05DF804FB00000000000000006E
:1019100000B585B00390029101920093039B184695
:10192000FFF706FF039B00229A60039B029ADA608E
:10193000039B029A9A61039B029A5A61029A019B45
:101940001A44039B1A61039B009ADA61039B069A6F
:101950001A6200BF05B05DF804FB00BF0000000084
:1019600000B583B001900B468DF80330019B5A6996
:10197000019B9B699A4205D1019B9B68002B01D07A
:10198000012300E0002303F00103DBB283F0010335
:10199000DBB2002B1DD0019B9B685A1C019B9A60F7
:1019A000019B5B69591C019A51619DF803201A70D3
:1019B000019B5A69019B1B699A4203D3019BDA6818
:1019C000019B5A61019B00211846FFF7D1FE0023BD
:1019D00001E04FF0FF33184603B05DF804FB00BF91
:1019E00000B585B001900091FFF792FE0CE0019BDD
:1019F00000991846FFF7ACFE0290029B002B03DA19
:101A0000FFF78EFE029B26E0019B9B68002BEED029
:101A1000019B9B685A1E019B9A60019B9B69591C04
:101A2000019A91611B788DF80F30019B9A69019B97
:101A30001B699A4203D3019BDA68019B9A61019B5F
:101A4000DB69002B03D0019BDB6901989847FFF706
:101A500067FE9DF80F30184605B05DF804FB00BF27
:101A600000B589B00390029101920093039BDB695A
:101A70000793019B0693FFF74BFE24E0019A02991E
:101A80000398FFF785FE0590059B002B09D1039B6A
:101A900000991846FFF75CFE0490049B002B12D0BF
:101AA00014E0079B002B02D0079B03989847FFF791
:101AB00037FE019A059BD31A0193029A059B1344A2
:101AC0000293FFF725FE019B002BD7D1FFF728FEDD
:101AD000069A019BD31A184609B05DF804FB00BFB3
:101AE00000B585B00390029101920093039B1846C4
:101AF000FFF71EFE039B019A9A60039B029ADA602D
:101B0000039B029A9A61039B029A5A61029A019B73
:101B10001A44039B1A61039B009ADA61039B069A9D
:101B20001A6200BF05B05DF804FB00BF00000000B2
:101B300000B587B003900B4601928DF80B30FFF78C
:101B4000E7FD0CE0039B01991846FFF701FE0590A5
:101B5000059B002B03DAFFF7E3FD059B25E0039BC4
:101B60009B68002BEED0039B9B685A1E039B9A60D8
:101B7000039B5B69591C039A51619DF80B201A70F5
:101B8000039B5A69039B1B699A4203D3039BDA6840
:101B9000039B5A61039BDB69002B03D0039BDB692A
:101BA00003989847FFF7BCFD0023184607B05DF87F
:101BB00004FB00BF00000000000000000000000067
:101BC00000B585B00190019B5A69019B9B699A42BF
:101BD00005D1019B9B68002B01D0012300E000236D
:101BE00003F00103DBB283F00103DBB2002B1ED054
:101BF000019B9B685A1C019B9A60019B9B69591C25
:101C0000019A91611B788DF80F30019B9A69019BB5
:101C10001B699A4203D3019BDA68019B9A61019B7D
:101C200000211846FFF7A4FD9DF80F3001E04FF0AA
:101C3000FF33184605B05DF804FB00BF000000004C
:101C400000B589B00390029101920093039BDB6978
:101C50000793019B0693FFF75BFD24E0019A02992D
:101C60000398FFF7F5FD0590059B002B09D1039B19
:101C700000991846FFF76CFD0490049B002B12D0CE
:101C800014E0079B002B02D0079B03989847FFF7AF
:101C900047FD019A059BD31A0193029A059B1344B1
:101CA0000293FFF735FD019B002BD7D1FFF738FDDD
:101CB000069A019BD31A184609B05DF804FB00BFD1
:101CC00082B020230193019B83F3118800BF00BFE2
:101CD00000BF02B0704700BF00000000000000001D
:101CE00082B000230193019B83F3118800BF00BFE2
:101CF00000BF02B0704700BF0000000000000000FD
:101D000082B00190019B019A1A6000BF02B0704737
:101D100008B5FFF7D5FF00BF08BD00BF00000000F9
:101D200008B5FFF7DDFF00BF08BD00BF00000000E1
:101D300000B583B001900198FFF7E2FF00BF03B048
:101D40005DF804FB0000000000000000000000003F
:101D500000B583B0019000910099019802F0C0FC99
:101D600000BF03B05DF804FB0000000000000000AD
:101D700000B585B0039002910192039B03F13000FE
:101D80004FF0FF33019A0299FFF75AFF03461846B6
:101D900005B05DF804FB00BF00000000000000007B
:101DA00000B585B0039002910192039B03F10C00F2
:101DB0004FF0FF33019A0299FFF752FE034618468F
:101DC00005B05DF804FB00BF00000000000000004B
:101DD00000B583B001900B468DF80330019B303382
:101DE0009DF803104FF0FF321846FFF7A1FE03469F
:101DF000184603B05DF804FB00000000000000007E
:101E000000B583B00190019B0C334FF0FF311846B1
:101E1000FFF7E6FD0346184603B05DF804FB00BF7C
:101E200000B585B003900B4601928DF80B30039BF3
:101E300030339DF80B10019A1846FFF779FE0346E0
:101E4000184605B05DF804FB00000000000000002B
:101E500000B583B001900091019B0C3300991846A6
:101E6000FFF7BEFD0346184603B05DF804FB00BF54
:101E700000B585B00390029101920093039B03F19A
:101E80003000009B019A0299FFF7DAFE03461846DC
:101E900005B05DF804FB00BF00000000000000007A
:101EA00000B585B00390029101920093039B03F16A
:101EB0000C00009B019A0299FFF7D2FD03461846D9
:101EC00005B05DF804FB00BF00000000000000004A
:101ED00086B0039002910192039B0593029B002B15
:101EE00002D0029B012B00E000BF0023184606B081
:101EF000704700BF0000000000000000000000006C
:101F000008B501F02DF800BF08BD00BF00000000BB
:101F100000B587B0059004910392059B124A1A60A0
:101F2000059B04331846FFF703FF059B01221A7235
:101F3000059B03F10C00059B03F15401059B0093E5
:101F4000049B1022FFF7E4FC059B03F13000059B86
:101F500003F16401059B0093039B1022FFF7C0FD72
:101F600000BF07B05DF804FB946A000800000000A1
:101F700000B583B001900091FFF7CAFE0099019867
:101F800001F006F8019B02221A72FFF7C9FE00BF9A
:101F900003B05DF804FB00BF00000000000000007B
:101FA00000B583B001900B468DF80330019B5B694F
:101FB000002B05D1019B043304211846FFF7C8FE0E
:101FC000019B0C339DF8032011461846FFF7C8FC0F
:101FD0000346002B06DA019B04334FF48061184658
:101FE000FFF7B6FE00BF03B05DF804FB0000000081
:101FF00008B501F0EDF800BF08BD00BF000000000B
:1020000082B00190019B01221A70019B00225A703C
:10201000019B00229A70019B00225A6000BF02B00F
:10202000704700BF0000000000000000000000003A
:1020300082B001900091009BDBB2114A1B01D9B222
:10204000019B134403F540730A461A70019B03F089
:102050001F020B49019B5B09012000FA02F2603369
:1020600041F82320019B03F01F020549019B5B09F6
:10207000012000FA02F241F8232000BF02B07047AD
:1020800000E100E00000000000000000000000008F
:1020900000BF7047000000000000000000000000CA
:1020A00000BF7047000000000000000000000000BA
:1020B00000BF7047000000000000000000000000AA
:1020C00000BF70470000000000000000000000009A
:1020D00000BF70470000000000000000000000008A
:1020E00000BF70470000000000000000000000007A
:1020F00000BF70470000000000000000000000006A
:1021000000BF704700000000000000000000000059
:1021100000BF704700000000000000000000000049
:1021200000BF704700000000000000000000000039
:1021300000BF704700000000000000000000000029
:1021400000BF704700000000000000000000000019
:1021500000BF704700000000000000000000000009
:1021600000BF7047000000000000000000000000F9
:1021700008B50C212520FFF75BFF00BF08BD00BF9D
:1021800008B5034801F044F802F072FC00BF08BD36
:10219000840D00200000000000000000000000008E
:1021A00008B50C212620FFF743FF00BF08BD00BF84
:1021B00008B5034800F01CFF02F05AFC00BF08BD40
:1021C000040D0020000000000000000000000000DE
:1021D00000BF704700000000000000000000000089
:1021E00000BF704700000000000000000000000079
:1021F00000BF704700000000000000000000000069
:1022000000BF704700000000000000000000000058
:1022100000BF704700000000000000000000000048
:1022200000BF704700000000000000000000000038
:1022300000BF704700000000000000000000000028
:1022400000BF704700000000000000000000000018
:1022500000BF704700000000000000000000000008
:1022600008B507211C20FFF7E3FE00BF08BD00BF33
:1022700008B500F065FD02F0FBFB00BF08BD00BF24
:1022800000BF7047000000000000000000000000D8
:1022900000BF7047000000000000000000000000C8
:1022A00000BF7047000000000000000000000000B8
:1022B00000BF7047000000000000000000000000A8
:1022C00000BF704700000000000000000000000098
:1022D00000BF704700000000000000000000000088
:1022E00008B5FFF7D5FEFFF7DBFEFFF7E1FEFFF7CE
:1022F000E7FEFFF7EDFEFFF7F3FEFFF7F9FEFFF74E
:10230000FFFEFFF705FFFFF70BFFFFF711FFFFF7DA
:1023100017FFFFF71DFFFFF723FFFFF799FFFFF7F9
:102320009FFFFFF7ADFFFFF7B3FFFFF7B9FFFFF721
:10233000BFFFFFF7C5FFFFF7CBFFFFF719FFFFF761
:102340002FFFFFF745FFFFF74BFFFFF751FFFFF7A9
:1023500057FFFFF75DFFFFF763FFFFF769FFFFF729
:102360006FFF00BF08BD00BF0000000000000000BC
:102370000D4B1B680C4A43F4807313600B4B1B6FAF
:1023800003F44073B3F5007F06D0084B4FF480325E
:102390001A67064B00221A67034B5B68024A23F454
:1023A0000073536000BF7047007000400038024067
:1023B00008B5264B1B69254A63F01F031361234BA5
:1023C0001B69224A03F01F031361204B1B691F4B3B
:1023D0005B691E4B4FF0FF325A611C4B5B691B4B14
:1023E00000225A61194B5B69184B1B6A174A63F04C
:1023F00080531362154B1B6A144A03F08053136217
:10240000124B1B6A114B5B6A104B4FF0FF325A6242
:102410000E4B5B6A0D4B00225A620C4B5B6A0B4BF6
:102420001B6C0A4A43F080531364084B1B6E074A27
:1024300043F080531366054B1B6EFFF799FF00F0C6
:102440000FFBFFF74DFF00BF08BD00BF0038024083
:1024500082B0494B4FF080521A64484B4FF400420F
:102460001A60454B1B68444A43F00103136000BFE8
:10247000414B1B6803F00203002BF9D03E4B9B68D5
:102480003D4A23F00303936000BF3B4B9B6803F07E
:102490000C03002BF9D1384B1B68374A03F0F903C2
:1024A0001360354B00229A60334B5B6F324A43F026
:1024B0000103536700BF304B5B6F03F00203002B37
:1024C000F9D02D4B2E4A5A602B4B1B682A4A43F0F9
:1024D0008073136000BF294B5B6803F48043002BBB
:1024E000F9D000BF244B1B6803F00073002BF9D018
:1024F000214B244A9A60002301931F4A019B43F019
:102500000303C2F88C30204B1B68204A934209D148
:102510001F4B1B681F4A934204D11F4B4FF481721B
:102520001A6003E01C4B40F202721A6000BF1A4BA3
:102530001B6803F00F03022BF9D10F4B9B680E4A67
:1025400043F00203936000BF0B4B9B6803F00C0346
:10255000082BF9D1084B5B6C074A43F48043536462
:10256000054B5B6E044A43F480435366024B5B6E3B
:1025700000BF02B0704700BF00380240007000404A
:102580001054010700108838002004E01164002076
:1025900000ED00E041C20F41003C0240000000009D
:1025A00000B583B00C4B1B6803F03D0301930A4A4E
:1025B000019B9360094B5B68002B06D0074B5B685F
:1025C000064A926801991046984702F051FA00BFF6
:1025D00003B05DF804FB00BF00600240800C0020E7
:1025E00000B583B00D4B1B689B0903F03D030193BD
:1025F0000A4A019B9B019360094BDB68002B06D0C4
:10260000074BDB68064A126901991046984702F0A9
:102610002FFA00BF03B05DF804FB00BF006002406A
:10262000800C0020000000000000000000000000FE
:1026300000B583B00D4B1B681B0C03F03D030193E9
:102640000A4A019B1B049360094B5B69002B06D06F
:10265000074B5B69064A926901991046984702F058
:1026600007FA00BF03B05DF804FB00BF0060024042
:10267000800C0020000000000000000000000000AE
:1026800000B583B00D4B1B689B0D03F03D03019318
:102690000A4A019B9B059360094BDB69002B06D01E
:1026A000074BDB69064A126A01991046984702F007
:1026B000DFF900BF03B05DF804FB00BF006002401B
:1026C000800C00200000000000000000000000005E
:1026D00000B583B00C4B5B6803F03D0301930A4ADD
:1026E000019BD360094B5B6A002B06D0074B5B6AEA
:1026F000064A926A01991046984702F0B9F900BF5C
:1027000003B05DF804FB00BF00600240800C0020B5
:1027100000B583B00D4B5B689B0903F03D0301934B
:102720000A4A019B9B01D360094BDB6A002B06D050
:10273000074BDB6A064A126B01991046984702F074
:1027400097F900BF03B05DF804FB00BF00600240D2
:10275000800C0020000000000000000000000000CD
:1027600000B583B00D4B5B681B0C03F03D03019378
:102770000A4A019B1B04D360094B5B6B002B06D0FC
:10278000074B5B6B064A926B01991046984702F023
:102790006FF900BF03B05DF804FB00BF00600240AA
:1027A000800C00200000000000000000000000007D
:1027B00000B583B00D4B5B689B0D03F03D030193A7
:1027C0000A4A019B9B05D360094BDB6B002B06D0AB
:1027D000074BDB6B064A126C01991046984702F0D2
:1027E00047F900BF03B05DF804FB00BF0060024082
:1027F000800C00200000000000000000000000002D
:1028000000B583B00C4B1B6803F03D0301930A4AEB
:10281000019B9360094B5B6C002B06D0074B5B6CF4
:10282000064A926C01991046984702F021F900BFC0
:1028300003B05DF804FB00BF00640240800C002080
:1028400000B583B00D4B1B689B0903F03D0301935A
:102850000A4A019B9B019360094BDB6C002B06D05D
:10286000074BDB6C064A126D01991046984702F03F
:10287000FFF800BF03B05DF804FB00BF0064024036
:10288000800C00200000000000000000000000009C
:1028900000B583B00D4B1B681B0C03F03D03019387
:1028A0000A4A019B1B049360094B5B6D002B06D009
:1028B000074B5B6D064A926D01991046984702F0EE
:1028C000D7F800BF03B05DF804FB00BF006402400E
:1028D000800C00200000000000000000000000004C
:1028E00000B583B00D4B1B689B0D03F03D030193B6
:1028F0000A4A019B9B059360094BDB6D002B06D0B8
:10290000074BDB6D064A126E01991046984702F09C
:10291000AFF800BF03B05DF804FB00BF00640240E5
:10292000800C0020000000000000000000000000FB
:1029300000B583B00C4B5B6803F03D0301930A4A7A
:10294000019BD360094B5B6E002B06D0074B5B6E7F
:10295000064A926E01991046984702F089F800BF26
:1029600003B05DF804FB00BF00640240800C00204F
:1029700000B583B00D4B5B689B0903F03D030193E9
:102980000A4A019B9B01D360094BDB6E002B06D0EA
:10299000074BDB6E064A126F01991046984702F00A
:1029A00067F800BF03B05DF804FB00BF006402409D
:1029B000800C00200000000000000000000000006B
:1029C00000B583B00D4B5B681B0C03F03D03019316
:1029D0000A4A019B1B04D360094B5B6F002B06D096
:1029E000074B5B6F064A926F01991046984702F0B9
:1029F0003FF800BF03B05DF804FB00BF0064024075
:102A0000800C00200000000000000000000000001A
:102A100000B583B00D4B5B689B0D03F03D03019344
:102A20000A4A019B9B05D360094BDB6F002B07D043
:102A3000074BDB6F064AD2F8802001991046984771
:102A400002F016F800BF03B05DF804FB006402401A
:102A5000800C0020000000000000000000000000CA
:102A600082B0174B00221A600023019312E015492F
:102A7000019A13465B0013449B000B441B68002221
:102A80001A600F4A019BDB00134400225A60019B2D
:102A900001330193019B0F2BE9D90B4B4FF0FF3210
:102AA0009A60094B4FF0FF32DA60084B4FF0FF326B
:102AB0009A60064B4FF0FF32DA6000BF02B07047F9
:102AC000800C0020BC6A00080060024000640240E4
:102AD00000BF704700000000000000000000000080
:102AE0008EB0039002910192019B03F003030D93BA
:102AF000019B9B0803F001030C93019BDB0803F08F
:102B000003030B93019B5B0903F003030A93019BEF
:102B1000DB0903F00F03089300230993029B03F0E2
:102B20000103002B79D0099B03F007039B00089A4F
:102B300002FA03F307930122099B02FA03F30693B7
:102B4000099B5B00032202FA03F30593099B03F040
:102B500007039B000F2202FA03F30493039B5A68B6
:102B6000069BDB431A400C9B1A43039B5A60039B52
:102B70009A68059BDB431A400B9B1A43039B9A60A0
:102B8000039BDA68059BDB431A400A9B1A43039BAD
:102B9000DA60019B03F00303022B1FD1099B072B73
:102BA00009D8039B1A6A049BDB431A40079B1A430C
:102BB000039B1A6208E0039B5A6A049BDB431A409A
:102BC000079B1A43039B5A62039B1A68059BDB43CE
:102BD0001A400D9B1A43039B1A601EE0039B1A6860
:102BE000059BDB431A400D9B1A43039B1A60099B0C
:102BF000072B09D8039B1A6A049BDB431A40079BE7
:102C00001A43039B1A6208E0039B5A6A049BDB4346
:102C10001A40079B1A43039B5A62029B5B0802936C
:102C2000029B002B0FD00C9B5B000C930B9B9B001B
:102C30000B930A9B9B000A930D9B9B000D93099B92
:102C4000013309936AE700BF0EB07047000000002F
:102C500082B020230193019B83F3118800BF00BF42
:102C600000BF00BF02B0704700000000000000007D
:102C700082B000230193019B83F3118800BF00BF42
:102C800000BF00BF02B0704700000000000000005D
:102C900008B5FFF7DDFF00BF08BD00BF0000000062
:102CA00008B5FFF7E5FF00BF08BD00BF000000004A
:102CB00008B500F01DFC00BF08BD00BF000000000B
:102CC0001B4B1B6C1A4A43F001031364184B1B6E19
:102CD000174A43F001031366154B1B6E154B9B6897
:102CE000144A43F0010393604FF0804342F2CF0255
:102CF0009A624FF080434FF0FF32DA624FF0804328
:102D000000229A614FF0804300225A634FF08043C3
:102D10000022DA604FF0804300225A604FF0804377
:102D200001225A614FF0804301221A6000BF7047B0
:102D300000380240002004E0000000000000000015
:102D400000B583B04FF080430193019B1B69009352
:102D5000019BDB68DBB2009A13400093009BDA43CF
:102D6000019B1A61009B03F00203002B05D0FFF7C3
:102D70008FFFFFF79DFFFFF793FF00BF03B05DF8E4
:102D800004FB00BF00000000000000000000000085
:102D900082B020230193019B83F3118800BF00BF01
:102DA00000BF00BF02B0704700000000000000003C
:102DB00082B000230193019B83F3118800BF00BF01
:102DC00000BF00BF02B0704700000000000000001C
:102DD00008B5FFF7DDFF00BF08BD00BF0000000021
:102DE00008B5FFF7E5FF00BF08BD00BF0000000009
:102DF00000B583B0019000910099019801F070FC3A
:102E000000BF03B05DF804FB0000000000000000FC
:102E100084B001900091019B5B6F0293019B9A6FBC
:102E2000009B1B68B2FBF3F30393009B9B881BB2D0
:102E3000002B08DA039B23F007035A00039B03F0DF
:102E4000070313430393029B039A9A60009BDB885A
:102E500043F040039BB21A46029B1A61009B1B89F8
:102E600043F001039BB21A46029B5A61009B9B8868
:102E700043F4045343F02C039BB21A46029BDA60DE
:102E8000029B00221A60029B1B68029B5B68009BEE
:102E90009B8803F4A053B3F5806F04D1019B7F227C
:102EA00083F87C2003E0019BFF2283F87C2000BF95
:102EB00004B07047000000000000000000000000A7
:102EC00000B585B001900B46ADF8023000230393A6
:102ED000BDF8023003F00803002B03D0039B43F03E
:102EE00080030393BDF8023003F00103002B03D0ED
:102EF000039B43F020030393BDF8023003F0020369
:102F0000002B03D0039B43F040030393BDF8023032
:102F100003F00403002B03D0039B43F4807303935B
:102F2000019B043303991846FFF762FF00BF05B009
:102F30005DF804FB0000000000000000000000003D
:102F400082B00190044BDB68034A43F0C003D360B6
:102F500000BF02B0704700BF004400400000000006
:102F600008B5064A00210648FEF7D2FF044B054A81
:102F70005A67034B044A9A6700BF08BD412F0008F7
:102F8000040D00200044004080DE800200000000AC
:102F900000B583B001900091009B002B01D1104B34
:102FA0000093019B1B7A012B11D1019B0D4A934287
:102FB0000DD10D4B1B6C0C4A43F4003313640A4BC8
:102FC0001B6E094A43F400331366074B1B6E0099CE
:102FD0000198FFF71DFF00BF03B05DF804FB00BFC1
:102FE0007C6B0008040D0020003802400000000047
:102FF00000B589B00190019B5B6F0693069BDB686F
:10300000ADF81630069B1B68ADF81E30BDF81E30BB
:1030100003F48073002B0ED0FFF7DAFE019B04331C
:103020004FF400711846FFF7E3FE069B6FF48072C1
:103030001A60FFF7D5FEFFF7CBFE24E0BDF81E3087
:1030400003F00F03002B05D0BDF81E301946019880
:10305000FFF736FF069B5B68DAB2019B93F87C3082
:1030600013408DF80F30BDF81E3003F02003002B05
:1030700005D09DF80F3019460198FEF791FF069B89
:103080001B68ADF81E30BDF81E3003F02F03002B77
:10309000D4D1FFF7A5FEBDF8163003F08003002B56
:1030A00022D0BDF81E3003F08003002B1CD0FFF7A8
:1030B0008FFE019B30331846FEF782FD0490049B7F
:1030C000002B0CDA019B043308211846FFF790FE11
:1030D000BDF8163023F08002069BDA6002E0049A05
:1030E000069B5A60FFF77CFEBDF8163003F04003E4
:1030F000002B27D0BDF81E3003F04003002B21D059
:10310000FFF766FE019B5A6C019B9B6C9A4205D1AE
:10311000019B9B6B002B01D0012300E0002303F0F7
:103120000103DBB2002B0BD0019B043310211846A6
:10313000FFF75EFEBDF8163023F04002069BDA6012
:10314000FFF74EFE00BF09B05DF804FB0000000071
:1031500084B00346ADF8063000230393BDF8063073
:1031600003F00803002B03D0039B43F010030393E9
:10317000BDF8063003F00103002B03D0039B43F09E
:1031800004030393BDF8063003F00203002B03D0C1
:10319000039B43F008030393BDF8063003F00403D8
:1031A000002B03D0039B43F020030393BDF80630AC
:1031B00003F48073002B03D0039B43F0400303937D
:1031C000039B184604B07047000000000000000098
:1031D00008B50B48FEF714FF094B0A4A9A60084BE2
:1031E000094ADA60064B06221A61054B06225A612B
:1031F000034B00229A61024B0022DA6100BF08BD36
:10320000840D00200010014000BD010500000000F9
:1032100010B586B00190019B9B680593059BDB6808
:103220000493059B1B68ADF80E30059B5B68BDF8E9
:103230000E2040F20F131340002B14D0059B6FF4A7
:1032400080721A60019B5B681B69002B0BD0019B8D
:103250005B681C69BDF80E301846FFF779FF03461E
:1032600019460198A047BDF80E3003F04003002B2B
:1032700017D0049B03F04003002B12D0059B6FF086
:1032800040021A60049B23F04002059BDA60019B18
:103290005B685B68002B04D0019B5B685B680198EE
:1032A0009847049B03F01003002B0FD0BDF80E309D
:1032B00003F01003002B09D0019B5B685B69002BB6
:1032C00004D0019B5B685B690198984700BF06B01A
:1032D00010BD00BF00000000000000000000000062
:1032E00082B001900091009B5A68019B5A60009B3C
:1032F0009A68019B9A60009BDA68019BDA60009BE8
:103300001A69019B5A61009B5A69019B1A62009BD2
:103310009A69019B5A62009B1A68019B1A6000BF60
:1033200002B0704700000000000000000000000034
:1033300008B51B4B1B691A4A43F01F031361184B56
:103340001B69174A23F01F031361154B1B69144BAC
:103350001B6B134A43F01F031363114B1B6D104A81
:1033600043F01F0313650E4B1B6D0E490E48FFF70C
:10337000B7FF0E490E48FFF7B3FF0E490E48FFF79F
:10338000AFFF0E490E48FFF7ABFF0E490E48FFF79F
:10339000A7FF0E490E48FFF7A3FF00BF08BD00BFFF
:1033A00000380240886B000800000240A46B00084F
:1033B00000040240C06B000800080240DC6B0008FB
:1033C000000C0240F86B000800100240146C00086A
:1033D000001C02400000000000000000000000008F
:1033E00008B5FFF7A5FFFFF733F800BF08BD00BF22
:1033F00000BF704700000000000000000000000057
:1034000000B58BB00190019B00221A6002AB1846F8
:1034100001F0CEF80423099302AB184601F0E8F856
:1034200002AB184601F0F4F8099B013B0993099B94
:10343000002BF1D1029A019B1A6000BF0BB05DF81E
:1034400004FB00BF000000000000000000000000BE
:1034500082B000230193019B83F3118800BF00BF5A
:1034600000BF02B0704700BF000000000000000075
:1034700008B501F085F901F0D3F901F029FA00BF90
:1034800008BD00BF000000000000000000000000B8
:1034900000B583B0114B01221A700023019308E09C
:1034A0000E4A019B9B00134400225A60019B01338A
:1034B0000193019B002BF3D00948FFF7A1FFFFF711
:1034C000D7FF0849084800F0ABFD044B02221A70F0
:1034D000FFF7BEFF00BF03B05DF804FBA80D00209E
:1034E000B00D0020C86C0008B80D002000000000DE
:1034F00008B500F04DFA00BF08BD00BF0000000095
:1035000082B00190044B5A6B019B1343024A5363F0
:1035100000BF02B0704700BFB80D002000000000DF
:1035200082B001900091019A009B1344184602B0AA
:10353000704700BF00000000000000000000000015
:1035400082B001900091009A019BD31A184602B0F4
:10355000704700BF000000000000000000000000F5
:1035600082B00190019B1B68019A9A420CBF012313
:103570000023DBB2184602B0704700BF0000000015
:1035800082B001900091019B1B68009A9A420CBF87
:1035900001230023DBB2184602B070470000000090
:1035A00084B0039002910192029B019A9A60029B5F
:1035B000039A5A60029B5B681A68029B1A60029B1E
:1035C0001B68029A5A60039B029A1A6000BF04B0FB
:1035D000704700BF00000000000000000000000075
:1035E00084B0039002910192029B019A9A60029B1F
:1035F000039A1A60029B1B685A68029B5A60029BDE
:103600005B68029A1A60039B029A5A6000BF04B07A
:10361000704700BF00000000000000000000000034
:1036200000B587B0039002910192039B1B6805933C
:1036300007E0059B9B68019AD31A0193059B1B68C1
:103640000593059B9B68019A9A428CBF0123002336
:10365000DBB2002BEDD1019A02990598FFF7C0FF6C
:10366000059B9A68019BD21A059B9A60039B4FF0B9
:10367000FF329A6000BF07B05DF804FB0000000055
:1036800084B00190019B1B680393039B1A68019B04
:103690001A60019B1B68019A5A60039B184604B08C
:1036A000704700BF000000000000000000000000A4
:1036B00082B00190019B5B68019A12681A60019BBD
:1036C0001B68019A52685A60019B184602B0704705
:1036D00000B583B001900198FDF7B2FF00BF03B0C1
:1036E0005DF804FB00000000000000000000000086
:1036F00008B5FDF7B5FF00BF08BD00BF0000000022
:1037000000B583B001900198FDF7B2FF00BF03B090
:103710005DF804FB00000000000000000000000055
:1037200008B5FDF785FF0346184608BD00000000F8
:1037300082B020230193019B83F3118800BF00BF57
:1037400000BF00BF02B07047000000000000000092
:1037500082B000230193019B83F3118800BF00BF57
:1037600000BF00BF02B07047000000000000000072
:1037700008B5FFF7D5FF0346184608BD0000000056
:1037800000B585B00390029101920093039B019ACA
:10379000DA60039B0299009A1846FFF701FF009B2D
:1037A000012B01D802230093039BDB680099184684
:1037B000FFF7B6FE03461846FFF78AFF00BF05B0C5
:1037C0005DF804FB000000000000000000000000A5
:1037D00000B589B00390029101920093039B1846B3
:1037E000FFF7BEFE0346002B06D0009B019A02990C
:1037F0000398FFF7C5FF2DE0039BDB68019918468E
:10380000FFF79EFE0590059A009B13440793079AC5
:10381000059B9A4201D2009B0793039B1B689B6800
:10382000079A9A4210D2079B0693069B012B01D858
:1038300002230693039BDB6806991846FFF770FE88
:1038400003461846FFF75CFF039B0299079A184648
:10385000FFF7E6FE09B05DF804FB00BF00000000C2
:1038600000B587B003900291019200930B4B059332
:10387000039B009A1A61039B019ADA60039B002262
:103880005A61FFF775FF0246029B03990598FFF7FF
:103890009FFF00BF07B05DF804FB00BFC80D00200C
:1038A00010B586B00190364B0493049B019A1146E3
:1038B0001846FFF765FE034683F00103DBB2002BD9
:1038C00014D0019B1846FFF7F3FE019B1B68996813
:1038D000019B9A68019B1B680A449A60019B002225
:1038E0001A60049B4FF0FF329A6046E0049B184632
:1038F000FFF7C6FE019B00221A60049B1846FFF7E3
:103900002FFE0346002B02D0FFF7F2FE35E0049BAA
:103910001B689968019B9A68049B1B680A449A601B
:10392000049BDC68FFF724FF034619462046FFF797
:1039300007FE0390049B1B689B68039A9A421BD264
:10394000049B1B689A68039BD31A0593059B012B64
:1039500003D8039B0233059303E0059A039B1344AA
:103960000593049BDB6805991846FFF7D9FD0346CC
:103970001846FFF7C5FE00E000BF06B010BD00BF4F
:10398000C80D002000000000000000000000000042
:1039900010B588B0574B0593059B1B680493FFF740
:1039A000E7FE0390059BDB6803991846FFF7C8FD07
:1039B0000290049B9B68029A9A4266D3059BDA6840
:1039C000049B9B6819461046FFF7AAFD0190059BD2
:1039D000019ADA60049B1846FFF76AFE049B0022F6
:1039E0001A60059B1846FFF7BBFD0346002B01D06C
:1039F000FFF77EFEFFF7ACFE049BDB68049A1269BA
:103A0000114604989847FFF793FE049B5B69002BCF
:103A100014BF01230023DBB2002BBDD0FFF7A8FEAB
:103A2000039003990198FFF78BFD0290049B5B695B
:103A3000029A9A4205D90220FFF762FD00230693FD
:103A400004E0049B5A69029BD31A0693059B18460F
:103A5000FFF786FD0346002B06D0069B039A0499C8
:103A60000598FFF78DFE42E0029A069B13440793E8
:103A7000079A029B9A4201D2069B0793059B0499E1
:103A8000079A1846FFF7CCFD86E700BF059B18464E
:103A9000FFF766FD0346002B28D1049B9A68029B22
:103AA000D31A0793079B012B01D802230793079989
:103AB0000398FFF735FD00900098FFF721FE059B66
:103AC000DC68FFF755FE034619462046FFF738FD30
:103AD0000446059BDB6800991846FFF731FD034655
:103AE0009C4204D90120FFF70BFD00E000BF08B0A5
:103AF00010BD00BFC80D0020000000000000000045
:103B000082B00190019B5B68019A12681A60019B68
:103B10001B68019A52685A60019B184602B07047B0
:103B200084B00190019B1B680393039B1A68019B5F
:103B30001A60019B1B68019A5A60039B184604B0E7
:103B4000704700BF000000000000000000000000FF
:103B500082B001900091019B1B680193019B9A68C0
:103B6000009B9B689A422CBF01230023DBB2002BF1
:103B7000F1D1009B019A1A60019B5A68009B5A6020
:103B8000009B5B68009A1A60019B009A5A60009B38
:103B9000184602B0704700BF00000000000000009F
:103BA00082B001900091019B1B680193019B9A6870
:103BB000009B9B689A428CBF01230023DBB2002B41
:103BC000F1D1009B019A1A60019B5A68009B5A60D0
:103BD000009B5B68009A1A60019B009A5A60009BE8
:103BE000184602B0704700BF00000000000000004F
:103BF00082B020230193019B83F3118800BF00BF93
:103C000000BF00BF02B070470000000000000000CD
:103C100082B000230193019B83F3118800BF00BF92
:103C200000BF00BF02B070470000000000000000AD
:103C300082B00190019B1B68002B14BF012300235D
:103C4000DBB2184602B07047000000000000000020
:103C500082B00190019B9B685A1C019B9A6000BF37
:103C600002B07047000000000000000000000000EB
:103C700000B583B00190019B002283F82420019BB2
:103C80009B691A46019B19461046FFF761FF0346E0
:103C9000184603B05DF804FB0000000000000000BF
:103CA00000B583B00190019B002283F82420019B82
:103CB0009B691A46019B19461046FFF771FF0346A0
:103CC000184603B05DF804FB00000000000000008F
:103CD00000B585B001900091009B0393FFF788FF2A
:103CE000039B93F82430072B24D801A252F823F029
:103CF000113D0008353D0008353D0008173D00081E
:103D00002B3D0008213D0008353D00082B3D0008F3
:103D1000FFF77EFF19E0039B9B6A00221A600AE00E
:103D2000039B9B6A1846FFF793FF039B1846FFF718
:103D3000E7FE00E000BF039B4FF0FF329A6203985A
:103D4000FFF796FFFFF764FF00BF05B05DF804FBC7
:103D500000B583B001900198FFF78AFF034618462B
:103D600003B05DF804FB00BF00000000000000008D
:103D700000B587B003468DF807300F4B0493049BC2
:103D8000DB680393039B9DF8072083F82420049BA2
:103D90001846FFF7C5FE0590059B012283F82420F5
:103DA000049B059ADA6003990598FCF799FA00BF1D
:103DB00007B05DF804FB00BFB80D00200000000054
:103DC00000B58BB0034600918DF80730154BDB68CA
:103DD0000993009BB3F1FF3F16D003A8099B124A39
:103DE0000099FFF73DFD9DF807301846FFF7C0FF2B
:103DF00003AB1846FFF71CFF0346002B09D003ABAB
:103E00001846FFF74DFD04E09DF807301846FFF710
:103E1000AFFF099B9B6A00BF00BF18460BB05DF85F
:103E200004FB00BFB80D0020D13C000800000000DA
:103E300000B585B001900091144B0293029BDB68A2
:103E40000393019B009A9A62019B9A68039B9B686B
:103E50009A4294BF01230023DBB2002B03D00198C8
:103E6000FFF706FF0EE00398FFF71AFF0390019B90
:103E7000012283F82420029B019ADA6003990198B9
:103E8000FCF72EFA00BF05B05DF804FBB80D00206A
:103E900084B00B4B0393039BDB680293039B1B686B
:103EA0009B680193029B9B680093019A009B9A4236
:103EB0008CBF01230023DBB2184604B0704700BF5B
:103EC000B80D00200000000000000000000000000D
:103ED00000B585B00E4B0393039BDB680293039BF5
:103EE0001846FFF71DFE0190019B012283F8242054
:103EF000039B019ADA600298FFF7D2FE02900299C2
:103F00000198FCF7EDF900BF05B05DF804FB00BFB8
:103F1000B80D0020000000000000000000000000BC
:103F200082B00190019B00221A6000BF02B070476E
:103F300082B00190019B00221A6000BF02B070475E
:103F400082B00190019B019A1A60019B019A5A600C
:103F500000BF02B0704700BF00000000000000007A
:103F600082B00190019B019A1A60019B019A5A60EC
:103F7000019B00229A6000BF02B070470000000061
:103F800082B00190019B019A1A60019B019A5A60CC
:103F9000019B4FF0FF329A6000BF02B0704700BF34
:103FA00008B5FDF745FB0346184608BD00000000B4
:103FB00008B5FFF7F5FF0346184608BD00000000EE
:103FC00030B583B00190019B1846FFF7D9FF019BE4
:103FD0000022DA60FFF7ECFF034600221C4615467C
:103FE000019BC3E9044500BF03B030BD00000000E1
:103FF00000B583B00190019B1846FFF7A1FF00BFF9
:1040000003B05DF804FB00BF0000000000000000EA
:1040100082B0019000BFFDE700000000000000003A
:1040200000B58BB00190009100230993284A099BA9
:104030009B001344019A5A60019B099A1A63019BE1
:10404000009A9A63019800F0E3FC019B1846FFF781
:1040500087FF019B28331846FFF7CAFF019B3433C3
:104060001846FFF75DFF019B10331846FFF7A8FFC6
:10407000019B84331846FFF75BFF019B03F13C0172
:104080008023144A019800F003F90246019BDA608C
:10409000019BDB68009A52681A62019BDB6801226F
:1040A00083F824200C4B0393009BDB680493009B54
:1040B0001B69059301230693084B0793002308937C
:1040C00003AB184600F054F900BF0BB05DF804FBD9
:1040D000A80D0020EC6C0008DC6C00081140000802
:1040E00082B00190019B019A1A6000BF02B0704734
:1040F00082B00190019B1B68019A9A4214BF012370
:104100000023DBB2184602B0704700BF0000000079
:1041100084B00190019B1B680393039B1A68019B69
:104120001A60039B184604B0704700BF00000000EF
:1041300082B00190019B019A1A60019B019A5A601A
:1041400000BF02B0704700BF000000000000000088
:1041500082B00190019B1B68019A9A4214BF01230F
:104160000023DBB2184602B0704700BF0000000019
:1041700082B001900091009B019A1A60019B5A68DD
:10418000009B5A60009B5B68009A1A60019B009A32
:104190005A6000BF02B0704700000000000000003D
:1041A00084B00190019B1B680393039B1A68019BD9
:1041B0001A60019B1B68019A5A60039B184604B061
:1041C000704700BF00000000000000000000000079
:1041D00082B00190019B5B68019A12681A60019B92
:1041E0001B68019A52685A60019B184602B07047DA
:1041F00082B020230193019B83F3118800BF00BF8D
:1042000000BF02B0704700BF0000000000000000C7
:1042100082B000230193019B83F3118800BF00BF8C
:1042200000BF02B0704700BF0000000000000000A7
:10423000014BDB6818467047B80D002000000000F5
:1042400000B583B0019001990820FFF7B9FD00BFC8
:1042500003B05DF804FB00BF000000000000000098
:1042600000B585B001900091019B1846FFF798FFBB
:104270000390039B009A9A620398FFF769FD00BFC1
:1042800005B05DF804FB00BF000000000000000066
:1042900000B585B00390029101920093029B009AB1
:1042A0009A60029B022283F82420029B002283F85A
:1042B0002520029B039A9A61029B009A1A64029B32
:1042C0000022DA63029B00229A63029B012283F898
:1042D0002620029B019ADA61039B03F12802029BCC
:1042E000103319461046FFF743FF029B2C33184644
:1042F000FFF7F6FE029B30331846FFF719FF029BCB
:10430000184605B05DF804FB000000000000000046
:1043100000B585B00190019B9B68483B0393019BCE
:104320005A68039B1A62039BA3F12402039BDA6081
:10433000019B1A69039BDB681A60019B5A69039B06
:10434000DB685A60039BDB68074A1A62019B1A68A4
:10435000019BDB6803990548FFF79AFF034600BFFE
:10436000184605B05DF804FBF1020008B80D002006
:1043700000B583B001900198FFF7CAFF03461846C5
:10438000FFF7E6FC0346184603B05DF804FB00BFE8
:1043900000B587B00390029101920093FFF728FFC8
:1043A000029B483B039A13440593059B039A1A62A8
:1043B000059BA3F12402059BDA60059BDB68009A4C
:1043C0001A60059BDB68089A5A60059BDB680B4AFC
:1043D0001A62019B0A4A05990A48FFF759FF05909E
:1043E00000210598FFF724FDFFF712FF059B00BF92
:1043F00000BF184607B05DF804FB00BFF1020008DB
:10440000E46C0008B80D002000000000000000006F
:1044100000B583B00190FFF7EBFE019800F008F8BB
:1044200000BF03B05DF804FB0000000000000000C6
:1044300000B585B00190FFF7FBFE0390039B019A46
:104440009A6208E0039B2C331846FFF761FE03468F
:104450001846FFF77DFC039B2C331846FFF748FEF8
:104460000346002BEED1039B93F82630002B0CBFA4
:1044700001230023DBB2002B10D0039B93F82530DF
:1044800003F00303002B0CBF01230023DBB2002B3E
:1044900004D0039B10331846FFF79AFE0F20FFF756
:1044A00067FC00BF05B05DF804FB00BF0000000022
:1044B00000B583B00190FFF79BFE0198FFF7C0FEA7
:1044C000FFF7A6FE00BF03B05DF804FB000000008C
:1044D00000B585B001900091FFF7AAFE0390009B04
:1044E000002B0CBF01230023DBB2002B02D04FF0C6
:1044F000FF3309E0019B03991846FFF739FE009945
:104500000420FFF75DFC0346184605B05DF804FB88
:1045100000B583B001900091019B1846FFF718FE8B
:104520000346002B03D000990198FFF799FE00BFC6
:1045300003B05DF804FB00BF0000000000000000B5
:10454000F0B484B0039002910192039BDB685A1C83
:10455000039BDA60039B9B68029AD21A019BD21AD2
:10456000039B9A60039BD3E9042303998968002085
:104570000C460546161943EB0507039BC3E9046780
:10458000039B9A68039B5B689A4203D9039B9A68D2
:10459000039B5A60039B9A68039B1B689A4203D251
:1045A000039B9A68039B1A6000BF04B0F0BC70477D
:1045B00082B00190019B4FF0FF321A60019B0022F4
:1045C0005A60019B00229A60019B0022DA600199E7
:1045D0004FF000024FF00003C1E9042300BF02B016
:1045E000704700BF00000000000000000000000055
:1045F00082B00190034B5A68019B9A6000BF02B0E1
:10460000704700BF001000E0000000000000000044
:1046100000B583B00190064B5B68064A9268194664
:104620000198FFF78DFF00BF03B05DF804FB00BFEA
:10463000001000E0A80D00200000000000000000B5
:1046400082B00190019B019A1A60019B019A5A6005
:1046500000BF02B0704700BF000000000000000073
:1046600000B583B00190019B1846FFF7E9FF019B5D
:1046700000229A6000BF03B05DF804FB0000000058
:1046800000B583B001900091019B9A6B009B1A4387
:10469000019B9A63019B93F824300A2B06D1019B5E
:1046A0009A6B019B9B6A1340002B0DD1019B93F8E1
:1046B00024300B2B0ED1019B9A6B019B9B6A1A40F5
:1046C000019B9B6A9A4205D1019B00229A62019844
:1046D000FFF73EFB00BF03B05DF804FB00000000E5
:1046E00000B585B001900091019B1B68039319E010
:1046F000039BDA68009B1A43039BDA60009B002B44
:1047000005D0039B1A69009B1340002B07D0039B25
:104710005A68039B9B6819461046FFF7B1FF039B3D
:104720001B680393039A019B9A42E1D100BF00BF2B
:1047300005B05DF804FB00BF0000000000000000B1
:1047400082B020230193019B83F3118800BF00BF37
:1047500000BF02B0704700BF000000000000000072
:1047600082B000230193019B83F3118800BF00BF37
:1047700000BF02B0704700BF000000000000000052
:10478000034B044A1A60024B034A5A6000BF704749
:10479000400F002090160020008001200000000043
:1047A00086B0039002910192104B5A68039B5B42C2
:1047B00013441A46029B5B4213400593019B5B42E4
:1047C000059A13440493094B1B68049A9A4204D334
:1047D000064B5B68049A9A4201D9002303E0034A1E
:1047E000049B5360059B184606B07047400F00209D
:1047F00000B587B0039002910192FFF7A1FF019AE3
:1048000002990398FFF7CCFF0590FFF7A9FF059BDE
:10481000184607B05DF804FB00000000000000002F
:1048200008B5074B074A1A60054B00225A60044B33
:1048300000229A600448FFF713FF00BF08BD00BFC5
:10484000480F0020F1470008540F0020000000002E
:1048500084B00390029101920093039B00221A609E
:10486000039B029A5A60039B019A9A60039B009AE9
:10487000DA6000BF04B070470000000000000000D4
:1048800000B583B001900091002200990198FFF7D4
:1048900087FF0346184603B05DF804FB00000000E4
:1048A00000B585B0039002910192019B0422029908
:1048B0000398FFF7CDFF00BF05B05DF804FB00BF14
:1048C00082B00190019B019A1A6000BF02B070474C
:1048D00008B51048FFF7C4FE0F48FFF7F1FF0F4A75
:1048E00014210F48FFF7DCFF0E48FFF7E9FF0E48E1
:1048F000FFF7E6FF094A1C210C48FFF7D1FF0C48DF
:10490000FFF7DEFF0B48FFF7DBFF0B48FFF7D8FF91
:1049100000BF08BD640F0020740F0020814800080C
:10492000780F0020880F00208C0F0020900F0020AF
:10493000A00F0020A40F0020A80F002000000000FE
:1049400084B00190019B03F0070303930B4BDB68DA
:104950000293029A4FF6FF0313400293039B1A023D
:10496000029B134343F0BF6343F400330293034AB3
:10497000029BD36000BF04B0704700BF00ED00E0B1
:1049800082B0034600918DF807309DF90730002B67
:104990000ADB009BDAB20C499DF907301201D2B252
:1049A0000B4483F800230BE0009BDAB207499DF823
:1049B000073003F00F03043B1201D2B20B441A7606
:1049C00000BF02B0704700BF00E100E000ED00E072
:1049D00084B0EFF309830093009B0393039B203380
:1049E0000393039B0193019B83F3098800BF00237A
:1049F0000293029B83F3118800BF00BF00BF00BF7A
:104A000004B070470000000000000000000000003B
:104A100000B585B0019020230393039B83F3118895
:104A200000BF62B600BF00BF0320FFF789FF0D4B38
:104A3000DB680C4A43F08073D3600B4B1B680A4A57
:104A400043F00103136001216FF00400FFF798FFAA
:104A500002216FF00100FFF793FF00BF05B05DF882
:104A600004FB00BFF0ED00E0001000E000000000DB
:104A700000B587B020230393039B83F3118800BF05
:104A800000BF00BF184B5B6803F40063002B20D00D
:104A9000EFF309830193019B0593059B203B05934D
:104AA000059B0493049B4FF08072DA61059B02938F
:104AB000029B83F3098800BFFFF7EAF90346002B46
:104AC00003D00A4A049B9A610BE0094A049B9A614D
:104AD00007E000230093009B83F3118800BF00BF11
:104AE00000BF07B05DF804FB00ED00E00303000821
:104AF00006030008000000000000000000000000A5
:104B000088B00390029101920093029B0593009B51
:104B1000002B02D1029B049301E0009B0493039BB2
:104B20000B330693059B019AB3FBF2F2019901FB4B
:104B300002F29B1A0793079B30330793079B392B8D
:104B400002DD079B07330793069B013B0693079BF8
:104B5000DAB2069B1A70059A019BB2FBF3F3059338
:104B6000049A019BB2FBF3F30493049B002BD9D16D
:104B7000039B03F10B02069BD31A0793069A531C5F
:104B80000693039B591C039112781A70079B013BF3
:104B90000793079B002BF1D1039B184608B0704781
:104BA00000B585B00390029101920023019A029909
:104BB0000398FFF7A5FF0346184605B05DF804FB10
:104BC00000B591B003900291019200230993029BDA
:104BD0005A1C02921B788DF837309DF83730002B25
:104BE00001D1099B4DE29DF83730252B0BD0039B5B
:104BF0001B68DB689DF83720114603989847099B8E
:104C0000013309933CE204AB0F9304AB0E930023F2
:104C10008DF82230029B1B782D2B05D1029B01338E
:104C2000029301238DF8223000238DF82130029B5E
:104C30001B782B2B05D1029B0133029301238DF8A6
:104C4000213020238DF83630029B1B78302B05D184
:104C5000029B0133029330238DF83630029B1B7880
:104C60002A2B0ED1019B1A1D01921B680A93029BED
:104C700001330293029B5A1C02921B788DF8373045
:104C800025E000230A93029B5A1C02921B788DF8A0
:104C900037309DF83730002B01D1099BF1E19DF8A9
:104CA00037302F2B13D99DF83730392B0FD89DF87B
:104CB0003730303B8DF837300A9A13469B00134447
:104CC0005B001A469DF8373013440A93DBE7002354
:104CD0000B939DF837302E2B3ED1029B5A1C02922B
:104CE0001B788DF837309DF83730002B01D1099BA8
:104CF000C7E19DF837302A2B26D1019B1A1D01925E
:104D00001B680B93029B5A1C02921B788DF837305C
:104D100022E09DF83730303B8DF837300B9A134640
:104D20009B0013445B001A469DF8373013440B93E5
:104D3000029B5A1C02921B788DF837309DF8373051
:104D4000002B01D1099B9CE19DF837302F2B03D913
:104D50009DF83730392BDCD99DF837306C2B03D0D8
:104D60009DF837304C2B0ED101238DF82330029B58
:104D70005A1C02921B788DF837309DF83730002B83
:104D800015D1099B7DE19DF83730402B05D99DF861
:104D900037305A2B01D8012300E000238DF823304F
:104DA0009DF8233003F001038DF8233000E000BFAD
:104DB0009DF83730443B342B00F2ED8001A252F8CD
:104DC00023F000BFFB4E0008974F0008974F0008E4
:104DD000974F0008974F0008FB4E0008974F0008B8
:104DE000974F0008974F0008974F0008974F00080B
:104DF000614F0008514F0008974F0008974F000877
:104E0000974F0008974F0008594F0008974F000828
:104E1000974F0008514F0008974F0008974F000820
:104E2000974F0008974F0008974F0008974F0008CA
:104E3000974F0008974F0008974F0008974F0008BA
:104E4000994E0008FB4E0008974F0008974F000846
:104E5000974F0008974F0008FB4E0008974F000837
:104E6000974F0008974F0008974F0008974F00088A
:104E7000614F0008514F0008974F0008974F0008F6
:104E8000B34E0008974F0008594F0008974F00088D
:104E9000974F0008514F000820238DF83630019BB2
:104EA0001A1D019219680F9B5A1C0F92CAB21A70F0
:104EB00079E020238DF83630019B1A1D01921B6882
:104EC0000E930E9B002B01D1704B0E930B9B002B6E
:104ED00002D147F6FF730B930E9B0F9302E00F9BDB
:104EE00001330F930F9B1B78002B5BD00B9B013B77
:104EF0000B930B9B002BF2DA54E09DF82330002B30
:104F000005D0019B1A1D01921B68079304E0019BC9
:104F10001A1D01921B680793079B002B08DA0F9B51
:104F20005A1C0F922D221A70079B5B42079308E0D0
:104F30009DF82130002B04D00F9B5A1C0F922B227E
:104F40001A700A2207990F98FFF72AFE0F902AE09D
:104F500010238DF8373006E00A238DF8373002E051
:104F600008238DF837309DF82330002B05D0019BA6
:104F70001A1D01921B68079304E0019B1A1D019200
:104F80001B6807939DF837301A4607990F98FFF76B
:104F900007FE0F9007E00F9B5A1C0F929DF83720D9
:104FA0001A7000E000BF0F9A0E9BD31A0C930A9A56
:104FB0000C9BD31A0A930A9B002B01DA00230A9355
:104FC0009DF8223083F00103DBB2002B02D00A9B54
:104FD0005B420A930A9B002B3ADA0E9B1B782D2B1F
:104FE00003D00E9B1B782B2B13D19DF83630302B22
:104FF0000FD1039B1B68DA680E9B591C0E911B781E
:10500000194603989047099B013309930C9B013B78
:105010000C93039B1B68DB689DF8362011460398B0
:105020009847099B013309930A9B01330A930A9B12
:10503000002BEED10CE0039B1B68DA680E9B591C19
:105040000E911B78194603989047099B01330993E9
:105050000C9B013B0C930C9B002BECDA0DE0039BAB
:105060001B68DB689DF83620114603989847099B1A
:10507000013309930A9B013B0A930A9B002BEED153
:10508000A5E5184611B05DF804FB00BF046D0008EB
:105090000EB400B584B0019006AB0293029A059954
:1050A0000198FFF78DFD0390039B00BF184604B0E5
:1050B0005DF804EB03B07047000000000000000042
:1050C00030B585B0CDE900014FF000022A4BDDE993
:1050D0000001FBF789FE02460B4610461946FBF716
:1050E0006BFF034603934FF00002234BDDE9000101
:1050F000FBF77AFE02460B4614461D460398FBF763
:10510000DFFC02460B4620462946FBF78BFB024696
:105110000B461046194616A3D3E90023FBF73AFDC8
:1051200002460B4610461946FBF746FF0346184653
:10513000FCF724F8034602930398FCF71FF8044693
:105140000E490298FCF722F903460D491846FCF770
:105150001DF9034619462046FBF75CFF0346184637
:10516000FBF7C0FC02460B461046194605B030BDA1
:1051700000000000006AF840000059400000704242
:1051800000007A4400000000000000000000000061
:1051900082B003468DF807309DF807302F2B07D9D2
:1051A0009DF80730392B03D89DF80730303B19E0C4
:1051B0009DF80730402B07D99DF80730462B03D8C0
:1051C0009DF80730373B0DE09DF80730602B07D97D
:1051D0009DF80730662B03D89DF80730573B01E058
:1051E0004FF0FF33184602B0704700BF00000000C8
:1051F00000B587B001900B468DF8033000238DF881
:1052000017300198FBF79CFA0346532B01D9002372
:105210006DE0019B5A1C01921B78242B0AD00023BD
:1052200065E0019B5A1C01921A789DF81730534093
:105230008DF81730019B1B78002B0DD0019B1B783C
:105240002A2B09D0019B1B7801332B4A13441B786E
:1052500003F09703002BE4D1019B1B782A2B2AD162
:10526000019B01330193019B5A1C01921B78184644
:10527000FFF78EFF0490049BB3F1FF3F01D10023A1
:1052800035E0019B5A1C01921B781846FFF780FFFE
:105290000390039BB3F1FF3F01D1002327E0049B60
:1052A0001B01039A134302939DF81730029A9A4206
:1052B00007D000231BE09DF80330002B01D0002312
:1052C00015E0019B1B78002B0FD00C490198FBF7D0
:1052D000BBF80346002B08D009490198FBF7B4F846
:1052E0000346002B01D0002301E0012300BF184634
:1052F00007B05DF804FB00BFEC720008806D000889
:10530000246D000800000000000000000000000004
:1053100082B003468DF807309DF8073001330C4A00
:1053200013441B7803F09703002B09D09DF8073036
:105330002C2B05D09DF807302A2B01D0012300E04B
:10534000002303F00103DBB2184602B0704700BF30
:10535000EC720008000000000000000000000000E7
:105360000EB400B5A6B0019000238DF8973000234D
:105370008DF8963028AB0B93019B249341E3279B38
:105380005A1C27921B788DF843309DF843303B2BF5
:1053900003D101238DF8963033E3249B002B07D1F2
:1053A0009DF8963083F00103DBB2002B40F032838E
:1053B0009DF84330443B302B00F22E8301A252F87B
:1053C00023F000BF8F570008195A0008195A000827
:1053D000195A0008195A0008195A0008195A0008E1
:1053E000195A0008195A0008195A0008195A0008D1
:1053F000195A0008195A0008195A0008195A0008C1
:10540000195A000877580008195A0008195A000854
:10541000195A0008195A0008195A0008195A0008A0
:10542000195A0008195A0008195A0008195A000890
:10543000D1590008195A0008195A0008195A0008C9
:1054400089540008BD540008195A00085355000833
:10545000195A0008195A0008B7560008195A0008C6
:10546000195A0008195A0008195A0008195A000850
:10547000195A0008195A0008195A0008195A000840
:10548000EF5600082957000800238DF88F30249B21
:10549000002B0BD0249B1B781846FFF739FF0346DF
:1054A000002B03D0249B1B788DF88F300B9B1A1D8B
:1054B0000B921B689DF88F201A708AE200232293BA
:1054C000249B002B3DD0249B1B781846FFF720FF20
:1054D0000346002B35D0249B1B78453B122B00F252
:1054E0009D8201A252F823F0355500081D5A00088C
:1054F0001D5A00081D5A00081D5A00081D5A0008B0
:105500001D5A00081D5A00081D5A0008355500088C
:105510001D5A00081D5A00081D5A00081D5A00088F
:105520003B5500081D5A00081D5A00081D5A000866
:105530003B5500080123229304E04FF0FF332293F0
:1055400000E000BF0B9B1A1D0B921B68229A1A6089
:105550003FE2002321934FF0FF33209300231F935A
:10556000249B002B7DD074E0249B1B782B2B09D12E
:10557000219B002B06D1209BB3F1FF3F02D10123D9
:10558000219363E0249B1B782D2B0AD1219B002BB8
:1055900007D1209BB3F1FF3F03D14FF0FF3321939D
:1055A00054E0249B1B780133874A13441B7803F093
:1055B0000403002B2ED0249B1B78303B0E93209BA2
:1055C000B3F1FF3F01D1002320930E9A6FF0004307
:1055D0009B1A7E4A82FB03129210DB17D31A209A81
:1055E0009A4204DD1F9B002B00F01A8239E0209ABA
:1055F00013469B0013445B001A460E9B13442093F2
:105600001F9B002B22D01F9A13469B0013445B0064
:105610001F931BE0249B1B782E2B05D11F9B002B77
:1056200002D101231F9311E0249B1B78202B40F013
:10563000F981219B002B40F0F781209BB3F1FF3FC4
:1056400040F0F2811F9B002B40F0EE81249B013340
:105650002493249B1B781846FFF75AFE0346002B21
:1056600082D1219B002B02D11F9B002B04D0209BB9
:10567000B3F1FF3F00F0DA81209BB3F1FF3F04D18B
:105680000023209300231F9304E01F9B002B01D1D4
:1056900001231F93219B002B04D0209B219A02FB06
:1056A00003F320930B9B1A1D0B921B68209A1A6020
:1056B0001F9A5A608DE100231E93249B002B0FD06C
:1056C00004AB0A221946249801F048F91E90049B65
:1056D0001B781846FFF71CFE0346002B40F0A881FC
:1056E0000B9B1A1D0B921B681E9A1A6071E10B9B93
:1056F0001A1D0B921B681D93249B002B10D007E0F2
:10570000249A531C24931D9B591C1D9112781A70C6
:10571000249B1B781846FFF7FBFD0346002BEFD1B7
:105720001D9B00221A7054E1249B002B00F0828103
:10573000249B1B78242B40F07F8100231C9312E0D4
:105740001C9B01331A46249B13441B781846FFF711
:10575000DFFD034683F00103DBB2002B40F06E81D6
:105760001C9B01331C931C9B042BE9DD0B9B1A1D16
:105770000B921B680F93249B0133052219460F9847
:10578000FAF7C4FD0F9B053300221A7021E10B9B31
:105790001A1D0B921B680C934FF0FF331B934FF0B5
:1057A000FF331A934FF0FF331993249B002B58D0EB
:1057B000249B1B781846FFF7ABFD0346002B50D007
:1057C0000023189314E000BFEC7200086766666659
:1057D000189B249A13441B7801339F4A13441B7867
:1057E00003F00403002B00F02B81189B0133189366
:1057F000189B052BECDD249B1B788DF81C30249B1B
:105800005B788DF81D3000238DF81E30249B9B782B
:105810008DF81830249BDB788DF8193000238DF833
:105820001A30249B1B798DF81430249B5B798DF8FA
:10583000153000238DF8163007AB0A2200211846D8
:1058400001F08CF81B9006AB0A220021184601F0EB
:1058500085F81A9005AB0A220021184601F07EF85F
:1058600019900C9B1B9A1A600C9B1A9A5A600C9BFD
:10587000199A9A60ADE00B9B1A1D0B921B680D9351
:105880004FF0FF3317934FF0FF3316934FF0FF3372
:1058900015934FF0FF331493249B002B00F08B8063
:1058A000249B1B781846FFF733FD0346002B00F0BE
:1058B0008280002313930FE0139B249A13441B78D8
:1058C0000133654A13441B7803F00403002B00F0F6
:1058D000B980139B01331393139B052BECDD249BA1
:1058E0001B788DF82830249B5B788DF829300023B5
:1058F0008DF82A30249B9B788DF82430249BDB780C
:105900008DF8253000238DF82630249B1B798DF8E7
:105910002030249B5B798DF8213000238DF82230D4
:105920000AAB0A220021184601F018F8179009ABBB
:105930000A220021184601F011F8169008AB0A223D
:105940000021184601F00AF81590249B0633249391
:10595000249B5A1C24921B782E2B2AD100231293AD
:105960003E4B119312E0129A13469B0013445B00C6
:105970001946249B5A1C24921B780B44303B1293EB
:10598000119B374AA2FB0323DB081193249B1B784E
:105990000133314A13441B7803F00403002B02D077
:1059A000119B012BDFD8129B119A02FB03F3149376
:1059B00001E0002314930D9B179A1A600D9B169A11
:1059C0005A600D9B159A9A600D9B149ADA6000E05C
:1059D00000BF02E0019B01330193019B1B78184635
:1059E000FFF796FC0346002BF4D1019B1B782C2B70
:1059F00005D1019B01330193019B249301E0002316
:105A00002493279B1B78002B7FF4B9AC01238DF8DE
:105A1000973018E000BF16E000BF14E000BF12E0AE
:105A200000BF10E000BF0EE000BF0CE000BF0AE0C6
:105A300000BF08E000BF06E000BF04E000BF02E0D6
:105A400000BF00E000BF9DF8973000BF184626B0A9
:105A50005DF804EB03B07047EC72000840420F00A1
:105A6000CDCCCCCC00000000000000000000000005
:105A700000B59FB001900B468DF803309DF80330C0
:105A800019460198FFF7B4FB034683F00103DBB22C
:105A9000002B02D04FF0FF3369E005AB1A463649C0
:105AA0000198FFF75DFC034683F00103DBB2002B96
:105AB00002D04FF0FF335AE005AB02332F491846AE
:105AC000FAF7C2FC0346002B01D101234FE005ABDE
:105AD00002332B491846FAF7B7FC0346002B01D1D5
:105AE000022344E005AB023326491846FAF7ACFC22
:105AF0000346002B01D1032339E005AB02332249D1
