:020000040800F2
:1000000000040020D9020008DB020008DB0200081F
:10001000DB020008DB020008DB020008DB0200084C
:10002000DB020008DB020008DB020008414D00088B
:10003000DB020008DB020008DB020008DB0200082C
:10004000DB020008DB020008DB020008DB0200081C
:10005000DB020008DB020008DB020008DB0200080C
:10006000DB020008DB020008DB0200084122000876
:1000700081220008D12200082123000871230008F2
:10008000B123000801240008DB020008DB0200089D
:10009000DB020008DB020008DB020008DB020008CC
:1000A000DB020008DB020008DB020008DB020008BC
:1000B000111F0008DB020008DB020008DB02000859
:1000C000DB020008DB020008DB020008DB0200089C
:1000D000DB020008211E0008511E0008DB02000898
:1000E000DB020008DB020008DB020008DB0200087C
:1000F000DB020008DB020008DB02000851240008D4
:10010000DB020008DB020008DB020008DB0200085B
:10011000DB020008DB020008DB020008DB0200084B
:10012000A1240008E12400083125000881250008E9
:10013000D1250008DB020008DB020008DB02000812
:10014000DB020008DB020008DB020008DB0200081B
:100150001126000861260008B1260008DB0200080D
:10016000DB020008DB020008DB020008DB020008FB
:10017000DB020008DB020008DB020008DB020008EB
:10018000DB020008DB020008DB020008DB020008DB
:10019000DB020008DB020008DB020008DB020008CB
:1001A000DB020008DB020008DB020008DB020008BB
:1001B000DB020008DB020008DB020008DB020008AB
:1001C000DB020008DB020008DB020008DB0200089B
:1001D000DB020008DB020008DB020008DB0200088B
:1002000072B6274880F30888264880F30988264874
:100210004EF60851CEF200010860022080F31488E7
:10022000BFF36F8F00F014FF03F04AFA4FF0553020
:100230001E491B4A91423CBF41F8040BFAE71C4996
:10024000184A91423CBF41F8040BFAE719491A4A8F
:100250001A4B9A423EBF51F8040B42F8040BF8E7E0
:1002600000201749174A91423CBF41F8040BFAE7B6
:1002700000F006FF00F0F4FE134C144DAC4203DA1C
:1002800054F8041B8847F9E706F03AFC104C114D6E
:10029000AC4203DA54F8041B8847F9E700F0E8BEE3
:1002A00000040020000800200000000800000020DA
:1002B000000400200C77000800080020580C0020E3
:1002C000580C0020C0160020E0010008E0010008E2
:1002D000E0010008E001000892E700F000F8FEE706
:1002E0002DE9F04FC1F80CD0C3689D46BDE8F08FF2
:1002F000002383F311882846A047002004F010FA59
:10030000FEE703F06DFF00DFFEE70000844641EAF0
:10031000000313F003036DD1403A41D351F8043B7D
:1003200040F8043B51F8043B40F8043B51F8043BCF
:1003300040F8043B51F8043B40F8043B51F8043BBF
:1003400040F8043B51F8043B40F8043B51F8043BAF
:1003500040F8043B51F8043B40F8043B51F8043B9F
:1003600040F8043B51F8043B40F8043B51F8043B8F
:1003700040F8043B51F8043B40F8043B51F8043B7F
:1003800040F8043B51F8043B40F8043B51F8043B6F
:1003900040F8043B51F8043B40F8043B403ABDD2DE
:1003A000303211D351F8043B40F8043B51F8043B80
:1003B00040F8043B51F8043B40F8043B51F8043B3F
:1003C00040F8043B103AEDD20C3205D351F8043B0F
:1003D00040F8043B043AF9D2043208D0D2071CBFDB
:1003E00011F8013B00F8013B01D30B880380604604
:1003F000704700BF082A13D38B078DD010F003037A
:100400008AD0C3F10403D21ADB071CBF11F8013BE9
:1004100000F8013B80D331F8023B20F8023B7BE738
:10042000043AD9D3013A11F8013B00F8013BF9D263
:100430000B7803704B7843708B78837060467047FD
:10044000A2EB0300704700BF02780B78012A28BF97
:100450009A42F5D16DE9044540EA0104CDE902670D
:100460006FF0000C4FEA447212B380EA010414F0FA
:10047000070F6AD100F0070420F0070004F003051D
:1004800021F007014FEAC505F0E8042314F0040F3A
:10049000F1E804670CFA05F462EA040266EA04066D
:1004A0000AD063EA0403624667EA0407664603E08B
:1004B000F0E80423F1E8046782FA4CF582EA0604C6
:1004C000A4FA8CF46CBB83FA4CF583EA0705A5FA11
:1004D0008CF595B950E9022351E9026782FA4CF58F
:1004E00082EA0604A4FA8CF483FA4CF583EA070541
:1004F000A5FA8CF52543DBD09CB92DBAB5FA85F465
:1005000024F0070427FA04F1DDE9026723FA04F373
:1005100003F0FF0001F0FF01FDE80445A0EB01003E
:10052000704724BAB4FA84F424F0070426FA04F1DC
:10053000DDE9026722FA04F202F0FF0001F0FF0198
:10054000FDE80445A0EB0100704714F0030F3CD117
:1005500010F0030428D150F8082B51F8083B82FA18
:100560004CF582EA0305A5FA8CF55DB950F8042C28
:1005700051F8043C82FA4CF582EA0305A5FA8CF5A1
:10058000002DE8D02DBAB5FA85F424F0070423FA3B
:1005900004F122FA04F202F0FF0001F0FF01FDE88D
:1005A0000445A0EB010070474FEAC40420F00300AB
:1005B00050F8082B21F0030151F8083B0CFA04F421
:1005C00062EA040263EA0403C9E710F003041AD0E4
:1005D000A1EB040120F00300E40750F8042B06D03F
:1005E0000FD28B785FFAA2F4E41A06D12BB1CB7844
:1005F0005FFAB2F4E41A00D11BB920465DF8104B43
:10060000704701F1040150F8042BCC0721F00301DD
:1006100051F8043B48D824D222F07F4482FA4CF5AA
:1006200094EA1325A5FA8CF50AD165B951F8043B73
:1006300084EA0204B4EB036F0ED150F8042BEBE70D
:100640004FEA132355E035F07F454DD10878FDE89A
:100650000445C0F1000070474FEA126203F0FF0347
:1006600047E002EA1C4482FA4CF594EA1345A5FAE5
:100670008CF50AD165B951F8043B84EA0204B4EB65
:10068000034F0CD150F8042BEBE74FEA134330E053
:1006900015EA1C4528D10B884FEA124229E04FEA9F
:1006A000124203EA1C4324E002F0FF0482FA4CF5F4
:1006B00094EA1365A5FA8CF50AD165B951F8043BA3
:1006C00084EA0204B4EB032F09D150F8042BEBE7C2
:1006D0004FEA13630DE015F0FF0F05D10B684FEAE9
:1006E000122223F07F4304E04FF00000FDE80445B0
:1006F000704712BA1BBA82FA4CF482EA0304A4FAD5
:100700008CF5B5FA85F402FA04F203FA04F34FEA21
:100710001260FDE80445A0EB136070470000000084
:1007200000000000000000000000000000000000C9
:1007300000000000000000000000000000000000B9
:1007400090F800F06DE9024520F007016FF0000C11
:1007500010F0070491F820F040F049804FF00004B9
:100760006FF00700D1E9002391F840F000F1080094
:1007700082FA4CF2A4FA8CF283FA4CF3A2FA8CF3CC
:100780004BBBD1E9022382FA4CF200F10800A4FA33
:100790008CF283FA4CF3A2FA8CF3E3B9D1E9042387
:1007A00082FA4CF200F10800A4FA8CF283FA4CF3BE
:1007B000A2FA8CF37BB9D1E9062301F1200182FA78
:1007C0004CF200F10800A4FA8CF283FA4CF3A2FA7E
:1007D0008CF3002BC6D0002A04BF04301A4612BA8C
:1007E000B2FA82F2FDE8024500EBD2007047D1E98F
:1007F000002304F00305C4F100004FEAC50514F01E
:10080000040F91F840F00CFA05F562EA05021CBFEE
:1008100063EA050362464FF00004A9E781F0004156
:1008200002E000BF83F0004330B54FEA41044FEAD5
:10083000430594EA050F08BF90EA020F1FBF54EA70
:10084000000C55EA020C7FEA645C7FEA655C00F00C
:10085000E2804FEA5454D4EB5555B8BF6D420CDDDD
:100860002C4480EA020281EA030382EA000083EA60
:10087000010180EA020281EA0303362D88BF30BD00
:1008800011F0004F4FEA01314FF4801C4CEA113156
:1008900002D0404261EB410113F0004F4FEA0333B5
:1008A0004CEA133302D0524263EB430394EA050F40
:1008B00000F0A780A4F10104D5F1200E0DDB02FAAF
:1008C0000EFC22FA05F2801841F1000103FA0EF243
:1008D000801843FA05F359410EE0A5F120050EF109
:1008E000200E012A03FA0EFC28BF4CF0020C43FA3A
:1008F00005F3C01851EBE37101F0004507D54FF047
:10090000000EDCF1000C7EEB00006EEB0101B1F596
:10091000801F1BD3B1F5001F0CD349085FEA3000DC
:100920004FEA3C0C04F101044FEA445212F5800FE7
:1009300080F09A80BCF1004F08BF5FEA500C50F184
:10094000000041EB045141EA050130BD5FEA4C0C67
:10095000404141EB0101013C28BFB1F5801FE9D2C4
:1009600091F0000F04BF01460020B1FA81F308BFE7
:100970002033A3F10B03B3F120020CDA0C3208DDB3
:1009800002F1140CC2F10C0201FA0CF021FA02F18E
:100990000CE002F11402D8BFC2F1200C01FA02F1FE
:1009A00020FA0CFCDCBF41EA0C019040E41AA2BF23
:1009B00001EB0451294330BD6FEA04041F3C1CDAEB
:1009C0000C340EDC04F11404C4F1200220FA04F00B
:1009D00001FA02F340EA030021FA04F345EA0301B5
:1009E00030BDC4F10C04C4F1200220FA02F001FA77
:1009F00004F340EA0300294630BD21FA04F02946F9
:100A000030BD94F0000F83F4801306BF81F4801191
:100A10000134013D4EE77FEA645C18BF7FEA655C04
:100A200029D094EA050F08BF90EA020F05D054EAD6
:100A3000000C04BF1946104630BD91EA030F1EBFDB
:100A40000021002030BD5FEA545C05D140004941DF
:100A500028BF41F0004130BD14F580043CBF01F5D2
:100A6000801130BD01F0004545F0FE4141F47001B8
:100A70004FF0000030BD7FEA645C1ABF1946104693
:100A80007FEA655C1CBF0B46024650EA013406BF94
:100A900052EA033591EA030F41F4002130BD00BF53
:100AA00090F0000F04BF0021704730B54FF4806410
:100AB00004F132044FF000054FF0000150E700BF91
:100AC00090F0000F04BF0021704730B54FF48064F0
:100AD00004F1320410F0004548BF40424FF00001DD
:100AE0003EE700BF42004FEAE2014FEA31014FEA20
:100AF00002701FBF12F07F4393F07F4F81F060516F
:100B0000704732F07F4208BF704793F07F4F04BFB9
:100B100041F40021704730B54FF4607401F0004596
:100B200021F000411CE700BF50EA010208BF7047F6
:100B300030B54FF000050AE050EA010208BF7047E7
:100B400030B511F0004502D5404261EB41014FF450
:100B5000806404F132045FEA915C3FF4D8AE4FF058
:100B600003025FEADC0C18BF03325FEADC0C18BF3B
:100B7000033202EBDC02C2F1200300FA03FC20FA8C
:100B800002F001FA03FE40EA0E0021FA02F11444D9
:100B9000BDE600BF80F0004002E000BF81F00041F0
:100BA00042001FBF5FEA410392EA030F7FEA226C13
:100BB0007FEA236C6AD04FEA1262D2EB1363C1BFA3
:100BC000D218414048404140B8BF5B42192B88BF12
:100BD000704710F0004F40F4000020F07F4018BF35
:100BE000404211F0004F41F4000121F07F4118BF55
:100BF000494292EA030F3FD0A2F1010241FA03FCFD
:100C000010EB0C00C3F1200301FA03F100F00043E4
:100C100002D5494260EB4000B0F5000F13D3B0F1AC
:100C2000807F06D340084FEA310102F10102FE2A1B
:100C300051D2B1F1004F40EBC25008BF20F001008B
:100C400040EA03007047490040EB0000013A28BF2A
:100C5000B0F5000FEDD2B0FA80FCACF1080CB2EBAD
:100C60000C0200FA0CF0AABF00EBC250524218432B
:100C7000BCBFD0401843704792F0000F81F40001D0
:100C800006BF80F400000132013BB5E74FEA4103A3
:100C90007FEA226C18BF7FEA236C21D092EA030F0F
:100CA00004D092F0000F08BF0846704790EA010F89
:100CB0001CBF0020704712F07F4F04D1400028BFB6
:100CC00040F00040704712F100723CBF00F5000098
:100CD000704700F0004343F0FE4040F400007047CE
:100CE0007FEA226216BF08467FEA2363014642027A
:100CF00006BF5FEA412390EA010F40F4800070478D
:100D00004FF0000304E000BF10F0004348BF404232
:100D10005FEA000C08BF704743F0964301464FF06E
:100D200000001CE050EA010208BF70474FF00003CA
:100D30000AE000BF50EA010208BF704711F000430B
:100D400002D5404261EB41015FEA010C02BF8446DB
:100D50000146002043F0B64308BFA3F18053A3F53A
:100D60000003BCFA8CF2083AA3EBC25310DB01FA81
:100D700002FC634400FA02FCC2F12002BCF1004F05
:100D800020FA02F243EB020008BF20F00100704796
:100D900002F1200201FA02FCC2F1200250EA4C00EA
:100DA00021FA02F243EB020008BF20EADC70704730
:100DB0004FF0FF0C1CEAD0521EBF1CEAD15392EA3E
:100DC0000C0F93EA0C0F6FD01A4480EA010C40021A
:100DD00018BF5FEA41211ED04FF0006343EA501074
:100DE00043EA5111A0FB01310CF00040B1F5000FB6
:100DF0003EBF490041EAD3715B0040EA010062F165
:100E00007F02FD2A1DD8B3F1004F40EBC25008BF4E
:100E100020F00100704790F0000F0CF0004C08BF6C
:100E200049024CEA502040EA51207F3AC2BFD2F139
:100E3000FF0340EAC250704740F400004FF0000347
:100E4000013A5DDC12F1190FDCBF00F00040704781
:100E5000C2F10002410021FA02F1C2F1200200FABF
:100E600002FC5FEA310040F1000053EA4C0308BF86
:100E700020EADC70704792F0000F00F0004C02BFD7
:100E8000400010F4000F013AF9D040EA0C0093F052
:100E9000000F01F0004C02BF490011F4000F013BAC
:100EA000F9D041EA0C018FE70CEAD15392EA0C0F1A
:100EB00018BF93EA0C0F0AD030F0004C18BF31F085
:100EC000004CD8D180EA010000F00040704790F05B
:100ED000000F17BF90F0004F084691F0000F91F0FF
:100EE000004F14D092EA0C0F01D142020FD193EAC5
:100EF0000C0F03D14B0218BF084608D180EA01004D
:100F000000F0004040F0FE4040F40000704740F028
:100F1000FE4040F4400070474FF0FF0C1CEAD052F6
:100F20001EBF1CEAD15392EA0C0F93EA0C0F69D052
:100F3000A2EB030280EA010C49024FEA402037D0BD
:100F40004FF0805343EA111143EA10130CF00040B4
:100F50008B4238BF5B0042F17D024FF4000C8B42A4
:100F600024BF5B1A40EA0C00B3EB510F24BFA3EB84
:100F7000510340EA5C00B3EB910F24BFA3EB910354
:100F800040EA9C00B3EBD10F24BFA3EBD10340EAAE
:100F9000DC001B0118BF5FEA1C1CE0D1FD2A3FF6F4
:100FA00050AF8B4240EBC25008BF20F001007047A9
:100FB0000CF0004C4CEA50207F32C2BFD2F1FF034C
:100FC00040EAC250704740F400004FF00003013A7D
:100FD00037E792F0000F00F0004C02BF400010F421
:100FE000000F013AF9D040EA0C0093F0000F01F035
:100FF000004C02BF490011F4000F013BF9D041EA57
:101000000C0195E70CEAD15392EA0C0F08D1420289
:101010007FF47DAF93EA0C0F7FF470AF084676E75C
:1010200093EA0C0F04D14B023FF44CAF08466EE735
:1010300030F0004C18BF31F0004CCAD130F0004203
:101040007FF45CAF31F000437FF43CAF5FE700BF5B
:1010500000BF70470000000000000000000000001A
:1010600000BF70470000000000000000000000000A
:10107000FEE700BF000000000000000000000000CC
:1010800084B0174B0393039B1B680293039B5B681D
:10109000019309E0029B1A68019B1A60019B0433CB
:1010A0000193029B04330293039B9B68019A9A422B
:1010B000F0D305E0019B00221A60019B04330193E9
:1010C000039BDB68019A9A42F4D3039B103303938A
:1010D000039B044A9342D6D300BF00BF04B07047BD
:1010E000246D0008A46D000800000000000000004E
:1010F00000BF70470000000000000000000000007A
:1011000008B5FFF7F5FF00F0A3FF01F011FC00F0B8
:10111000B7FC00F05DFD02F0DBFA00F041F800BF23
:1011200008BD00BF0000000000000000000000003B
:101130004FF080435B6A1846704700BF0000000014
:1011400082B001904FF08042019B53634FF0804387
:1011500000221A614FF080430222DA6000BF02B021
:10116000704700BF00000000000000000000000009
:101170004FF080430022DA6000BF7047000000009B
:1011800082B001904FF08042019B536300BF02B0D8
:10119000704700BF000000000000000000000000D9
:1011A00008B501F0BDFC00BF08BD00BF0000000095
:1011B00008B5FFF7BDFF0346184608BD0000000054
:1011C00000B583B001900198FFF7BAFF00BF03B0EC
:1011D0005DF804FB000000000000000000000000BB
:1011E00008B5FFF7C5FF00BF08BD00BF0000000045
:1011F00000B583B001900198FFF7C2FF00BF03B0B4
:101200005DF804FB0000000000000000000000008A
:1012100082B00190019B019A1A60019B019A5A6069
:1012200000BF02B0704700BF0000000000000000D7
:1012300082B020230193019B83F3118800BF00BF7C
:1012400000BF02B0704700BF0000000000000000B7
:1012500082B000230193019B83F3118800BF00BF7C
:1012600000BF02B0704700BF000000000000000097
:1012700000B583B00190019B1846FFF7C9FF00BF7E
:1012800003B05DF804FB00BF000000000000000098
:1012900008B5FFF7CDFF00BF08BD00BF000000008C
:1012A00008B5FFF7D5FF00BF08BD00BF0000000074
:1012B00000B583B001900198FFF7DAFF00BF03B0DB
:1012C0005DF804FB000000000000000000000000CA
:1012D00000B583B0019000910099019803F0B0FA35
:1012E0000346184603B05DF804FB00BF0000000091
:1012F00000B583B0019000910099019803F0C0FA05
:1013000000BF03B05DF804FB000000000000000017
:1013100000B587B0039002910192039B9B68019AEC
:101320009A4202D9039B9B680193039B1A69039B12
:101330009B69D31A0593019A059B9A420DD2039B90
:101340009B69019A19460298FEF7E0FF039B9A6990
:10135000019B1A44039B9A612BE0019A059B9A42D8
:101360001CD9039B9B69059A19460298FEF7CEFF8C
:10137000029A059B13440293019A059BD31A049386
:10138000039BDB68049A19460298FEF7BFFF039B94
:10139000DA68049B1A44039B9A610AE0039B9B69E9
:1013A000019A19460298FEF7B1FF039BDA68039B86
:1013B0009A61039B9A68019BD21A039B9A60019BD6
:1013C000184607B05DF804FB0000000000000000B4
:1013D00000B587B0039002910192039B9B68019A2C
:1013E0009A4202D9039B9B680193039B1A69039B52
:1013F0005B69D31A0593019A059B9A420DD2039B10
:101400005B69019A02991846FEF780FF039B5A69AF
:10141000019B1A44039B5A612BE0019A059B9A4257
:101420001CD9039B5B69059A02991846FEF76EFF6B
:10143000029A059B13440293019A059BD31A0493C5
:10144000039BDB68049A02991846FEF75FFF039B33
:10145000DA68049B1A44039B5A610AE0039B5B69A8
:10146000019A02991846FEF751FF039BDA68039B25
:101470005A61039B9A68019BD21A039B9A60019B55
:10148000184607B05DF804FB0000000000000000F3
:1014900000B585B00390029101920093039B18461A
:1014A000FFF706FF039B00229A60039B029ADA6013
:1014B000039B029A9A61039B029A5A61029A019BCA
:1014C0001A44039B1A61039B009ADA61039B069AF4
:1014D0001A6200BF05B05DF804FB00BF0000000009
:1014E00000B583B001900B468DF80330019B5A691B
:1014F000019B9B699A4205D1019B9B68002B01D0FF
:10150000012300E0002303F00103DBB283F00103B9
:10151000DBB2002B1DD0019B9B685A1C019B9A607B
:10152000019B5B69591C019A51619DF803201A7057
:10153000019B5A69019B1B699A4203D3019BDA689C
:10154000019B5A61019B00211846FFF7D1FE002341
:1015500001E04FF0FF33184603B05DF804FB00BF15
:1015600000B585B001900091FFF792FE0CE0019B61
:1015700000991846FFF7ACFE0290029B002B03DA9D
:10158000FFF78EFE029B26E0019B9B68002BEED0AE
:10159000019B9B685A1E019B9A60019B9B69591C89
:1015A000019A91611B788DF80F30019B9A69019B1C
:1015B0001B699A4203D3019BDA68019B9A61019BE4
:1015C000DB69002B03D0019BDB6901989847FFF78B
:1015D00067FE9DF80F30184605B05DF804FB00BFAC
:1015E00000B589B00390029101920093039BDB69DF
:1015F0000793019B0693FFF74BFE24E0019A0299A3
:101600000398FFF785FE0590059B002B09D1039BEE
:1016100000991846FFF75CFE0490049B002B12D043
:1016200014E0079B002B02D0079B03989847FFF715
:1016300037FE019A059BD31A0193029A059B134426
:101640000293FFF725FE019B002BD7D1FFF728FE61
:10165000069A019BD31A184609B05DF804FB00BF37
:1016600000B585B00390029101920093039B184648
:10167000FFF71EFE039B019A9A60039B029ADA60B1
:10168000039B029A9A61039B029A5A61029A019BF8
:101690001A44039B1A61039B009ADA61039B069A22
:1016A0001A6200BF05B05DF804FB00BF0000000037
:1016B00000B587B003900B4601928DF80B30FFF711
:1016C000E7FD0CE0039B01991846FFF701FE05902A
:1016D000059B002B03DAFFF7E3FD059B25E0039B49
:1016E0009B68002BEED0039B9B685A1E039B9A605D
:1016F000039B5B69591C039A51619DF80B201A707A
:10170000039B5A69039B1B699A4203D3039BDA68C4
:10171000039B5A61039BDB69002B03D0039BDB69AE
:1017200003989847FFF7BCFD0023184607B05DF803
:1017300004FB00BF000000000000000000000000EB
:1017400000B585B00190019B5A69019B9B699A4243
:1017500005D1019B9B68002B01D0012300E00023F1
:1017600003F00103DBB283F00103DBB2002B1ED0D8
:10177000019B9B685A1C019B9A60019B9B69591CA9
:10178000019A91611B788DF80F30019B9A69019B3A
:101790001B699A4203D3019BDA68019B9A61019B02
:1017A00000211846FFF7A4FD9DF80F3001E04FF02F
:1017B000FF33184605B05DF804FB00BF00000000D1
:1017C00000B589B00390029101920093039BDB69FD
:1017D0000793019B0693FFF75BFD24E0019A0299B2
:1017E0000398FFF7F5FD0590059B002B09D1039B9E
:1017F00000991846FFF76CFD0490049B002B12D053
:1018000014E0079B002B02D0079B03989847FFF733
:1018100047FD019A059BD31A0193029A059B134435
:101820000293FFF735FD019B002BD7D1FFF738FD61
:10183000069A019BD31A184609B05DF804FB00BF55
:1018400082B020230193019B83F3118800BF00BF66
:1018500000BF02B0704700BF0000000000000000A1
:1018600082B000230193019B83F3118800BF00BF66
:1018700000BF02B0704700BF000000000000000081
:1018800082B00190019B019A1A6000BF02B07047BC
:1018900008B5FFF7D5FF00BF08BD00BF000000007E
:1018A00008B5FFF7DDFF00BF08BD00BF0000000066
:1018B00000B583B001900198FFF7E2FF00BF03B0CD
:1018C0005DF804FB000000000000000000000000C4
:1018D00000B583B0019000910099019803F0B8F829
:1018E00000BF03B05DF804FB000000000000000032
:1018F00000B585B0039002910192039B03F1300083
:101900004FF0FF33019A0299FFF75AFF034618463A
:1019100005B05DF804FB00BF0000000000000000FF
:1019200000B585B0039002910192039B03F10C0076
:101930004FF0FF33019A0299FFF752FE0346184613
:1019400005B05DF804FB00BF0000000000000000CF
:1019500000B583B001900B468DF80330019B303306
:101960009DF803104FF0FF321846FFF7A1FE034623
:10197000184603B05DF804FB000000000000000002
:1019800000B583B00190019B0C334FF0FF31184636
:10199000FFF7E6FD0346184603B05DF804FB00BF01
:1019A00000B585B003900B4601928DF80B30039B78
:1019B00030339DF80B10019A1846FFF779FE034665
:1019C000184605B05DF804FB0000000000000000B0
:1019D00000B583B001900091019B0C33009918462B
:1019E000FFF7BEFD0346184603B05DF804FB00BFD9
:1019F00000B585B00390029101920093039B03F11F
:101A00003000009B019A0299FFF7DAFE0346184660
:101A100005B05DF804FB00BF0000000000000000FE
:101A200000B585B00390029101920093039B03F1EE
:101A30000C00009B019A0299FFF7D2FD034618465D
:101A400005B05DF804FB00BF0000000000000000CE
:101A500086B0039002910192039B0593029B002B99
:101A600002D0029B012B00E000BF0023184606B005
:101A7000704700BF000000000000000000000000F0
:101A800008B501F09DF900BF08BD00BF00000000CF
:101A900000B587B0059004910392059B124A1A6025
:101AA000059B04331846FFF703FF059B01221A72BA
:101AB000059B03F10C00059B03F15401059B00936A
:101AC000049B1022FFF7E4FC059B03F13000059B0B
:101AD00003F16401059B0093039B1022FFF7C0FDF7
:101AE00000BF07B05DF804FBA46D00080000000013
:101AF00000B583B001900091FFF7CAFE00990198EC
:101B000001F076F9019B02221A72FFF7C9FE00BFAD
:101B100003B05DF804FB00BF0000000000000000FF
:101B200000B583B001900B468DF80330019B5B69D3
:101B3000002B05D1019B043304211846FFF7C8FE92
:101B4000019B0C339DF8032011461846FFF7C8FC93
:101B50000346002B06DA019B04334FF480611846DC
:101B6000FFF7B6FE00BF03B05DF804FB0000000005
:101B700082B020230193019B83F3118800BF00BF33
:101B800000BF02B0704700BF00000000000000006E
:101B900082B000230193019B83F3118800BF00BF33
:101BA00000BF02B0704700BF00000000000000004E
:101BB00008B5FFF7DDFF00BF08BD00BF0000000053
:101BC00008B5FFF7E5FF00BF08BD00BF000000003B
:101BD00008B501F0BDFB00BF08BD00BF000000005C
:101BE00082B00190019B01221A70019B00225A7061
:101BF000019B00229A70019B00225A6000BF02B034
:101C0000704700BF0000000000000000000000005E
:101C100000B583B001900091FFF7CAFF019B009AC5
:101C20005A60019801F0B4FB019B02221A70FFF781
:101C3000C7FF00BF03B05DF804FB00BF0000000059
:101C400000B583B00190FFF7B3FF019801F018FCD5
:101C5000019B00225A60019B01221A70019B002205
:101C60005A70019B00229A70FFF7AAFF00BF03B0D1
:101C70005DF804FB00000000000000000000000010
:101C800082B001900091009BDBB2114A1B01D9B2D6
:101C9000019B134403F540730A461A70019B03F03D
:101CA0001F020B49019B5B09012000FA02F260331D
:101CB00041F82320019B03F01F020549019B5B09AA
:101CC000012000FA02F241F8232000BF02B0704761
:101CD00000E100E000000000000000000000000043
:101CE00082B00190019B03F01F020F49019B5B0929
:101CF000012000FA02F2203341F82320019B03F077
:101D00001F020949019B5B09012000FA02F26033BE
:101D100041F82320044A019B134403F54073002239
:101D20001A7000BF02B0704700E100E00000000040
:101D300000BF70470000000000000000000000002D
:101D400000BF70470000000000000000000000001D
:101D500000BF70470000000000000000000000000D
:101D600000BF7047000000000000000000000000FD
:101D700000BF7047000000000000000000000000ED
:101D800000BF7047000000000000000000000000DD
:101D900000BF7047000000000000000000000000CD
:101DA00000BF7047000000000000000000000000BD
:101DB00000BF7047000000000000000000000000AD
:101DC00000BF70470000000000000000000000009D
:101DD00000BF70470000000000000000000000008D
:101DE00000BF70470000000000000000000000007D
:101DF00000BF70470000000000000000000000006D
:101E000000BF70470000000000000000000000005C
:101E100008B50C212520FFF733FF00BF08BD00BF28
:101E200008B5034801F064FB02F0DAFF00BF08BD0B
:101E30005C0D002000000000000000000000000019
:101E400008B50C212620FFF71BFF00BF08BD00BF0F
:101E500008B5034800F0FCFF02F0C2FF00BF08BD58
:101E6000DC0C00200000000000000000000000006A
:101E700000BF7047000000000000000000000000EC
:101E800000BF7047000000000000000000000000DC
:101E900000BF7047000000000000000000000000CC
:101EA00000BF7047000000000000000000000000BC
:101EB00000BF7047000000000000000000000000AC
:101EC00000BF70470000000000000000000000009C
:101ED00000BF70470000000000000000000000008C
:101EE00000BF70470000000000000000000000007C
:101EF00000BF70470000000000000000000000006C
:101F000008B507211C20FFF7BBFE00BF08BD00BFBE
:101F100008B500F045FE02F063FF00BF08BD00BF3A
:101F200000BF70470000000000000000000000003B
:101F300000BF70470000000000000000000000002B
:101F400000BF70470000000000000000000000001B
:101F500000BF70470000000000000000000000000B
:101F600000BF7047000000000000000000000000FB
:101F700000BF7047000000000000000000000000EB
:101F800008B5FFF7D5FEFFF7DBFEFFF7E1FEFFF731
:101F9000E7FEFFF7EDFEFFF7F3FEFFF7F9FEFFF7B1
:101FA000FFFEFFF705FFFFF70BFFFFF711FFFFF73E
:101FB00017FFFFF71DFFFFF723FFFFF799FFFFF75D
:101FC0009FFFFFF7ADFFFFF7B3FFFFF7B9FFFFF785
:101FD000BFFFFFF7C5FFFFF7CBFFFFF719FFFFF7C5
:101FE0002FFFFFF745FFFFF74BFFFFF751FFFFF70D
:101FF00057FFFFF75DFFFFF763FFFFF769FFFFF78D
:102000006FFF00BF08BD00BF00000000000000001F
:102010000D4B1B680C4A43F4807313600B4B1B6F12
:1020200003F44073B3F5007F06D0084B4FF48032C1
:102030001A67064B00221A67034B5B68024A23F4B7
:102040000073536000BF70470070004000380240CA
:1020500008B5264B1B69254A63F01F031361234B08
:102060001B69224A03F01F031361204B1B691F4B9E
:102070005B691E4B4FF0FF325A611C4B5B691B4B77
:1020800000225A61194B5B69184B1B6A174A63F0AF
:1020900080531362154B1B6A144A03F0805313627A
:1020A000124B1B6A114B5B6A104B4FF0FF325A62A6
:1020B0000E4B5B6A0D4B00225A620C4B5B6A0B4B5A
:1020C0001B6C0A4A43F080531364084B1B6E074A8B
:1020D00043F080531366054B1B6EFFF799FF00F02A
:1020E0000FFBFFF74DFF00BF08BD00BF00380240E7
:1020F00082B0494B4FF080521A64484B4FF4004273
:102100001A60454B1B68444A43F00103136000BF4B
:10211000414B1B6803F00203002BF9D03E4B9B6838
:102120003D4A23F00303936000BF3B4B9B6803F0E1
:102130000C03002BF9D1384B1B68374A03F0F90325
:102140001360354B00229A60334B5B6F324A43F089
:102150000103536700BF304B5B6F03F00203002B9A
:10216000F9D02D4B2E4A5A602B4B1B682A4A43F05C
:102170008073136000BF294B5B6803F48043002B1E
:10218000F9D000BF244B1B6803F00073002BF9D07B
:10219000214B244A9A60002301931F4A019B43F07C
:1021A0000303C2F88C30204B1B68204A934209D1AC
:1021B0001F4B1B681F4A934204D11F4B4FF481727F
:1021C0001A6003E01C4B40F202721A6000BF1A4B07
:1021D0001B6803F00F03022BF9D10F4B9B680E4ACB
:1021E00043F00203936000BF0B4B9B6803F00C03AA
:1021F000082BF9D1084B5B6C074A43F480435364C6
:10220000054B5B6E044A43F480435366024B5B6E9E
:1022100000BF02B0704700BF0038024000700040AD
:102220001054010700108838002004E011640020D9
:1022300000ED00E041C20F41003C02400000000000
:1022400000B583B00C4B1B6803F03D0301930A4AB1
:10225000019B9360094B5B68002B06D0074B5B68C2
:10226000064A926801991046984702F0B9FD00BFEE
:1022700003B05DF804FB00BF00600240580C002072
:1022800000B583B00D4B1B689B0903F03D03019320
:102290000A4A019B9B019360094BDB68002B06D027
:1022A000074BDB68064A126901991046984702F00D
:1022B00097FD00BF03B05DF804FB00BF0060024063
:1022C000580C00200000000000000000000000008A
:1022D00000B583B00D4B1B681B0C03F03D0301934D
:1022E0000A4A019B1B049360094B5B69002B06D0D3
:1022F000074B5B69064A926901991046984702F0BC
:102300006FFD00BF03B05DF804FB00BF006002403A
:10231000580C002000000000000000000000000039
:1023200000B583B00D4B1B689B0D03F03D0301937B
:102330000A4A019B9B059360094BDB69002B06D081
:10234000074BDB69064A126A01991046984702F06A
:1023500047FD00BF03B05DF804FB00BF0060024012
:10236000580C0020000000000000000000000000E9
:1023700000B583B00C4B5B6803F03D0301930A4A40
:10238000019BD360094B5B6A002B06D0074B5B6A4D
:10239000064A926A01991046984702F021FD00BF53
:1023A00003B05DF804FB00BF00600240580C002041
:1023B00000B583B00D4B5B689B0903F03D030193AF
:1023C0000A4A019B9B01D360094BDB6A002B06D0B4
:1023D000074BDB6A064A126B01991046984702F0D8
:1023E000FFFC00BF03B05DF804FB00BF00600240CB
:1023F000580C002000000000000000000000000059
:1024000000B583B00D4B5B681B0C03F03D030193DB
:102410000A4A019B1B04D360094B5B6B002B06D05F
:10242000074B5B6B064A926B01991046984702F086
:10243000D7FC00BF03B05DF804FB00BF00600240A2
:10244000580C002000000000000000000000000008
:1024500000B583B00D4B5B689B0D03F03D0301930A
:102460000A4A019B9B05D360094BDB6B002B06D00E
:10247000074BDB6B064A126C01991046984702F035
:10248000AFFC00BF03B05DF804FB00BF006002407A
:10249000580C0020000000000000000000000000B8
:1024A00000B583B00C4B1B6803F03D0301930A4A4F
:1024B000019B9360094B5B6C002B06D0074B5B6C58
:1024C000064A926C01991046984702F089FC00BFB9
:1024D00003B05DF804FB00BF00640240580C00200C
:1024E00000B583B00D4B1B689B0903F03D030193BE
:1024F0000A4A019B9B019360094BDB6C002B06D0C1
:10250000074BDB6C064A126D01991046984702F0A2
:1025100067FC00BF03B05DF804FB00BF006402402D
:10252000580C002000000000000000000000000027
:1025300000B583B00D4B1B681B0C03F03D030193EA
:102540000A4A019B1B049360094B5B6D002B06D06C
:10255000074B5B6D064A926D01991046984702F051
:102560003FFC00BF03B05DF804FB00BF0064024005
:10257000580C0020000000000000000000000000D7
:1025800000B583B00D4B1B689B0D03F03D03019319
:102590000A4A019B9B059360094BDB6D002B06D01B
:1025A000074BDB6D064A126E01991046984702F000
:1025B00017FC00BF03B05DF804FB00BF00640240DD
:1025C000580C002000000000000000000000000087
:1025D00000B583B00C4B5B6803F03D0301930A4ADE
:1025E000019BD360094B5B6E002B06D0074B5B6EE3
:1025F000064A926E01991046984702F0F1FB00BF1F
:1026000003B05DF804FB00BF00640240580C0020DA
:1026100000B583B00D4B5B689B0903F03D0301934C
:102620000A4A019B9B01D360094BDB6E002B06D04D
:10263000074BDB6E064A126F01991046984702F06D
:10264000CFFB00BF03B05DF804FB00BF0064024095
:10265000580C0020000000000000000000000000F6
:1026600000B583B00D4B5B681B0C03F03D03019379
:102670000A4A019B1B04D360094B5B6F002B06D0F9
:10268000074B5B6F064A926F01991046984702F01C
:10269000A7FB00BF03B05DF804FB00BF006402406D
:1026A000580C0020000000000000000000000000A6
:1026B00000B583B00D4B5B689B0D03F03D030193A8
:1026C0000A4A019B9B05D360094BDB6F002B07D0A7
:1026D000074BDB6F064AD2F88020019910469847D5
:1026E00002F07EFB00BF03B05DF804FB0064024013
:1026F000580C002000000000000000000000000056
:1027000082B0174B00221A600023019312E0154992
:10271000019A13465B0013449B000B441B68002284
:102720001A600F4A019BDB00134400225A60019B90
:1027300001330193019B0F2BE9D90B4B4FF0FF3273
:102740009A60094B4FF0FF32DA60084B4FF0FF32CE
:102750009A60064B4FF0FF32DA6000BF02B070475C
:10276000580C0020CC6D000800600240006402405C
:1027700000B58BB00390029101920093039B0F2B45
:1027800006D8039B0893039B0793089B099378E063
:1027900000237BE00122099B02FA03F306933D4BE1
:1027A0001A68069B1340002B68D1099A13465B00F8
:1027B00013449B00384A13440593364A099BDB00B7
:1027C0001344019A5A60334A099BDB001344009A70
:1027D0009A60304B1A68069B13432E4A1360069B7F
:1027E000DBB2002B0DD02D4B1B6B2C4A43F4001396
:1027F00013632A4B1B6D294A43F400131365274BBF
:102800001B6D069B03F47F43002B0DD0234B1B6BEA
:10281000224A43F480031363204B1B6D1F4A43F489
:10282000800313651D4B1B6D059B1B681A68059B78
:102830001B6822F01F021A60059B1B681B6803F0CF
:102840000103002BF8D1059B5B7A1946059B5B6859
:102850003D228A401A60059B1B6800221A60059B76
:102860001B6821225A61019B002B05D0059BDB7A56
:1028700002991846FFF704FA059B07E0099B01330C
:102880000993099A079B9A4284D9002318460BB0F2
:102890005DF804FB580C0020CC6D000800380240A5
:1028A00000B583B00190019BDB7A1846FFF718FA58
:1028B0001A4B1A68019B9B7A194601238B40DB4314
:1028C0001340164A1360154B1B68DBB2002B0DD169
:1028D000134B1B6B124A23F400131363104B1B6D35
:1028E0000F4A23F4001313650D4B1B6D0B4B1B6834
:1028F00003F47F43002B0DD1094B1B6B084A23F4D3
:1029000080031363064B1B6D054A23F48003136594
:10291000034B1B6D00BF03B05DF804FB580C002097
:10292000003802400000000000000000000000002D
:1029300000BF704700000000000000000000000021
:102940008EB0039002910192019B03F003030D935B
:10295000019B9B0803F001030C93019BDB0803F030
:1029600003030B93019B5B0903F003030A93019B91
:10297000DB0903F00F03089300230993029B03F084
:102980000103002B79D0099B03F007039B00089AF1
:1029900002FA03F307930122099B02FA03F3069359
:1029A000099B5B00032202FA03F30593099B03F0E2
:1029B00007039B000F2202FA03F30493039B5A6858
:1029C000069BDB431A400C9B1A43039B5A60039BF4
:1029D0009A68059BDB431A400B9B1A43039B9A6042
:1029E000039BDA68059BDB431A400A9B1A43039B4F
:1029F000DA60019B03F00303022B1FD1099B072B15
:102A000009D8039B1A6A049BDB431A40079B1A43AD
:102A1000039B1A6208E0039B5A6A049BDB431A403B
:102A2000079B1A43039B5A62039B1A68059BDB436F
:102A30001A400D9B1A43039B1A601EE0039B1A6801
:102A4000059BDB431A400D9B1A43039B1A60099BAD
:102A5000072B09D8039B1A6A049BDB431A40079B88
:102A60001A43039B1A6208E0039B5A6A049BDB43E8
:102A70001A40079B1A43039B5A62029B5B0802930E
:102A8000029B002B0FD00C9B5B000C930B9B9B00BD
:102A90000B930A9B9B000A930D9B9B000D93099B34
:102AA000013309936AE700BF0EB0704700000000D1
:102AB00082B020230193019B83F3118800BF00BFE4
:102AC00000BF00BF02B0704700000000000000001F
:102AD00082B000230193019B83F3118800BF00BFE4
:102AE00000BF00BF02B070470000000000000000FF
:102AF00008B5FFF7DDFF00BF08BD00BF0000000004
:102B000008B5FFF7E5FF00BF08BD00BF00000000EB
:102B100008B500F075FE00BF08BD00BF0000000052
:102B20001B4B1B6C1A4A43F001031364184B1B6EBA
:102B3000174A43F001031366154B1B6E154B9B6838
:102B4000144A43F0010393604FF0804342F2CF02F6
:102B50009A624FF080434FF0FF32DA624FF08043C9
:102B600000229A614FF0804300225A634FF0804365
:102B70000022DA604FF0804300225A604FF0804319
:102B800001225A614FF0804301221A6000BF704752
:102B900000380240002004E00000000000000000B7
:102BA00000B583B04FF080430193019B1B690093F4
:102BB000019BDB68DBB2009A13400093009BDA4371
:102BC000019B1A61009B03F00203002B05D0FFF765
:102BD0008FFFFFF79DFFFFF793FF00BF03B05DF886
:102BE00004FB00BF00000000000000000000000027
:102BF00082B020230193019B83F3118800BF00BFA3
:102C000000BF00BF02B070470000000000000000DD
:102C100082B000230193019B83F3118800BF00BFA2
:102C200000BF00BF02B070470000000000000000BD
:102C300008B5FFF7DDFF00BF08BD00BF00000000C2
:102C400008B5FFF7E5FF00BF08BD00BF00000000AA
:102C500000B583B0019000910099019801F0F8FE51
:102C600000BF03B05DF804FB00000000000000009E
:102C700084B001900091019B5B6F0293019B9A6F5E
:102C8000009B1B68B2FBF3F30393009B9B881BB272
:102C9000002B08DA039B23F007035A00039B03F081
:102CA000070313430393029B039A9A60009BDB88FC
:102CB00043F040039BB21A46029B1A61009B1B899A
:102CC00043F001039BB21A46029B5A61009B9B880A
:102CD00043F4045343F02C039BB21A46029BDA6080
:102CE000029B00221A60029B1B68029B5B68009B90
:102CF0009B8803F4A053B3F5806F04D1019B7F221E
:102D000083F87C2003E0019BFF2283F87C2000BF36
:102D100004B0704700000000000000000000000048
:102D200000B585B001900B46ADF802300023039347
:102D3000BDF8023003F00803002B03D0039B43F0DF
:102D400080030393BDF8023003F00103002B03D08E
:102D5000039B43F020030393BDF8023003F002030A
:102D6000002B03D0039B43F040030393BDF80230D4
:102D700003F00403002B03D0039B43F480730393FD
:102D8000019B043303991846FFF762FF00BF05B0AB
:102D90005DF804FB000000000000000000000000DF
:102DA00082B00190044BDB68034A43F0C003D36058
:102DB00000BF02B0704700BF0044004000000000A8
:102DC00008B5064A00210648FEF762FE044B054A94
:102DD0005A67034B044A9A6700BF08BDA12D00083B
:102DE000DC0C00200044004080DE80020000000077
:102DF00000B583B001900091009B002B01D1104BD6
:102E00000093019B1B7A012B11D1019B0D4A934228
:102E10000DD10D4B1B6C0C4A43F4003313640A4B69
:102E20001B6E094A43F400331366074B1B6E00996F
:102E30000198FFF71DFF00BF03B05DF804FB00BF62
:102E40008C6E0008DC0C00200038024000000000FE
:102E500000B589B00190019B5B6F0693069BDB6810
:102E6000ADF81630069B1B68ADF81E30BDF81E305D
:102E700003F48073002B0ED0FFF7DAFE019B0433BE
:102E80004FF400711846FFF7E3FE069B6FF4807263
:102E90001A60FFF7D5FEFFF7CBFE24E0BDF81E3029
:102EA00003F00F03002B05D0BDF81E301946019822
:102EB000FFF736FF069B5B68DAB2019B93F87C3024
:102EC00013408DF80F30BDF81E3003F02003002BA7
:102ED00005D09DF80F3019460198FEF721FE069B9C
:102EE0001B68ADF81E30BDF81E3003F02F03002B19
:102EF000D4D1FFF7A5FEBDF8163003F08003002BF8
:102F000022D0BDF81E3003F08003002B1CD0FFF749
:102F10008FFE019B30331846FEF712FC0490049B91
:102F2000002B0CDA019B043308211846FFF790FEB2
:102F3000BDF8163023F08002069BDA6002E0049AA6
:102F4000069B5A60FFF77CFEBDF8163003F0400385
:102F5000002B27D0BDF81E3003F04003002B21D0FA
:102F6000FFF766FE019B5A6C019B9B6C9A4205D150
:102F7000019B9B6B002B01D0012300E0002303F099
:102F80000103DBB2002B0BD0019B04331021184648
:102F9000FFF75EFEBDF8163023F04002069BDA60B4
:102FA000FFF74EFE00BF09B05DF804FB0000000013
:102FB00000B583B00190019800F00AFC00BF03B097
:102FC0005DF804FB000000000000000000000000AD
:102FD00084B00346ADF8063000230393BDF80630F5
:102FE00003F00803002B03D0039B43F0100303936B
:102FF000BDF8063003F00103002B03D0039B43F020
:1030000004030393BDF8063003F00203002B03D042
:10301000039B43F008030393BDF8063003F0040359
:10302000002B03D0039B43F020030393BDF806302D
:1030300003F48073002B03D0039B43F040030393FE
:10304000039B184604B07047000000000000000019
:1030500084B00190019B5B68DB68002B03D14FF4C7
:103060008073039302E04FF488730393019B03F191
:103070002002019B9B691B68DA60019B9B691B68AE
:1030800001225A60019B1969019B9B691B68039A85
:103090000A431A60019B9B691B681A68019B9B6924
:1030A0001B6842F001021A6000BF04B0704700BF05
:1030B00082B00190019B9B691B681A68019B9B6908
:1030C0001B6822F01F021A60019B9B691B681B682A
:1030D00003F00103002BF7D1019B9B695B7A194632
:1030E000019B9B695B683D228A401A60019BDB69FA
:1030F0001B681A68019BDB691B6822F01F021A60BB
:10310000019BDB691B681B6803F00103002BF7D1EF
:10311000019BDB695B7A1946019BDB695B683D2299
:103120008A401A60019B9B680022DA60019B9B68C1
:1031300000221A61019B9B6800225A6100BF02B005
:10314000704700BF00000000000000000000000009
:1031500000B587B00190019B9B6804930198FFF72D
:10316000A7FF019BDA68019B5B689B69B2FBF3F3E5
:103170000593019B5B689B8B1BB2002B08DA059BB8
:1031800023F007035A00059B03F00703134305933D
:10319000049B059A9A60049B1B68049B5B68049BD4
:1031A00000221A60019B5B68DB8B43F040039BB2FB
:1031B0001A46049B1A61019B5B681B8C43F0C10398
:1031C0009BB21A46049B5A6142F20C13ADF80E30C2
:1031D000019B5B689A8BBDF80E3013439BB21A4675
:1031E000049BDA600198FFF733FF00BF07B05DF87A
:1031F00004FB00BF00000000000000000000000011
:1032000000B583B001900091009B03F00C03002BEC
:1032100002D02748FFF7CCFE019B9B78002B0ED1F4
:10322000019B5B68DB68002B3DD0019B5B68DB6822
:10323000019A128C92B211460198984733E0019B93
:103240009B691B681A68019B9B691B6822F01F021F
:103250001A6000BF019B9B691B681B6803F0010398
:10326000002BF7D1019B9B695B7A1946019B9B69F7
:103270005B683D228A401A60019B02229A70019B82
:103280005B689B68002B04D0019B5B689B6801987E
:103290009847019B9B78022B05D1019B00229A70D5
:1032A0000198FFF7D5FE00BF03B05DF804FB00BF37
:1032B000986E000800000000000000000000000000
:1032C00000B583B001900091009B03F00C03002B2C
:1032D00002D01C48FFF76CFE019BDB691B681A6873
:1032E000019BDB691B6822F01F021A6000BF019B73
:1032F000DB691B681B6803F00103002BF7D1019BFE
:10330000DB695B7A1946019BDB695B683D228A4079
:103310001A60019B02225A70019B5B681B68002B9C
:1033200004D0019B5B681B6801989847019B5B7800
:10333000022B02D1019B00225A7000BF03B05DF83E
:1033400004FB00BF986E00080000000000000000B1
:1033500008B50B48FEF744FC094B0A4A9A60084B33
:10336000094ADA60064B06221A61054B06225A61A9
:10337000034B00229A61024B0022DA6100BF08BDB4
:103380005C0D00200010014000BD010500000000A0
:1033900000B583B00190019B1B78012B58D1019B94
:1033A000324A93422FD1019B314A0C210D20FFF765
:1033B000DFF90246019B9A61019B2E4A0C210F20E6
:1033C000FFF7D6F90246019BDA612B4B5B6C2A4A68
:1033D00043F010035364284B5B6E274A43F01003FD
:1033E0005366254B5B6E0C212520FEF749FC019BA3
:1033F0001B6943F00062019B1A61019B5B6943F00A
:103400000062019B5A61019B5B689B8B03F4A05394
:10341000B3F5805F0BD1019B1B6943F42052019BE4
:103420001A61019B5B6943F42052019B5A61019B25
:103430009B681A1D019B9B691B689A60019B9B6896
:103440001A1D019BDB691B689A60019B00221A848C
:10345000019B00229A70019B00225A700198FFF78D
:1034600077FE00BF03B05DF804FB00BF5C0D0020D9
:1034700001320008C132000800380240000000009C
:1034800000B583B00190019B1B78022B28D10198D5
:10349000FFF70EFE019B9B691846FFF701FA019B9F
:1034A000DB691846FFF7FCF9019B00229A61019B3A
:1034B0000022DA61019B0C4A934211D12520FEF7CC
:1034C0000FFC0A4B5B6C094A23F010035364074B53
:1034D0005B6E064A23F010035366044B5B6E00BF1D
:1034E00003B05DF804FB00BF5C0D00200038024013
:1034F00010B586B00190019B9B680593059BDB6826
:103500000493059B1B68ADF80E30059B5B68BDF806
:103510000E2040F20F131340002B14D0059B6FF4C4
:1035200080721A60019B5B681B69002B0BD0019BAA
:103530005B681C69BDF80E301846FFF749FD03466D
:1035400019460198A047BDF80E3003F04003002B48
:1035500017D0049B03F04003002B12D0059B6FF0A3
:1035600040021A60049B23F04002059BDA60019B35
:103570005B685B68002B04D0019B5B685B6801980B
:103580009847049B03F01003002B0FD0BDF80E30BA
:1035900003F01003002B09D0019B5B685B69002BD3
:1035A00004D0019B5B685B690198984700BF06B037
:1035B00010BD00BF0000000000000000000000007F
:1035C00082B001900091009B5A68019B5A60009B59
:1035D0009A68019B9A60009BDA68019BDA60009B05
:1035E0001A69019B5A61009B5A69019B1A62009BF0
:1035F0009A69019B5A62009B1A68019B1A6000BF7E
:1036000002B0704700000000000000000000000051
:1036100008B51B4B1B691A4A43F01F031361184B73
:103620001B69174A23F01F031361154B1B69144BC9
:103630001B6B134A43F01F031363114B1B6D104A9E
:1036400043F01F0313650E4B1B6D0E490E48FFF729
:10365000B7FF0E490E48FFF7B3FF0E490E48FFF7BC
:10366000AFFF0E490E48FFF7ABFF0E490E48FFF7BC
:10367000A7FF0E490E48FFF7A3FF00BF08BD00BF1C
:1036800000380240A46E000800000240C06E00082E
:1036900000040240DC6E000800080240F86E0008DA
:1036A000000C0240146F000800100240306F000848
:1036B000001C0240000000000000000000000000AC
:1036C00008B5FFF7A5FFFEF713FD00BF08BD00BF5B
:1036D00000BF704700000000000000000000000074
:1036E00000B58BB00190019B00221A6002AB184616
:1036F00001F016F90423099302AB184601F030F9E2
:1037000002AB184601F03CF9099B013B0993099B68
:10371000002BF1D1029A019B1A6000BF0BB05DF83B
:1037200004FB00BF000000000000000000000000DB
:1037300082B000230193019B83F3118800BF00BF77
:1037400000BF02B0704700BF000000000000000092
:1037500008B501F0CDF901F01BFA01F071FA00BFD4
:1037600008BD00BF000000000000000000000000D5
:1037700000B583B0114B01221A700023019308E0B9
:103780000E4A019B9B00134400225A60019B0133A7
:103790000193019B002BF3D00948FFF7A1FFFFF72E
:1037A000D7FF0849084800F0C3FD044B02221A70F5
:1037B000FFF7BEFF00BF03B05DF804FB800D0020E3
:1037C000880D0020E46F0008900D0020000000002C
:1037D00082B0019072B600BF00BF044A019BC2F8DC
:1037E0008430034B03221A70FEE700BF900D0020C7
:1037F000800D00200000000000000000000000001C
:1038000008B500F04DFA00BF08BD00BF0000000081
:1038100082B00190044B5A6B019B1343024A5363DD
:1038200000BF02B0704700BF900D002000000000F4
:1038300082B001900091019A009B1344184602B097
:10384000704700BF00000000000000000000000002
:1038500082B001900091009A019BD31A184602B0E1
:10386000704700BF000000000000000000000000E2
:1038700082B00190019B1B68019A9A420CBF012300
:103880000023DBB2184602B0704700BF0000000002
:1038900082B001900091019B1B68009A9A420CBF74
:1038A00001230023DBB2184602B07047000000007D
:1038B00084B0039002910192029B019A9A60029B4C
:1038C000039A5A60029B5B681A68029B1A60029B0B
:1038D0001B68029A5A60039B029A1A6000BF04B0E8
:1038E000704700BF00000000000000000000000062
:1038F00084B0039002910192029B019A9A60029B0C
:10390000039A1A60029B1B685A68029B5A60029BCA
:103910005B68029A1A60039B029A5A6000BF04B067
:10392000704700BF00000000000000000000000021
:1039300000B587B0039002910192039B1B68059329
:1039400007E0059B9B68019AD31A0193059B1B68AE
:103950000593059B9B68019A9A428CBF0123002323
:10396000DBB2002BEDD1019A02990598FFF7C0FF59
:10397000059B9A68019BD21A059B9A60039B4FF0A6
:10398000FF329A6000BF07B05DF804FB0000000042
:1039900084B00190019B1B680393039B1A68019BF1
:1039A0001A60019B1B68019A5A60039B184604B079
:1039B000704700BF00000000000000000000000091
:1039C00082B00190019B5B68019A12681A60019BAA
:1039D0001B68019A52685A60019B184602B07047F2
:1039E00000B583B001900198FDF7EAFB00BF03B07A
:1039F0005DF804FB00000000000000000000000073
:103A000008B5FDF7EDFB00BF08BD00BF00000000DA
:103A100000B583B001900198FDF7EAFB00BF03B049
:103A20005DF804FB00000000000000000000000042
:103A300008B5FDF7BDFB0346184608BD00000000B1
:103A400082B020230193019B83F3118800BF00BF44
:103A500000BF00BF02B0704700000000000000007F
:103A600082B000230193019B83F3118800BF00BF44
:103A700000BF00BF02B0704700000000000000005F
:103A800008B5FFF7D5FF0346184608BD0000000043
:103A900000B585B00390029101920093039B019AB7
:103AA000DA60039B0299009A1846FFF701FF009B1A
:103AB000012B01D802230093039BDB680099184671
:103AC000FFF7B6FE03461846FFF78AFF00BF05B0B2
:103AD0005DF804FB00000000000000000000000092
:103AE00000B589B00390029101920093039B1846A0
:103AF000FFF7BEFE0346002B06D0009B019A0299F9
:103B00000398FFF7C5FF2DE0039BDB68019918467A
:103B1000FFF79EFE0590059A009B13440793079AB2
:103B2000059B9A4201D2009B0793039B1B689B68ED
:103B3000079A9A4210D2079B0693069B012B01D845
:103B400002230693039BDB6806991846FFF770FE75
:103B500003461846FFF75CFF039B0299079A184635
:103B6000FFF7E6FE09B05DF804FB00BF00000000AF
:103B700000B587B003900291019200930B4B05931F
:103B8000039B009A1A61039B019ADA60039B00224F
:103B90005A61FFF775FF0246029B03990598FFF7EC
:103BA0009FFF00BF07B05DF804FB00BFA00D002021
:103BB00010B586B00190364B0493049B019A1146D0
:103BC0001846FFF765FE034683F00103DBB2002BC6
:103BD00014D0019B1846FFF7F3FE019B1B68996800
:103BE000019B9A68019B1B680A449A60019B002212
:103BF0001A60049B4FF0FF329A6046E0049B18461F
:103C0000FFF7C6FE019B00221A60049B1846FFF7CF
:103C10002FFE0346002B02D0FFF7F2FE35E0049B97
:103C20001B689968019B9A68049B1B680A449A6008
:103C3000049BDC68FFF724FF034619462046FFF784
:103C400007FE0390049B1B689B68039A9A421BD251
:103C5000049B1B689A68039BD31A0593059B012B51
:103C600003D8039B0233059303E0059A039B134497
:103C70000593049BDB6805991846FFF7D9FD0346B9
:103C80001846FFF7C5FE00E000BF06B010BD00BF3C
:103C9000A00D002000000000000000000000000057
:103CA00010B588B0574B0593059B1B680493FFF72D
:103CB000E7FE0390059BDB6803991846FFF7C8FDF4
:103CC0000290049B9B68029A9A4266D3059BDA682D
:103CD000049B9B6819461046FFF7AAFD0190059BBF
:103CE000019ADA60049B1846FFF76AFE049B0022E3
:103CF0001A60059B1846FFF7BBFD0346002B01D059
:103D0000FFF77EFEFFF7ACFE049BDB68049A1269A6
:103D1000114604989847FFF793FE049B5B69002BBC
:103D200014BF01230023DBB2002BBDD0FFF7A8FE98
:103D3000039003990198FFF78BFD0290049B5B6948
:103D4000029A9A4205D90220FFF762FD00230693EA
:103D500004E0049B5A69029BD31A0693059B1846FC
:103D6000FFF786FD0346002B06D0069B039A0499B5
:103D70000598FFF78DFE42E0029A069B13440793D5
:103D8000079A029B9A4201D2069B0793059B0499CE
:103D9000079A1846FFF7CCFD86E700BF059B18463B
:103DA000FFF766FD0346002B28D1049B9A68029B0F
:103DB000D31A0793079B012B01D802230793079976
:103DC0000398FFF735FD00900098FFF721FE059B53
:103DD000DC68FFF755FE034619462046FFF738FD1D
:103DE0000446059BDB6800991846FFF731FD034642
:103DF0009C4204D90120FFF70BFD00E000BF08B092
:103E000010BD00BFA00D0020000000000000000059
:103E100082B00190019B5B68019A12681A60019B55
:103E20001B68019A52685A60019B184602B070479D
:103E300084B00190019B1B680393039B1A68019B4C
:103E40001A60019B1B68019A5A60039B184604B0D4
:103E5000704700BF000000000000000000000000EC
:103E600082B001900091019B1B680193019B9A68AD
:103E7000009B9B689A422CBF01230023DBB2002BDE
:103E8000F1D1009B019A1A60019B5A68009B5A600D
:103E9000009B5B68009A1A60019B009A5A60009B25
:103EA000184602B0704700BF00000000000000008C
:103EB00082B001900091019B1B680193019B9A685D
:103EC000009B9B689A428CBF01230023DBB2002B2E
:103ED000F1D1009B019A1A60019B5A68009B5A60BD
:103EE000009B5B68009A1A60019B009A5A60009BD5
:103EF000184602B0704700BF00000000000000003C
:103F000082B020230193019B83F3118800BF00BF7F
:103F100000BF00BF02B070470000000000000000BA
:103F200082B000230193019B83F3118800BF00BF7F
:103F300000BF00BF02B0704700000000000000009A
:103F400082B00190019B1B68002B14BF012300234A
:103F5000DBB2184602B0704700000000000000000D
:103F600082B00190019B9B685A1C019B9A6000BF24
:103F700002B07047000000000000000000000000D8
:103F800000B583B00190019B002283F82420019B9F
:103F90009B691A46019B19461046FFF761FF0346CD
:103FA000184603B05DF804FB0000000000000000AC
:103FB00000B583B00190019B002283F82420019B6F
:103FC0009B691A46019B19461046FFF771FF03468D
:103FD000184603B05DF804FB00000000000000007C
:103FE00000B585B001900091009B0393FFF788FF17
:103FF000039B93F82430072B24D801A252F823F016
:1040000021400008454000084540000827400008BE
:104010003B40000831400008454000083B40000894
:10402000FFF77EFF19E0039B9B6A00221A600AE0FB
:10403000039B9B6A1846FFF793FF039B1846FFF705
:10404000E7FE00E000BF039B4FF0FF329A62039847
:10405000FFF796FFFFF764FF00BF05B05DF804FBB4
:1040600000B583B001900198FFF78AFF0346184618
:1040700003B05DF804FB00BF00000000000000007A
:1040800000B587B003468DF807300F4B0493049BAF
:10409000DB680393039B9DF8072083F82420049B8F
:1040A0001846FFF7C5FE0590059B012283F82420E2
:1040B000049B059ADA6003990598FCF711F900BF93
:1040C00007B05DF804FB00BF900D00200000000069
:1040D00000B58BB0034600918DF80730154BDB68B7
:1040E0000993009BB3F1FF3F16D003A8099B124A26
:1040F0000099FFF73DFD9DF807301846FFF7C0FF18
:1041000003AB1846FFF71CFF0346002B09D003AB97
:104110001846FFF74DFD04E09DF807301846FFF7FD
:10412000AFFF099B9B6A00BF00BF18460BB05DF84C
:1041300004FB00BF900D0020E13F000800000000DC
:1041400000B585B001900091144B0293029BDB688F
:104150000393019B009A9A62019B9A68039B9B6858
:104160009A4294BF01230023DBB2002B03D00198B5
:10417000FFF706FF0EE00398FFF71AFF0390019B7D
:10418000012283F82420029B019ADA6003990198A6
:10419000FCF7A6F800BF05B05DF804FB900D002009
:1041A00084B00B4B0393039BDB680293039B1B6858
:1041B0009B680193029B9B680093019A009B9A4223
:1041C0008CBF01230023DBB2184604B0704700BF48
:1041D000900D002000000000000000000000000022
:1041E00000B585B00E4B0393039BDB680293039BE2
:1041F0001846FFF71DFE0190019B012283F8242041
:10420000039B019ADA600298FFF7D2FE02900299AE
:104210000198FCF765F800BF05B05DF804FB00BF2E
:10422000900D0020000000000000000000000000D1
:1042300082B00190019B00221A6000BF02B070475B
:1042400082B00190019B00221A6000BF02B070474B
:1042500082B00190019B019A1A60019B019A5A60F9
:1042600000BF02B0704700BF000000000000000067
:1042700082B00190019B019A1A60019B019A5A60D9
:10428000019B00229A6000BF02B07047000000004E
:1042900082B00190019B019A1A60019B019A5A60B9
:1042A000019B4FF0FF329A6000BF02B0704700BF21
:1042B00008B5FCF77DFF0346184608BD0000000066
:1042C00008B5FFF7F5FF0346184608BD00000000DB
:1042D00030B583B00190019B1846FFF7D9FF019BD1
:1042E0000022DA60FFF7ECFF034600221C46154669
:1042F000019BC3E9044500BF03B030BD00000000CE
:1043000000B583B00190019B1846FFF7A1FF00BFE5
:1043100003B05DF804FB00BF0000000000000000D7
:1043200082B0019000BFFDE7000000000000000027
:1043300000B58BB00190009100230993284A099B96
:104340009B001344019A5A60019B099A1A63019BCE
:10435000009A9A63019800F013FD019B1846FFF73D
:1043600087FF019B28331846FFF7CAFF019B3433B0
:104370001846FFF75DFF019B10331846FFF7A8FFB3
:10438000019B84331846FFF75BFF019B03F13C015F
:104390008023144A019800F003F90246019BDA6079
:1043A000019BDB68009A52681A62019BDB6801225C
:1043B00083F824200C4B0393009BDB680493009B41
:1043C0001B69059301230693084B07930023089369
:1043D00003AB184600F054F900BF0BB05DF804FBC6
:1043E000800D002008700008F86F000821430008C5
:1043F00082B00190019B019A1A6000BF02B0704721
:1044000082B00190019B1B68019A9A4214BF01235C
:104410000023DBB2184602B0704700BF0000000066
:1044200084B00190019B1B680393039B1A68019B56
:104430001A60039B184604B0704700BF00000000DC
:1044400082B00190019B019A1A60019B019A5A6007
:1044500000BF02B0704700BF000000000000000075
:1044600082B00190019B1B68019A9A4214BF0123FC
:104470000023DBB2184602B0704700BF0000000006
:1044800082B001900091009B019A1A60019B5A68CA
:10449000009B5A60009B5B68009A1A60019B009A1F
:1044A0005A6000BF02B0704700000000000000002A
:1044B00084B00190019B1B680393039B1A68019BC6
:1044C0001A60019B1B68019A5A60039B184604B04E
:1044D000704700BF00000000000000000000000066
:1044E00082B00190019B5B68019A12681A60019B7F
:1044F0001B68019A52685A60019B184602B07047C7
:1045000082B020230193019B83F3118800BF00BF79
:1045100000BF02B0704700BF0000000000000000B4
:1045200082B000230193019B83F3118800BF00BF79
:1045300000BF02B0704700BF000000000000000094
:10454000014BDB6818467047900D0020000000000A
:1045500000B583B0019001990820FFF7B9FD00BFB5
:1045600003B05DF804FB00BF000000000000000085
:1045700000B585B001900091019B1846FFF798FFA8
:104580000390039B009A9A620398FFF769FD00BFAE
:1045900005B05DF804FB00BF000000000000000053
:1045A00000B585B00390029101920093029B009A9E
:1045B0009A60029B022283F82420029B002283F847
:1045C0002520029B039A9A61029B009A1A64029B1F
:1045D0000022DA63029B00229A63029B012283F885
:1045E0002620029B019ADA61039B03F12802029BB9
:1045F000103319461046FFF743FF029B2C33184631
:10460000FFF7F6FE029B30331846FFF719FF029BB7
:10461000184605B05DF804FB000000000000000033
:1046200000B585B00190019B9B68483B0393019BBB
:104630005A68039B1A62039BA3F12402039BDA606E
:10464000019B1A69039BDB681A60019B5A69039BF3
:10465000DB685A60039BDB68074A1A62019B1A6891
:10466000019BDB6803990548FFF79AFF034600BFEB
:10467000184605B05DF804FBF1020008900D00201B
:1046800000B583B001900198FFF7CAFF03461846B2
:10469000FFF7E6FC0346184603B05DF804FB00BFD5
:1046A00000B587B00390029101920093FFF728FFB5
:1046B000029B483B039A13440593059B039A1A6295
:1046C000059BA3F12402059BDA60059BDB68009A39
:1046D0001A60059BDB68089A5A60059BDB680B4AE9
:1046E0001A62019B0A4A05990A48FFF759FF05908B
:1046F00000210598FFF724FDFFF712FF059B00BF7F
:1047000000BF184607B05DF804FB00BFF1020008C7
:1047100000700008900D0020000000000000000064
:1047200000B583B00190FFF7EBFE019800F008F8A8
:1047300000BF03B05DF804FB0000000000000000B3
:1047400000B585B00190FFF7FBFE0390039B019A33
:104750009A6208E0039B2C331846FFF761FE03467C
:104760001846FFF77DFC039B2C331846FFF748FEE5
:104770000346002BEED1039B93F82630002B0CBF91
:1047800001230023DBB2002B10D0039B93F82530CC
:1047900003F00303002B0CBF01230023DBB2002B2B
:1047A00004D0039B10331846FFF79AFE0F20FFF743
:1047B00067FC00BF05B05DF804FB00BF000000000F
:1047C00000B583B00190FFF79BFE0198FFF7C0FE94
:1047D000FFF7A6FE00BF03B05DF804FB0000000079
:1047E00000B585B00190FFF7ABFE0390019B039AE3
:1047F0001A60039B019A9A620320FFF741FCFFF7BE
:104800009FFE03469B6A184605B05DF804FB00BF97
:1048100000B585B001900091019B1B68002B0BD067
:10482000019B1B680393019B00221A60039B009A63
:104830009A620398FFF714FC00BF05B05DF804FB13
:1048400000B585B001900091FFF77AFE0390009BC0
:10485000002B0CBF01230023DBB2002B02D04FF052
:10486000FF3309E0019B03991846FFF709FE009901
:104870000420FFF72DFC0346184605B05DF804FB45
:1048800000B583B001900091019B1846FFF7E8FD49
:104890000346002B03D000990198FFF769FE00BF83
:1048A00003B05DF804FB00BF000000000000000042
:1048B000F0B484B0039002910192039BDB685A1C10
:1048C000039BDA60039B9B68029AD21A019BD21A5F
:1048D000039B9A60039BD3E9042303998968002012
:1048E0000C460546161943EB0507039BC3E904670D
:1048F000039B9A68039B5B689A4203D9039B9A685F
:10490000039B5A60039B9A68039B1B689A4203D2DD
:10491000039B9A68039B1A6000BF04B0F0BC704709
:1049200082B00190019B4FF0FF321A60019B002280
:104930005A60019B00229A60019B0022DA60019973
:104940004FF000024FF00003C1E9042300BF02B0A2
:10495000704700BF000000000000000000000000E1
:1049600082B00190034B5A68019B9A6000BF02B06D
:10497000704700BF001000E00000000000000000D1
:1049800000B583B00190064B5B68064A92681946F1
:104990000198FFF78DFF00BF03B05DF804FB00BF77
:1049A000001000E0800D002000000000000000006A
:1049B00082B00190019B019A1A60019B019A5A6092
:1049C00000BF02B0704700BF000000000000000000
:1049D00000B583B00190019B1846FFF7E9FF019BEA
:1049E00000229A6000BF03B05DF804FB00000000E5
:1049F00000B583B001900091019B9A6B009B1A4314
:104A0000019B9A63019B93F824300A2B06D1019BEA
:104A10009A6B019B9B6A1340002B0DD1019B93F86D
:104A200024300B2B0ED1019B9A6B019B9B6A1A4081
:104A3000019B9B6A9A4205D1019B00229A620198D0
:104A4000FFF70EFB00BF03B05DF804FB00000000A1
:104A500000B585B001900091019B1B68039319E09C
:104A6000039BDA68009B1A43039BDA60009B002BD0
:104A700005D0039B1A69009B1340002B07D0039BB2
:104A80005A68039B9B6819461046FFF7B1FF039BCA
:104A90001B680393039A019B9A42E1D100BF00BFB8
:104AA00005B05DF804FB00BF00000000000000003E
:104AB00082B020230193019B83F3118800BF00BFC4
:104AC00000BF02B0704700BF0000000000000000FF
:104AD00082B000230193019B83F3118800BF00BFC4
:104AE00000BF02B0704700BF0000000000000000DF
:104AF000034B044A1A60024B034A5A6000BF7047D6
:104B0000180F0020C01600200080012000000000C7
:104B100086B0039002910192104B5A68039B5B424E
:104B200013441A46029B5B4213400593019B5B4270
:104B3000059A13440493094B1B68049A9A4204D3C0
:104B4000064B5B68049A9A4201D9002303E0034AAA
:104B5000049B5360059B184606B07047180F002051
:104B600000B587B0039002910192FFF7A1FF019A6F
:104B700002990398FFF7CCFF0590FFF7A9FF059B6B
:104B8000184607B05DF804FB0000000000000000BC
:104B900008B5074B074A1A60054B00225A60044BC0
:104BA00000229A600448FFF713FF00BF08BD00BF52
:104BB000200F0020614B00082C0F00200000000097
:104BC00084B00390029101920093039B00221A602B
:104BD000039B029A5A60039B019A9A60039B009A76
:104BE000DA6000BF04B07047000000000000000061
:104BF00000B583B001900091002200990198FFF761
:104C000087FF0346184603B05DF804FB0000000070
:104C100000B585B0039002910192019B0422029994
:104C20000398FFF7CDFF00BF05B05DF804FB00BFA0
:104C300082B00190019B019A1A6000BF02B07047D8
:104C400008B51048FFF7C4FE0F48FFF7F1FF0F4A01
:104C500014210F48FFF7DCFF0E48FFF7E9FF0E486D
:104C6000FFF7E6FF094A1C210C48FFF7D1FF0C486B
:104C7000FFF7DEFF0B48FFF7DBFF0B48FFF7D8FF1E
:104C800000BF08BD3C0F00204C0F0020F14B000876
:104C9000500F0020600F0020640F0020680F0020DC
:104CA000780F00207C0F0020800F00200000000003
:104CB00084B00190019B03F0070303930B4BDB6867
:104CC0000293029A4FF6FF0313400293039B1A02CA
:104CD000029B134343F0BF6343F400330293034A40
:104CE000029BD36000BF04B0704700BF00ED00E03E
:104CF00082B0034600918DF807309DF90730002BF4
:104D00000ADB009BDAB20C499DF907301201D2B2DE
:104D10000B4483F800230BE0009BDAB207499DF8AF
:104D2000073003F00F03043B1201D2B20B441A7692
:104D300000BF02B0704700BF00E100E000ED00E0FE
:104D400084B0EFF309830093009B0393039B20330C
:104D50000393039B0193019B83F3098800BF002306
:104D60000293029B83F3118800BF00BF00BF00BF06
:104D700004B07047000000000000000000000000C8
:104D800000B585B0019020230393039B83F3118822
:104D900000BF62B600BF00BF0320FFF789FF0D4BC5
:104DA000DB680C4A43F08073D3600B4B1B680A4AE4
:104DB00043F00103136001216FF00400FFF798FF37
:104DC00002216FF00100FFF793FF00BF05B05DF80F
:104DD00004FB00BFF0ED00E0001000E00000000068
:104DE00000B587B020230393039B83F3118800BF92
:104DF00000BF00BF184B5B6803F40063002B20D09A
:104E0000EFF309830193019B0593059B203B0593D9
:104E1000059B0493049B4FF08072DA61059B02931B
:104E2000029B83F3098800BFFFF7BAF90346002B02
:104E300003D00A4A049B9A610BE0094A049B9A61D9
:104E400007E000230093009B83F3118800BF00BF9D
:104E500000BF07B05DF804FB00ED00E003030008AD
:104E60000603000800000000000000000000000031
:104E700088B00390029101920093029B0593009BDE
:104E8000002B02D1029B049301E0009B0493039B3F
:104E90000B330693059B019AB3FBF2F2019901FBD8
:104EA00002F29B1A0793079B30330793079B392B1A
:104EB00002DD079B07330793069B013B0693079B85
:104EC000DAB2069B1A70059A019BB2FBF3F30593C5
:104ED000049A019BB2FBF3F30493049B002BD9D1FA
:104EE000039B03F10B02069BD31A0793069A531CEC
:104EF0000693039B591C039112781A70079B013B80
:104F00000793079B002BF1D1039B184608B070470D
:104F100000B585B00390029101920023019A029995
:104F20000398FFF7A5FF0346184605B05DF804FB9C
:104F300000B591B003900291019200230993029B66
:104F40005A1C02921B788DF837309DF83730002BB1
:104F500001D1099B4DE29DF83730252B0BD0039BE7
:104F60001B68DB689DF83720114603989847099B1A
:104F7000013309933CE204AB0F9304AB0E9300237F
:104F80008DF82230029B1B782D2B05D1029B01331B
:104F9000029301238DF8223000238DF82130029BEB
:104FA0001B782B2B05D1029B0133029301238DF833
:104FB000213020238DF83630029B1B78302B05D111
:104FC000029B0133029330238DF83630029B1B780D
:104FD0002A2B0ED1019B1A1D01921B680A93029B7A
:104FE00001330293029B5A1C02921B788DF83730D2
:104FF00025E000230A93029B5A1C02921B788DF82D
:1050000037309DF83730002B01D1099BF1E19DF835
:1050100037302F2B13D99DF83730392B0FD89DF807
:105020003730303B8DF837300A9A13469B001344D3
:105030005B001A469DF8373013440A93DBE70023E0
:105040000B939DF837302E2B3ED1029B5A1C0292B7
:105050001B788DF837309DF83730002B01D1099B34
:10506000C7E19DF837302A2B26D1019B1A1D0192EA
:105070001B680B93029B5A1C02921B788DF83730E9
:1050800022E09DF83730303B8DF837300B9A1346CD
:105090009B0013445B001A469DF8373013440B9372
:1050A000029B5A1C02921B788DF837309DF83730DE
:1050B000002B01D1099B9CE19DF837302F2B03D9A0
:1050C0009DF83730392BDCD99DF837306C2B03D065
:1050D0009DF837304C2B0ED101238DF82330029BE5
:1050E0005A1C02921B788DF837309DF83730002B10
:1050F00015D1099B7DE19DF83730402B05D99DF8EE
:1051000037305A2B01D8012300E000238DF82330DB
:105110009DF8233003F001038DF8233000E000BF39
:105120009DF83730443B342B00F2ED8001A252F859
:1051300023F000BF6B520008075300080753000814
:1051400007530008075300086B5200080753000874
:1051500007530008075300080753000807530008C7
:10516000D1520008C1520008075300080753000835
:105170000753000807530008C952000807530008E6
:1051800007530008C15200080753000807530008DE
:105190000753000807530008075300080753000887
:1051A0000753000807530008075300080753000877
:1051B000095200086B520008075300080753000803
:1051C00007530008075300086B52000807530008F4
:1051D0000753000807530008075300080753000847
:1051E000D1520008C15200080753000807530008B5
:1051F0002352000807530008C9520008075300084B
:1052000007530008C152000820238DF83630019B57
:105210001A1D019219680F9B5A1C0F92CAB21A707C
:1052200079E020238DF83630019B1A1D01921B680E
:105230000E930E9B002B01D1704B0E930B9B002BFA
:1052400002D147F6FF730B930E9B0F9302E00F9B67
:1052500001330F930F9B1B78002B5BD00B9B013B03
:105260000B930B9B002BF2DA54E09DF82330002BBC
:1052700005D0019B1A1D01921B68079304E0019B56
:105280001A1D01921B680793079B002B08DA0F9BDE
:105290005A1C0F922D221A70079B5B42079308E05D
:1052A0009DF82130002B04D00F9B5A1C0F922B220B
:1052B0001A700A2207990F98FFF72AFE0F902AE02A
:1052C00010238DF8373006E00A238DF8373002E0DE
:1052D00008238DF837309DF82330002B05D0019B33
:1052E0001A1D01921B68079304E0019B1A1D01928D
:1052F0001B6807939DF837301A4607990F98FFF7F8
:1053000007FE0F9007E00F9B5A1C0F929DF8372065
:105310001A7000E000BF0F9A0E9BD31A0C930A9AE2
:105320000C9BD31A0A930A9B002B01DA00230A93E1
:105330009DF8223083F00103DBB2002B02D00A9BE0
:105340005B420A930A9B002B3ADA0E9B1B782D2BAB
:1053500003D00E9B1B782B2B13D19DF83630302BAE
:105360000FD1039B1B68DA680E9B591C0E911B78AA
:10537000194603989047099B013309930C9B013B05
:105380000C93039B1B68DB689DF83620114603983D
:105390009847099B013309930A9B01330A930A9B9F
:1053A000002BEED10CE0039B1B68DA680E9B591CA6
:1053B0000E911B78194603989047099B0133099376
:1053C0000C9B013B0C930C9B002BECDA0DE0039B38
:1053D0001B68DB689DF83620114603989847099BA7
:1053E000013309930A9B013B0A930A9B002BEED1E0
:1053F000A5E5184611B05DF804FB00BF2070000859
:105400000EB400B584B0019006AB0293029A0599E0
:105410000198FFF78DFD0390039B00BF184604B071
:105420005DF804EB03B070470000000000000000CE
:1054300082B003468DF807309DF807302F2B07D92F
:105440009DF80730392B03D89DF80730303B19E021
:105450009DF80730402B07D99DF80730462B03D81D
:105460009DF80730373B0DE09DF80730602B07D9DA
:105470009DF80730662B03D89DF80730573B01E0B5
:105480004FF0FF33184602B0704700BF0000000025
:1054900000B587B001900B468DF8033000238DF8DE
:1054A00017300198FBF74CF90346532B01D9002321
:1054B0006DE0019B5A1C01921B78242B0AD000231B
:1054C00065E0019B5A1C01921A789DF817305340F1
:1054D0008DF81730019B1B78002B0DD0019B1B789A
:1054E0002A2B09D0019B1B7801332B4A13441B78CC
:1054F00003F09703002BE4D1019B1B782A2B2AD1C0
:10550000019B01330193019B5A1C01921B781846A1
:10551000FFF78EFF0490049BB3F1FF3F01D10023FE
:1055200035E0019B5A1C01921B781846FFF780FF5B
:105530000390039BB3F1FF3F01D1002327E0049BBD
:105540001B01039A134302939DF81730029A9A4263
:1055500007D000231BE09DF80330002B01D000236F
:1055600015E0019B1B78002B0FD00C490198FAF72E
:105570006BFF0346002B08D009490198FAF764FF36
:105580000346002B01D0002301E0012300BF184691
:1055900007B05DF804FB00BF08760008B875000886
:1055A0004070000800000000000000000000000043
:1055B00082B003468DF807309DF8073001330C4A5E
:1055C00013441B7803F09703002B09D09DF8073094
:1055D0002C2B05D09DF807302A2B01D0012300E0A9
:1055E000002303F00103DBB2184602B0704700BF8E
:1055F0000876000800000000000000000000000025
:105600000EB400B5A6B0019000238DF897300023AA
:105610008DF8963028AB0B93019B249341E3279B95
:105620005A1C27921B788DF843309DF843303B2B52
:1056300003D101238DF8963033E3249B002B07D14F
:105640009DF8963083F00103DBB2002B40F03283EB
:105650009DF84330443B302B00F22E8301A252F8D8
:1056600023F000BF2F5A0008B95C0008B95C00089D
:10567000B95C0008B95C0008B95C0008B95C0008B6
:10568000B95C0008B95C0008B95C0008B95C0008A6
:10569000B95C0008B95C0008B95C0008B95C000896
:1056A000B95C0008175B0008B95C0008B95C000829
:1056B000B95C0008B95C0008B95C0008B95C000876
:1056C000B95C0008B95C0008B95C0008B95C000866
:1056D000715C0008B95C0008B95C0008B95C00089E
:1056E000295700085D570008B95C0008F357000807
:1056F000B95C0008B95C000857590008B95C00089B
:10570000B95C0008B95C0008B95C0008B95C000825
:10571000B95C0008B95C0008B95C0008B95C000815
:105720008F590008C959000800238DF88F30249B39
:10573000002B0BD0249B1B781846FFF739FF03463C
:10574000002B03D0249B1B788DF88F300B9B1A1DE8
:105750000B921B689DF88F201A708AE20023229317
:10576000249B002B3DD0249B1B781846FFF720FF7D
:105770000346002B35D0249B1B78453B122B00F2AF
:105780009D8201A252F823F0D5570008BD5C0008A5
:10579000BD5C0008BD5C0008BD5C0008BD5C000885
:1057A000BD5C0008BD5C0008BD5C0008D557000862
:1057B000BD5C0008BD5C0008BD5C0008BD5C000865
:1057C000DB570008BD5C0008BD5C0008BD5C00083C
:1057D000DB5700080123229304E04FF0FF332293AC
:1057E00000E000BF0B9B1A1D0B921B68229A1A60E7
:1057F0003FE2002321934FF0FF33209300231F93B8
:10580000249B002B7DD074E0249B1B782B2B09D18B
:10581000219B002B06D1209BB3F1FF3F02D1012336
:10582000219363E0249B1B782D2B0AD1219B002B15
:1058300007D1209BB3F1FF3F03D14FF0FF332193FA
:1058400054E0249B1B780133874A13441B7803F0F0
:105850000403002B2ED0249B1B78303B0E93209BFF
:10586000B3F1FF3F01D1002320930E9A6FF0004364
:105870009B1A7E4A82FB03129210DB17D31A209ADE
:105880009A4204DD1F9B002B00F01A8239E0209A17
:1058900013469B0013445B001A460E9B134420934F
:1058A0001F9B002B22D01F9A13469B0013445B00C2
:1058B0001F931BE0249B1B782E2B05D11F9B002BD5
:1058C00002D101231F9311E0249B1B78202B40F071
:1058D000F981219B002B40F0F781209BB3F1FF3F22
:1058E00040F0F2811F9B002B40F0EE81249B01339E
:1058F0002493249B1B781846FFF75AFE0346002B7F
:1059000082D1219B002B02D11F9B002B04D0209B16
:10591000B3F1FF3F00F0DA81209BB3F1FF3F04D1E8
:105920000023209300231F9304E01F9B002B01D131
:1059300001231F93219B002B04D0209B219A02FB63
:1059400003F320930B9B1A1D0B921B68209A1A607D
:105950001F9A5A608DE100231E93249B002B0FD0C9
:1059600004AB0A221946249801F080F91E90049B8A
:105970001B781846FFF71CFE0346002B40F0A88159
:105980000B9B1A1D0B921B681E9A1A6071E10B9BF0
:105990001A1D0B921B681D93249B002B10D007E04F
:1059A000249A531C24931D9B591C1D9112781A7024
:1059B000249B1B781846FFF7FBFD0346002BEFD115
:1059C0001D9B00221A7054E1249B002B00F0828161
:1059D000249B1B78242B40F07F8100231C9312E032
:1059E0001C9B01331A46249B13441B781846FFF76F
:1059F000DFFD034683F00103DBB2002B40F06E8134
:105A00001C9B01331C931C9B042BE9DD0B9B1A1D73
:105A10000B921B680F93249B0133052219460F98A4
:105A2000FAF774FC0F9B053300221A7021E10B9BDF
:105A30001A1D0B921B680C934FF0FF331B934FF012
:105A4000FF331A934FF0FF331993249B002B58D048
:105A5000249B1B781846FFF7ABFD0346002B50D064
:105A60000023189314E000BF087600086766666696
:105A7000189B249A13441B7801339F4A13441B78C4
:105A800003F00403002B00F02B81189B01331893C3
:105A9000189B052BECDD249B1B788DF81C30249B78
:105AA0005B788DF81D3000238DF81E30249B9B7889
:105AB0008DF81830249BDB788DF8193000238DF891
:105AC0001A30249B1B798DF81430249B5B798DF858
:105AD000153000238DF8163007AB0A220021184636
:105AE00001F0C4F81B9006AB0A220021184601F011
:105AF000BDF81A9005AB0A220021184601F0B6F84D
