:020000040800F2
:1000000000040020D9020008DB020008DB0200081F
:10001000DB020008DB020008DB020008DB0200084C
:10002000DB020008DB020008DB020008B1800008E8
:10003000DB020008DB020008DB020008DB0200082C
:10004000DB020008DB020008DB020008DB0200081C
:10005000DB020008DB020008DB020008DB0200080C
:10006000DB020008DB020008DB020008F1380008B0
:100070003139000881390008D1390008213A0008D7
:10008000613A0008B13A0008DB020008DB02000810
:10009000DB020008DB020008DB020008DB020008CC
:1000A000DB020008DB020008DB020008DB020008BC
:1000B000C1350008DB020008DB020008014A000825
:1000C000214A0008DB020008DB020008DB0200080E
:1000D000DB020008D134000801350008DB0200080B
:1000E000DB020008DB020008DB020008DB0200087C
:1000F000DB020008DB020008DB020008013B00080D
:10010000DB020008DB020008DB020008DB0200085B
:10011000DB020008DB020008DB020008DB0200084B
:10012000513B0008913B0008E13B0008313C0008CE
:10013000813C0008DB020008DB020008DB0200084B
:10014000DB020008DB020008DB020008DB0200081B
:10015000C13C0008113D0008613D0008DB020008B9
:10016000DB020008DB020008DB020008DB020008FB
:10017000DB020008DB020008DB020008DB020008EB
:10018000DB020008DB020008DB020008DB020008DB
:10019000DB020008DB020008DB020008DB020008CB
:1001A000DB020008DB020008DB020008DB020008BB
:1001B000DB020008DB020008DB020008DB020008AB
:1001C000DB020008DB020008DB020008DB0200089B
:1001D000DB020008DB020008DB020008DB0200088B
:1002000072B6274880F30888264880F30988264874
:100210004EF60851CEF200010860022080F31488E7
:10022000BFF36F8F01F05CFA06F01AF84FF055300B
:100230001E491B4A91423CBF41F8040BFAE71C4996
:10024000184A91423CBF41F8040BFAE719491A4A8F
:100250001A4B9A423EBF51F8040B42F8040BF8E7E0
:1002600000201749174A91423CBF41F8040BFAE7B6
:1002700001F04EFA01F03CFA134C144DAC4203DA93
:1002800054F8041B8847F9E70CF0A2FB104C114D01
:10029000AC4203DA54F8041B8847F9E701F030BA9E
:1002A00000040020000800200000000800000020DA
:1002B0000004002014F6000800080020680C00204C
:1002C000680C0020FC290020E0010008E001000883
:1002D000E0010008E001000892E700F000F8FEE706
:1002E0002DE9F04FC1F80CD0C3689D46BDE8F08FF2
:1002F000002383F311882846A047002007F098F8D0
:10030000FEE706F0F5FD00DFFEE7000081F00041AA
:1003100002E000BF83F0004330B54FEA41044FEAEA
:10032000430594EA050F08BF90EA020F1FBF54EA85
:10033000000C55EA020C7FEA645C7FEA655C00F021
:10034000E2804FEA5454D4EB5555B8BF6D420CDDF2
:100350002C4480EA020281EA030382EA000083EA75
:10036000010180EA020281EA0303362D88BF30BD15
:1003700011F0004F4FEA01314FF4801C4CEA11316B
:1003800002D0404261EB410113F0004F4FEA0333CA
:100390004CEA133302D0524263EB430394EA050F55
:1003A00000F0A780A4F10104D5F1200E0DDB02FAC4
:1003B0000EFC22FA05F2801841F1000103FA0EF258
:1003C000801843FA05F359410EE0A5F120050EF11E
:1003D000200E012A03FA0EFC28BF4CF0020C43FA4F
:1003E00005F3C01851EBE37101F0004507D54FF05C
:1003F000000EDCF1000C7EEB00006EEB0101B1F5AC
:10040000801F1BD3B1F5001F0CD349085FEA3000F1
:100410004FEA3C0C04F101044FEA445212F5800FFC
:1004200080F09A80BCF1004F08BF5FEA500C50F199
:10043000000041EB045141EA050130BD5FEA4C0C7C
:10044000404141EB0101013C28BFB1F5801FE9D2D9
:1004500091F0000F04BF01460020B1FA81F308BFFC
:100460002033A3F10B03B3F120020CDA0C3208DDC8
:1004700002F1140CC2F10C0201FA0CF021FA02F1A3
:100480000CE002F11402D8BFC2F1200C01FA02F113
:1004900020FA0CFCDCBF41EA0C019040E41AA2BF38
:1004A00001EB0451294330BD6FEA04041F3C1CDA00
:1004B0000C340EDC04F11404C4F1200220FA04F020
:1004C00001FA02F340EA030021FA04F345EA0301CA
:1004D00030BDC4F10C04C4F1200220FA02F001FA8C
:1004E00004F340EA0300294630BD21FA04F029460E
:1004F00030BD94F0000F83F4801306BF81F48011A7
:100500000134013D4EE77FEA645C18BF7FEA655C19
:1005100029D094EA050F08BF90EA020F05D054EAEB
:10052000000C04BF1946104630BD91EA030F1EBFF0
:100530000021002030BD5FEA545C05D140004941F4
:1005400028BF41F0004130BD14F580043CBF01F5E7
:10055000801130BD01F0004545F0FE4141F47001CD
:100560004FF0000030BD7FEA645C1ABF19461046A8
:100570007FEA655C1CBF0B46024650EA013406BFA9
:1005800052EA033591EA030F41F4002130BD00BF68
:1005900090F0000F04BF0021704730B54FF4806425
:1005A00004F132044FF000054FF0000150E700BFA6
:1005B00090F0000F04BF0021704730B54FF4806405
:1005C00004F1320410F0004548BF40424FF00001F2
:1005D0003EE700BF42004FEAE2014FEA31014FEA35
:1005E00002701FBF12F07F4393F07F4F81F0605184
:1005F000704732F07F4208BF704793F07F4F04BFCF
:1006000041F40021704730B54FF4607401F00045AB
:1006100021F000411CE700BF50EA010208BF70470B
:1006200030B54FF000050AE050EA010208BF7047FC
:1006300030B511F0004502D5404261EB41014FF465
:10064000806404F132045FEA915C3FF4D8AE4FF06D
:1006500003025FEADC0C18BF03325FEADC0C18BF50
:10066000033202EBDC02C2F1200300FA03FC20FAA1
:1006700002F001FA03FE40EA0E0021FA02F11444EE
:10068000BDE600BF70B54FF0FF0C4CF4E06C1CEA07
:1006900011541DBF1CEA135594EA0C0F95EA0C0F78
:1006A00000F0DEF82C4481EA030621EA4C5123EAEB
:1006B0004C5350EA013518BF52EA033541F480111A
:1006C00043F4801338D0A0FB02CE4FF00005E1FBCD
:1006D00002E506F00042E0FB03E54FF00006E1FB17
:1006E00003569CF0000F18BF4EF0010EA4F1FF045A
:1006F000B6F5007F64F5407404D25FEA4E0E6D419A
:1007000046EB060642EAC62141EA55514FEAC520AA
:1007100040EA5E504FEACE2EB4F1FD0C88BFBCF526
:10072000E06F1ED8BEF1004F08BF5FEA500E50F1D7
:10073000000041EB045170BD06F0004646EA01019D
:1007400040EA020081EA0301B4EB5C04C2BFD4EBCF
:100750000C0541EA045170BD41F480114FF0000EC8
:10076000013C00F3AB8014F1360FDEBF002001F036
:10077000004170BDC4F10004203C35DA0C341BDCB0
:1007800004F11404C4F1200500FA05F320FA04F082
:1007900001FA05F240EA020001F0004221F00041B6
:1007A00010EBD37021FA04F642EB06015EEA430E29
:1007B00008BF20EAD37070BDC4F10C04C4F1200559
:1007C00000FA04F320FA05F001FA04F240EA02000C
:1007D00001F0004110EBD37041F100015EEA430EDD
:1007E00008BF20EAD37070BDC4F1200500FA05F2FD
:1007F0004EEA020E20FA04F301FA05F243EA02037C
:1008000021FA04F001F0004121FA04F220EA02008A
:1008100000EBD3705EEA430E08BF20EAD37070BDD0
:1008200094F0000F0FD101F00046400041EB0101B0
:1008300011F4801F08BF013CF7D041EA060195F092
:10084000000F18BF704703F00046520043EB03034C
:1008500013F4801F08BF013DF7D043EA0603704739
:1008600094EA0C0F0CEA135518BF95EA0C0F0CD044
:1008700050EA410618BF52EA4306D1D181EA03018A
:1008800001F000414FF0000070BD50EA410606BF84
:100890001046194652EA430619D094EA0C0F02D1C9
:1008A00050EA013613D195EA0C0F05D152EA03360E
:1008B0001CBF104619460AD181EA030101F000412C
:1008C00041F0FE4141F470014FF0000070BD41F075
:1008D000FE4141F4780170BD70B54FF0FF0C4CF44F
:1008E000E06C1CEA11541DBF1CEA135594EA0C0F6E
:1008F00095EA0C0F00F0A7F8A4EB050481EA030EBB
:1009000052EA03354FEA013100F088804FEA0333A1
:100910004FF0805545EA131343EA12634FEA02226F
:1009200045EA111545EA10654FEA00260EF0004130
:100930009D4208BF964244F1FD0404F5407402D282
:100940005B084FEA3202B61A65EB03055B084FEA13
:1009500032024FF480104FF4002CB6EB020E75EB10
:10096000030E22BFB61A754640EA0C005B084FEA38
:100970003202B6EB020E75EB030E22BFB61A7546B5
:1009800040EA5C005B084FEA3202B6EB020E75EB00
:10099000030E22BFB61A754640EA9C005B084FEA78
:1009A0003202B6EB020E75EB030E22BFB61A754685
:1009B00040EADC0055EA060E18D04FEA051545EA74
:1009C00016754FEA06164FEAC30343EA52734FEA1D
:1009D000C2025FEA1C1CC0D111F4801F0BD141EA96
:1009E00000014FF000004FF0004CB6E711F4801FFB
:1009F00004BF01430020B4F1FD0C88BFBCF5E06FDB
:100A00003FF6AFAEB5EB030C04BFB6EB020C5FEAEA
:100A1000500C50F1000041EB045170BD0EF0004E3F
:100A20004EEA113114EB5C04C2BFD4EB0C0541EA71
:100A3000045170BD41F480114FF0000E013C90E66E
:100A400045EA060E8DE60CEA135594EA0C0F08BF32
:100A500095EA0C0F3FF43BAF94EA0C0F0AD150EA31
:100A600001347FF434AF95EA0C0F7FF425AF1046C4
:100A700019462CE795EA0C0F06D152EA03353FF4EC
:100A8000FDAE1046194622E750EA410618BF52EA69
:100A900043067FF4C5AE50EA41047FF40DAF52EA3D
:100AA00043057FF4EBAE12E780F0004002E000BFA8
:100AB00081F0004142001FBF5FEA410392EA030F49
:100AC0007FEA226C7FEA236C6AD04FEA1262D2EB93
:100AD0001363C1BFD218414048404140B8BF5B4298
:100AE000192B88BF704710F0004F40F4000020F031
:100AF0007F4018BF404211F0004F41F4000121F047
:100B00007F4118BF494292EA030F3FD0A2F1010290
:100B100041FA03FC10EB0C00C3F1200301FA03F1CE
:100B200000F0004302D5494260EB4000B0F5000FF1
:100B300013D3B0F1807F06D340084FEA310102F1B0
:100B40000102FE2A51D2B1F1004F40EBC25008BF62
:100B500020F0010040EA03007047490040EB00002C
:100B6000013A28BFB0F5000FEDD2B0FA80FCACF12D
:100B7000080CB2EB0C0200FA0CF0AABF00EBC2505A
:100B800052421843BCBFD0401843704792F0000F48
:100B900081F4000106BF80F400000132013BB5E79B
:100BA0004FEA41037FEA226C18BF7FEA236C21D011
:100BB00092EA030F04D092F0000F08BF0846704776
:100BC00090EA010F1CBF0020704712F07F4F04D144
:100BD000400028BF40F00040704712F100723CBF57
:100BE00000F50000704700F0004343F0FE4040F481
:100BF000000070477FEA226216BF08467FEA23633F
:100C00000146420206BF5FEA412390EA010F40F429
:100C1000800070474FF0000304E000BF10F0004375
:100C200048BF40425FEA000C08BF704743F096435C
:100C300001464FF000001CE050EA010208BF704777
:100C40004FF000030AE000BF50EA010208BF7047FE
:100C500011F0004302D5404261EB41015FEA010C13
:100C600002BF84460146002043F0B64308BFA3F10B
:100C70008053A3F50003BCFA8CF2083AA3EBC253ED
:100C800010DB01FA02FC634400FA02FCC2F120020C
:100C9000BCF1004F20FA02F243EB020008BF20F043
:100CA0000100704702F1200201FA02FCC2F12002A9
:100CB00050EA4C0021FA02F243EB020008BF20EA9E
:100CC000DC7070474FF0FF0C1CEAD0521EBF1CEACC
:100CD000D15392EA0C0F93EA0C0F6FD01A4480EABA
:100CE000010C400218BF5FEA41211ED04FF00063A3
:100CF00043EA501043EA5111A0FB01310CF00040CF
:100D0000B1F5000F3EBF490041EAD3715B0040EAF4
:100D1000010062F17F02FD2A1DD8B3F1004F40EBC4
:100D2000C25008BF20F00100704790F0000F0CF097
:100D3000004C08BF49024CEA502040EA51207F3A5B
:100D4000C2BFD2F1FF0340EAC250704740F4000036
:100D50004FF00003013A5DDC12F1190FDCBF00F027
:100D600000407047C2F10002410021FA02F1C2F1D5
:100D7000200200FA02FC5FEA310040F1000053EA71
:100D80004C0308BF20EADC70704792F0000F00F0BF
:100D9000004C02BF400010F4000F013AF9D040EAC5
:100DA0000C0093F0000F01F0004C02BF490011F459
:100DB000000F013BF9D041EA0C018FE70CEAD15357
:100DC00092EA0C0F18BF93EA0C0F0AD030F0004CD7
:100DD00018BF31F0004CD8D180EA010000F000408B
:100DE000704790F0000F17BF90F0004F084691F049
:100DF000000F91F0004F14D092EA0C0F01D1420283
:100E00000FD193EA0C0F03D14B0218BF084608D14B
:100E100080EA010000F0004040F0FE4040F4000095
:100E2000704740F0FE4040F4400070474FF0FF0C28
:100E30001CEAD0521EBF1CEAD15392EA0C0F93EA6F
:100E40000C0F69D0A2EB030280EA010C49024FEAC1
:100E5000402037D04FF0805343EA111143EA10137A
:100E60000CF000408B4238BF5B0042F17D024FF432
:100E7000000C8B4224BF5B1A40EA0C00B3EB510F0D
:100E800024BFA3EB510340EA5C00B3EB910F24BFF6
:100E9000A3EB910340EA9C00B3EBD10F24BFA3EB7B
:100EA000D10340EADC001B0118BF5FEA1C1CE0D143
:100EB000FD2A3FF650AF8B4240EBC25008BF20F0F6
:100EC000010070470CF0004C4CEA50207F32C2BF4A
:100ED000D2F1FF0340EAC250704740F400004FF0E7
:100EE0000003013A37E792F0000F00F0004C02BF18
:100EF000400010F4000F013AF9D040EA0C0093F0E2
:100F0000000F01F0004C02BF490011F4000F013B3B
:100F1000F9D041EA0C0195E70CEAD15392EA0C0FA3
:100F200008D142027FF47DAF93EA0C0F7FF470AFDB
:100F3000084676E793EA0C0F04D14B023FF44CAF1E
:100F400008466EE730F0004C18BF31F0004CCAD1B3
:100F500030F000427FF45CAF31F000437FF43CAFEF
:100F60005FE700BF4FF0FF3C06E000BF4FF0010C11
:100F700002E000BF4FF0010C4DF804CD4FEA4002F3
:100F80004FEA41037FEA226C18BF7FEA236C11D03D
:100F900001B052EA530C18BF90EA010F58BFB2EBF0
:100FA000030088BFC81738BF6FEAE17018BF40F070
:100FB000010070477FEA226C02D15FEA402C05D124
:100FC0007FEA236CE4D15FEA412CE1D05DF8040BA9
:100FD000704700BF844608466146FFE70FB5FFF73C
:100FE000C9FF002848BF10F1000F0FBD4DF808EDF4
:100FF000FFF7F4FF0CBF012000205DF808FB00BFE5
:101000004DF808EDFFF7EAFF34BF012000205DF83E
:1010100008FB00BF4DF808EDFFF7E0FF94BF01208B
:1010200000205DF808FB00BF4DF808EDFFF7D2FF88
:1010300094BF012000205DF808FB00BF4DF808EDCB
:10104000FFF7C8FF34BF012000205DF808FB00BF98
:101050004FEA40024FEA41037FEA226C02D15FEA85
:10106000402C08D17FEA236C02D15FEA412C02D1E7
:101070004FF0000070474FF0010070474FEA400208
:10108000B2F1FE4F0FD34FF09E03B3EB12620DD9B6
:101090004FEA002343F0004310F0004F23FA02F020
:1010A00018BF404270474FF00000704712F1610FC7
:1010B00001D1420205D110F0004008BF6FF000409E
:1010C00070474FF0000070474FEA410212F50012DE
:1010D00015D211D56FF47873B3EB625212D94FEA7F
:1010E000C12343F0004343EA505311F0004F23FA69
:1010F00002F018BF404270474FF00000704750EABE
:10110000013005D111F0004008BF6FF0004070477A
:101110004FF00000704700BF4FEA4102B2F1E043D8
:1011200024BFB3F5001CDCF1FE5C0DD901F0004CCE
:101130004FEAC0024CEA5070B2F1004F40EB83001E
:1011400008BF20F00100704711F0804F21D113F14A
:101150003872BCBF01F00040704741F480114FEA83
:101160005252C2F11802C2F1200C10FA0CF320FA0C
:1011700002F018BF40F001004FEAC1234FEAD32329
:1011800003FA0CFC40EA0C0023FA02F34FEA430393
:10119000CCE77FEA625307D150EA01331EBF4FF01C
:1011A000FE4040F44000704701F0004040F0FE4037
:1011B00040F40000704700BF844641EA000313F08A
:1011C00003036DD1403A41D351F8043B40F8043B4E
:1011D00051F8043B40F8043B51F8043B40F8043B11
:1011E00051F8043B40F8043B51F8043B40F8043B01
:1011F00051F8043B40F8043B51F8043B40F8043BF1
:1012000051F8043B40F8043B51F8043B40F8043BE0
:1012100051F8043B40F8043B51F8043B40F8043BD0
:1012200051F8043B40F8043B51F8043B40F8043BC0
:1012300051F8043B40F8043B51F8043B40F8043BB0
:1012400051F8043B40F8043B403ABDD2303211D350
:1012500051F8043B40F8043B51F8043B40F8043B90
:1012600051F8043B40F8043B51F8043B40F8043B80
:10127000103AEDD20C3205D351F8043B40F8043B50
:10128000043AF9D2043208D0D2071CBF11F8013B4E
:1012900000F8013B01D30B8803806046704700BF14
:1012A000082A13D38B078DD010F003038AD0C3F123
:1012B0000403D21ADB071CBF11F8013B00F8013B05
:1012C00080D331F8023B20F8023B7BE7043AD9D3C4
:1012D000013A11F8013B00F8013BF9D20B78037099
:1012E0004B7843708B788370604670470000000035
:1012F00000000000000000000000000000000000EE
:10130000A2EB0300704700BF02780B78012A28BFC8
:101310009A42F5D16DE9044540EA0104CDE902673E
:101320006FF0000C4FEA447212B380EA010414F02B
:10133000070F6AD100F0070420F0070004F003054E
:1013400021F007014FEAC505F0E8042314F0040F6B
:10135000F1E804670CFA05F462EA040266EA04069E
:101360000AD063EA0403624667EA0407664603E0BC
:10137000F0E80423F1E8046782FA4CF582EA0604F7
:10138000A4FA8CF46CBB83FA4CF583EA0705A5FA42
:101390008CF595B950E9022351E9026782FA4CF5C0
:1013A00082EA0604A4FA8CF483FA4CF583EA070572
:1013B000A5FA8CF52543DBD09CB92DBAB5FA85F496
:1013C00024F0070427FA04F1DDE9026723FA04F3A5
:1013D00003F0FF0001F0FF01FDE80445A0EB010070
:1013E000704724BAB4FA84F424F0070426FA04F10E
:1013F000DDE9026722FA04F202F0FF0001F0FF01CA
:10140000FDE80445A0EB0100704714F0030F3CD148
:1014100010F0030428D150F8082B51F8083B82FA49
:101420004CF582EA0305A5FA8CF55DB950F8042C59
:1014300051F8043C82FA4CF582EA0305A5FA8CF5D2
:10144000002DE8D02DBAB5FA85F424F0070423FA6C
:1014500004F122FA04F202F0FF0001F0FF01FDE8BE
:101460000445A0EB010070474FEAC40420F00300DC
:1014700050F8082B21F0030151F8083B0CFA04F452
:1014800062EA040263EA0403C9E710F003041AD015
:10149000A1EB040120F00300E40750F8042B06D070
:1014A0000FD28B785FFAA2F4E41A06D12BB1CB7875
:1014B0005FFAB2F4E41A00D11BB920465DF8104B74
:1014C000704701F1040150F8042BCC0721F003010F
:1014D00051F8043B48D824D222F07F4482FA4CF5DC
:1014E00094EA1325A5FA8CF50AD165B951F8043BA5
:1014F00084EA0204B4EB036F0ED150F8042BEBE73F
:101500004FEA132355E035F07F454DD10878FDE8CB
:101510000445C0F1000070474FEA126203F0FF0378
:1015200047E002EA1C4482FA4CF594EA1345A5FA16
:101530008CF50AD165B951F8043B84EA0204B4EB96
:10154000034F0CD150F8042BEBE74FEA134330E084
:1015500015EA1C4528D10B884FEA124229E04FEAD0
:10156000124203EA1C4324E002F0FF0482FA4CF525
:1015700094EA1365A5FA8CF50AD165B951F8043BD4
:1015800084EA0204B4EB032F09D150F8042BEBE7F3
:101590004FEA13630DE015F0FF0F05D10B684FEA1A
:1015A000122223F07F4304E04FF00000FDE80445E1
:1015B000704712BA1BBA82FA4CF482EA0304A4FA06
:1015C0008CF5B5FA85F402FA04F203FA04F34FEA53
:1015D0001260FDE80445A0EB1360704700000000B6
:1015E00000000000000000000000000000000000FB
:1015F00000000000000000000000000000000000EB
:1016000090F800F06DE9024520F007016FF0000C42
:1016100010F0070491F820F040F049804FF00004EA
:101620006FF00700D1E9002391F840F000F10800C5
:1016300082FA4CF2A4FA8CF283FA4CF3A2FA8CF3FD
:101640004BBBD1E9022382FA4CF200F10800A4FA64
:101650008CF283FA4CF3A2FA8CF3E3B9D1E90423B8
:1016600082FA4CF200F10800A4FA8CF283FA4CF3EF
:10167000A2FA8CF37BB9D1E9062301F1200182FAA9
:101680004CF200F10800A4FA8CF283FA4CF3A2FAAF
:101690008CF3002BC6D0002A04BF04301A4612BABD
:1016A000B2FA82F2FDE8024500EBD2007047D1E9C0
:1016B000002304F00305C4F100004FEAC50514F04F
:1016C000040F91F840F00CFA05F562EA05021CBF20
:1016D00063EA050362464FF00004A9E7000000003A
:1016E00000BF704700000000000000000000000084
:1016F00000BF704700000000000000000000000074
:10170000FEE700BF00000000000000000000000035
:1017100084B0174B0393039B1B680293039B5B6886
:10172000019309E0029B1A68019B1A60019B043334
:101730000193029B04330293039B9B68019A9A4294
:10174000F0D305E0019B00221A60019B0433019352
:10175000039BDB68019A9A42F4D3039B10330393F3
:10176000039B044A9342D6D300BF00BF04B0704726
:1017700088EA000808EB00080000000000000000F4
:1017800000BF7047000000000000000000000000E3
:1017900008B5FFF7F5FF01F0B3FF02F021FC00F000
:1017A0004FFC01F01DFB01F0EBFB01F061FD00F0CF
:1017B0001FFF04F06DFD00F03BF800BF08BD00BF47
:1017C0004FF080435B6A1846704700BF000000007E
:1017D00082B001904FF08042019B53634FF08043F1
:1017E00000221A614FF080430222DA6000BF02B08B
:1017F000704700BF00000000000000000000000073
:101800004FF080430022DA6000BF70470000000004
:1018100082B001904FF08042019B536300BF02B041
:10182000704700BF00000000000000000000000042
:1018300008B503F045FF00BF08BD00BF0000000071
:1018400008B5FFF7BDFF0346184608BD00000000BD
:1018500000B583B001900198FFF7BAFF00BF03B055
:101860005DF804FB00000000000000000000000024
:1018700008B5FFF7C5FF00BF08BD00BF00000000AE
:1018800000B583B001900198FFF7C2FF00BF03B01D
:101890005DF804FB000000000000000000000000F4
:1018A00082B00190019B019A1A60019B019A5A60D3
:1018B00000BF02B0704700BF000000000000000041
:1018C00082B030230193019B83F3118800BF00BFD6
:1018D00000BF02B0704700BF000000000000000021
:1018E00082B000230193019B83F3118800BF00BFE6
:1018F00000BF02B0704700BF000000000000000001
:1019000000B583B00190019B1846FFF7C9FF00BFE7
:1019100003B05DF804FB00BF000000000000000001
:1019200008B5FFF7CDFF00BF08BD00BF00000000F5
:1019300008B5FFF7D5FF00BF08BD00BF00000000DD
:1019400000B583B001900198FFF7DAFF00BF03B044
:101950005DF804FB00000000000000000000000033
:1019600000B583B0019000910099019805F018FE30
:101970000346184603B05DF804FB00BF00000000FA
:1019800000B583B0019000910099019805F028FE00
:1019900000BF03B05DF804FB000000000000000081
:1019A00000B587B0039002910192039B9B68019A56
:1019B0009A4202D9039B9B680193039B1A69039B7C
:1019C0009B69D31A0593019A059B9A420DD2039BFA
:1019D0009B69019A19460298FFF7EEFB039B9A69EF
:1019E000019B1A44039B9A612BE0019A059B9A4242
:1019F0001CD9039B9B69059A19460298FFF7DCFBEB
:101A0000029A059B13440293019A059BD31A0493EF
:101A1000039BDB68049A19460298FFF7CDFB039BF2
:101A2000DA68049B1A44039B9A610AE0039B9B6952
:101A3000019A19460298FFF7BFFB039BDA68039BE4
:101A40009A61039B9A68019BD21A039B9A60019B3F
:101A5000184607B05DF804FB00000000000000001D
:101A600000B587B0039002910192039B9B68019A95
:101A70009A4202D9039B9B680193039B1A69039BBB
:101A80005B69D31A0593019A059B9A420DD2039B79
:101A90005B69019A02991846FFF78EFB039B5A690E
:101AA000019B1A44039B5A612BE0019A059B9A42C1
:101AB0001CD9039B5B69059A02991846FFF77CFBCA
:101AC000029A059B13440293019A059BD31A04932F
:101AD000039BDB68049A02991846FFF76DFB039B92
:101AE000DA68049B1A44039B5A610AE0039B5B6912
:101AF000019A02991846FFF75FFB039BDA68039B84
:101B00005A61039B9A68019BD21A039B9A60019BBE
:101B1000184607B05DF804FB00000000000000005C
:101B200000B585B00390029101920093039B184683
:101B3000FFF706FF039B00229A60039B029ADA607C
:101B4000039B029A9A61039B029A5A61029A019B33
:101B50001A44039B1A61039B009ADA61039B069A5D
:101B60001A6200BF05B05DF804FB00BF0000000072
:101B700000B583B001900B468DF80330019B5A6984
:101B8000019B9B699A4205D1019B9B68002B01D068
:101B9000012300E0002303F00103DBB283F0010323
:101BA000DBB2002B1DD0019B9B685A1C019B9A60E5
:101BB000019B5B69591C019A51619DF803201A70C1
:101BC000019B5A69019B1B699A4203D3019BDA6806
:101BD000019B5A61019B00211846FFF7D1FE0023AB
:101BE00001E04FF0FF33184603B05DF804FB00BF7F
:101BF00000B585B001900091FFF792FE0CE0019BCB
:101C000000991846FFF7ACFE0290029B002B03DA06
:101C1000FFF78EFE029B26E0019B9B68002BEED017
:101C2000019B9B685A1E019B9A60019B9B69591CF2
:101C3000019A91611B788DF80F30019B9A69019B85
:101C40001B699A4203D3019BDA68019B9A61019B4D
:101C5000DB69002B03D0019BDB6901989847FFF7F4
:101C600067FE9DF80F30184605B05DF804FB00BF15
:101C700000B589B00390029101920093039BDB6948
:101C80000793019B0693FFF74BFE24E0019A02990C
:101C90000398FFF785FE0590059B002B09D1039B58
:101CA00000991846FFF75CFE0490049B002B12D0AD
:101CB00014E0079B002B02D0079B03989847FFF77F
:101CC00037FE019A059BD31A0193029A059B134490
:101CD0000293FFF725FE019B002BD7D1FFF728FECB
:101CE000069A019BD31A184609B05DF804FB00BFA1
:101CF00000B585B00390029101920093039B1846B2
:101D0000FFF71EFE039B019A9A60039B029ADA601A
:101D1000039B029A9A61039B029A5A61029A019B61
:101D20001A44039B1A61039B009ADA61039B069A8B
:101D30001A6200BF05B05DF804FB00BF00000000A0
:101D400000B587B003900B4601928DF80B30FFF77A
:101D5000E7FD0CE0039B01991846FFF701FE059093
:101D6000059B002B03DAFFF7E3FD059B25E0039BB2
:101D70009B68002BEED0039B9B685A1E039B9A60C6
:101D8000039B5B69591C039A51619DF80B201A70E3
:101D9000039B5A69039B1B699A4203D3039BDA682E
:101DA000039B5A61039BDB69002B03D0039BDB6918
:101DB00003989847FFF7BCFD0023184607B05DF86D
:101DC00004FB00BF00000000000000000000000055
:101DD00000B585B00190019B5A69019B9B699A42AD
:101DE00005D1019B9B68002B01D0012300E000235B
:101DF00003F00103DBB283F00103DBB2002B1ED042
:101E0000019B9B685A1C019B9A60019B9B69591C12
:101E1000019A91611B788DF80F30019B9A69019BA3
:101E20001B699A4203D3019BDA68019B9A61019B6B
:101E300000211846FFF7A4FD9DF80F3001E04FF098
:101E4000FF33184605B05DF804FB00BF000000003A
:101E500000B589B00390029101920093039BDB6966
:101E60000793019B0693FFF75BFD24E0019A02991B
:101E70000398FFF7F5FD0590059B002B09D1039B07
:101E800000991846FFF76CFD0490049B002B12D0BC
:101E900014E0079B002B02D0079B03989847FFF79D
:101EA00047FD019A059BD31A0193029A059B13449F
:101EB0000293FFF735FD019B002BD7D1FFF738FDCB
:101EC000069A019BD31A184609B05DF804FB00BFBF
:101ED00088B0039002910192019B5B090593019BDD
:101EE00003F01F030493029B5B090793029B03F01B
:101EF0001F030133012202FA03F3013B0693059A03
:101F0000079B9A4214D2059B9B00039A13441A68BC
:101F1000049BDA40079B9B0003990B441968069BBE
:101F20001940049BC3F1200301FA03F3134309E0B2
:101F3000059B9B00039A13441A68069B1A40049B56
:101F400022FA03F3184608B0704700BF00000000F3
:101F500000B587B001907E227F210198FFF7B8FF7E
:101F60000346002B04D0012B1ED000BF002323E02A
:101F70003E2249210198FFF7ABFF05902F22312126
:101F80000198FFF7A5FF0490502253210198FFF715
:101F90009FFF0390059B5A1C049B02339A40039BAE
:101FA000093B02FA03F307E0302245210198FFF7CD
:101FB0008FFF034601339B02184607B05DF804FB10
:101FC00082B030230193019B83F3118800BF00BFCF
:101FD00000BF02B0704700BF00000000000000001A
:101FE00082B000230193019B83F3118800BF00BFDF
:101FF00000BF02B0704700BF0000000000000000FA
:1020000008B5FFF7DDFF00BF08BD00BF00000000FE
:1020100008B5FFF7E5FF00BF08BD00BF00000000E6
:1020200000B583B00190019805F032FC00BF03B009
:102030005DF804FB0000000000000000000000004C
:1020400008B502F00DFD00BF08BD00BF0000000094
:1020500000B583B00190019B01221A70019B002200
:102060005A60019B0C331846FFF7DAFF00BF03B03C
:102070005DF804FB0000000000000000000000000C
:1020800000B585B001900091FFF7BAFF019B009A5F
:102090005A60019802F0FCFC00230393039B002B81
:1020A00003D1019B02221A7002E0019B01221A70E7
:1020B000FFF7AEFF039B184605B05DF804FB00BFB9
:1020C00000B58BB00790059204930B46ADF81A301B
:1020D000FFF796FF079B00229A60079B03221A7066
:1020E000BDF81A100E9B02930D9B01930C9B00935D
:1020F000049B059A079802F05BFD0990099BB3F1D8
:10210000FF3F03D1079B05221A7002E0079B0222C2
:102110001A70FFF77DFF099B18460BB05DF804FBB2
:1021200082B030230193019B83F3118800BF00BF6D
:1021300000BF02B0704700BF0000000000000000B8
:1021400082B000230193019B83F3118800BF00BF7D
:1021500000BF02B0704700BF000000000000000098
:1021600008B5FFF7DDFF00BF08BD00BF000000009D
:1021700008B5FFF7E5FF00BF08BD00BF0000000085
:1021800000B583B00190019805F0A2F900BF03B03B
:102190005DF804FB000000000000000000000000EB
:1021A00000B585B0039002910192009302990398C3
:1021B00000F04EFB0346002B11D001231BE00199D8
:1021C000039800F085FB0346002B01D0012312E0A9
:1021D000019B03F500730193009B013B0093009B5F
:1021E000002BECD1039800F0BBFB0346002B01D081
:1021F000012300E00023184605B05DF804FB00BF92
:1022000000B585B003900291019200930299039862
:1022100000F0CEFB0346002B11D001231BE00199F7
:10222000039800F005FC0346002B01D0012312E0C7
:10223000019B03F500730193009B013B0093009BFE
:10224000002BECD1039800F043FC0346002B01D097
:10225000012300E00023184605B05DF804FB00BF31
:1022600084B00346029101928DF80F300EE09DF884
:102270000F305A00029B591C02911B785340074AA9
:10228000D35C8DF80F30019B013B0193019B002B28
:10229000EDD19DF80F30184604B070472CEB0008C4
:1022A00000B585B00190002303930EE0019BDB6A2B
:1022B0001B6802AA0121184600F08AFF9DF8083029
:1022C000FF2B15D0039B01330393039B0F2BEDDDF5
:1022D000019BDB6A1B6802AA0121184600F078FF07
:1022E0009DF80830FF2B05D00A20FFF749FFEFE7E4
:1022F00000BF00E000BF05B05DF804FB0000000077
:1023000000B587B003900B4601928DF80B3003980F
:10231000FFF7C6FF9DF80B3043F04003DBB28DF8AA
:102320001030019B1B0EDBB28DF81130019B1B0C92
:10233000DBB28DF81230019B1B0ADBB28DF8133033
:10234000019BDBB28DF8143004AB05221946002046
:10235000FFF786FF03465B00DBB243F00103DBB20D
:102360008DF81530039BDB6A1B6804AA062118460A
:1023700000F00EFF00BF07B05DF804FB0000000096
:1023800000B585B001900023039311E0019BDB6A47
:102390001B6802AA0121184600F01AFF9DF80830B8
:1023A000FF2B02D09DF8083007E0039B0133039315
:1023B000039B082BEADDFF2300BF184605B05DF83C
:1023C00004FB00BF0000000000000000000000004F
:1023D00000B585B0019000910198FFF7D1FF034649
:1023E0008DF80F30019BDB6A1B68009A04211846A8
:1023F00000F0EEFE9DF80F30184605B05DF804FBC6
:1024000000B587B003900B4601928DF80B30039B0B
:10241000DB6A1B68184600F00BFE9DF80B30019A32
:1024200019460398FFF76CFF0398FFF7A9FF0346CF
:102430008DF81730039BDB6A1B68184600F010FE0E
:102440009DF81730184607B05DF804FB0000000047
:1024500000B587B00390019200930B468DF80B30C6
:10246000039BDB6A1B68184600F0E2FD9DF80B3009
:10247000019A19460398FFF743FF00990398FFF765
:10248000A7FF03468DF81730039BDB6A1B681846CD
:1024900000F0E6FD9DF81730184607B05DF804FB24
:1024A00000B58DB003900B4601928DF80B30039B65
:1024B000DB6A1B68184600F0BBFD9DF80B3000225C
:1024C00019460398FFF71CFF0398FFF759FF0346CF
:1024D000002B07D0039BDB6A1B68184600F0C0FD89
:1024E000012352E000230B9348E0039BDB6A1B6847
:1024F00005AA0121184600F06BFE9DF81430FE2B52
:1025000039D1039BDB6A1B6805AA1021184600F02D
:102510005FFE05AB0A93019B0C33099318E00A9BFD
:102520001B781A060A9B01331B781B041A430A9B6B
:1025300002331B781B0213430A9A033212781A43A0
:10254000099B1A600A9B04330A93099B043B099375
:10255000099A019B9A42E2D2039BDB6A1B68022123
:10256000184600F0F5FD039BDB6A1B68184600F077
:1025700077FD002309E00B9B01330B930B9B42F289
:102580000F729342B1D9012300BF18460DB05DF818
:1025900004FB00BF0000000000000000000000007D
:1025A00000B585B00190019BDB6A1B68184600F0FE
:1025B0003FFD019BDB6A1B6803AA0121184600F05E
:1025C00007FE9DF80C30FF2B03D00A20FFF7D8FD43
:1025D000EFE700BF019BDB6A1B68184600F040FD77
:1025E00000BF05B05DF804FB000000000000000023
:1025F00000BF704700000000000000000000000065
:1026000082B00190019B074A1A60019B01221A7156
:10261000019B0022DA62019B002283F8302000BF78
:1026200002B0704708EB0008000000000000000046
:1026300000B587B00190019B03221A71019B002213
:1026400083F83020019BDB6A1A68019BDB6A5B68B8
:102650001946104600F0B4FC019BDB6A1B68102190
:10266000184600F075FD0023059300220021019813
:10267000FFF7C6FE0346012B0AD0059B01330593E5
:10268000059B092B00F292806420FFF779FDECE7AF
:1026900000BF03AB4FF4D57208210198FFF7D8FEB5
:1026A0000346052B2DD000230593002237210198E6
:1026B000FFF7A6FE0346012B08D803AB4A4A29219F
:1026C0000198FFF7C5FE0346002B09D0059B013397
:1026D0000593059B632B6BD86420FFF751FDE4E75E
:1026E00000BF03AB00223A210198FFF7B1FE9DF82D
:1026F0000C3003F04003002B03D0019B012283F830
:10270000302000230593002201210198FFF778FE75
:1027100003468DF813309DF81330002B0DD09DF833
:102720001330012B46D1059B01330593059B632B89
:1027300042D86420FFF724FDE5E700BF019BDB6A78
:102740001A68019BDB6A9B681946104600F038FC4A
:102750004FF4007210210198FFF752FE0346002B40
:102760002CD1019B18331A4609210198FFF798FED6
:102770000346002B24D1019B18331846FFF7E8FBD2
:102780000246019B9A62019B9B6A002B1AD0019B17
:1027900008331A460A210198FFF782FE0346002BF0
:1027A00012D1019B05221A71002319E000BF0CE031
:1027B00000BF0AE000BF08E000BF06E000BF04E081
:1027C00000BF02E000BF00E000BF019BDB6A1B68A6
:1027D000184600F015FC019B02221A71012300BF6C
:1027E000184607B05DF804FBAA0100400000000095
:1027F00000B583B00190FFF7B3FC019B1B79022B5E
:1028000003D1FFF7B5FC00231BE0019B04221A71E2
:10281000FFF7AEFC019BDB6A1A68019BDB6A9B68D1
:102820001946104600F0CCFB0198FFF7B9FE019B5A
:10283000DB6A1B68184600F0E3FB019B02221A7159
:102840000023184603B05DF804FB00BF0000000041
:1028500000B583B001900091019B06221A71019B83
:10286000DB6A1A68019BDB6A9B681946104600F018
:10287000A7FB019BDB6A1B68184600F0D9FB019B94
:1028800093F83030002B05D0009A12210198FFF701
:1028900037FD06E0009B5B021A4612210198FFF704
:1028A0002FFD0198FFF76CFD0346002B0AD0019B1A
:1028B000DB6A1B68184600F0A3FB019B05221A7116
:1028C000012300E00023184603B05DF804FB00BFBD
:1028D00000B585B001900091019B1B79062B01D0BA
:1028E000012338E00023039320E0019BDB6A1B688F
:1028F000009A0121184600F06BFC009B1B78FE2B10
:1029000011D1019BDB6A1B68009A4FF400711846D5
:1029100000F05EFC019BDB6A1B680221184600F098
:1029200017FC002317E0039B01330393039B42F240
:102930000F729342D9D9019BDB6A1B68184600F0DD
:102940008FFB019BDB6A1B68184600F059FB019B5B
:1029500005221A710123184605B05DF804FB00BF7B
:1029600000B583B00190019B1B79062B01D0012398
:1029700015E0019BDB6A1B680B4A0721184600F033
:1029800007FC0198FFF7FCFC019BDB6A1B681846FB
:1029900000F066FB019B05221A71002300BF184658
:1029A00003B05DF804FB00BF2CEC00080000000041
:1029B00000B583B001900091019B07221A71019B21
:1029C000DB6A1A68019BDB6A9B681946104600F0B7
:1029D000F7FA019BDB6A1B68184600F029FB019B94
:1029E00093F83030002B05D0009A19210198FFF799
:1029F00087FC06E0009B5B021A4619210198FFF74D
:102A00007FFC0198FFF7BCFC0346002B0AD0019B1A
:102A1000DB6A1B68184600F0F3FA019B05221A7165
:102A2000012300E00023184603B05DF804FB00BF5B
:102A300000B585B001900091019B1B79072B01D057
:102A400001233BE0019BDB6A1B681E4A02211846FA
:102A500000F09EFB019BDB6A1B68009A4FF400713B
:102A6000184600F095FB019BDB6A1B6802211846A3
:102A700000F06EFB019BDB6A1B6803AA012118466C
:102A800000F0A6FB9DF80C3003F01F03052B04D1CA
:102A90000198FFF705FC002310E0019BDB6A1B682F
:102AA000184600F0DDFA019BDB6A1B68184600F04F
:102AB000A7FA019B05221A71012300BF184605B031
:102AC0005DF804FB34EC000800000000000000008A
:102AD00000B583B00190019B1B79072B01D0012326
:102AE00012E0019BDB6A1B68094A0221184600F0CC
:102AF0004FFB019BDB6A1B68184600F0B1FA019B93
:102B000005221A71002300BF184603B05DF804FBCC
:102B100038EC000800000000000000000000000089
:102B200000B583B00190019B1B79052B01D00123D7
:102B300013E0019B08221A71019BDB6A1A68019B52
:102B4000DB6A9B681946104600F03AFA0198FFF7D5
:102B500027FD019B05221A710023184603B05DF87A
:102B600004FB00BF000000000000000000000000A7
:102B700082B001900091019B1B79052B01D00123AC
:102B800008E0019B9A6A009B5A60009B4FF4007218
:102B90001A600023184602B0704700BF0000000012
:102BA00082B030230193019B83F3118800BF00BFE3
:102BB00000BF02B0704700BF00000000000000002E
:102BC00082B000230193019B83F3118800BF00BFF3
:102BD00000BF02B0704700BF00000000000000000E
:102BE00082B00190019B019A1A6000BF02B0704749
:102BF00008B5FFF7D5FF00BF08BD00BF000000000B
:102C000008B5FFF7DDFF00BF08BD00BF00000000F2
:102C100000B583B001900198FFF7E2FF00BF03B059
:102C20005DF804FB00000000000000000000000050
:102C300000B583B0019000910099019804F068FEFE
:102C400000BF03B05DF804FB0000000000000000BE
:102C500000B585B0039002910192039B03F130000F
:102C60004FF0FF33019A0299FFF7F2F80346184636
:102C700005B05DF804FB00BF00000000000000008C
:102C800000B585B0039002910192039B03F10C0003
:102C90004FF0FF33019A0299FEF7EAFF0346184608
:102CA00005B05DF804FB00BF00000000000000005C
:102CB00000B583B001900B468DF80330019B303393
:102CC0009DF803104FF0FF321846FFF739F803461E
:102CD000184603B05DF804FB00000000000000008F
:102CE00000B583B00190019B0C334FF0FF311846C3
:102CF000FEF77EFF0346184603B05DF804FB00BFF5
:102D000000B585B003900B4601928DF80B30039B04
:102D100030339DF80B10019A1846FFF711F803465F
:102D2000184605B05DF804FB00000000000000003C
:102D300000B583B001900091019B0C3300991846B7
:102D4000FEF756FF0346184603B05DF804FB00BFCC
:102D500000B585B00390029101920093039B03F1AB
:102D60003000009B019A0299FFF772F8034618465B
:102D700005B05DF804FB00BF00000000000000008B
:102D800000B585B00390029101920093039B03F17B
:102D90000C00009B019A0299FEF76AFF0346184651
:102DA00005B05DF804FB00BF00000000000000005B
:102DB00086B0039002910192039B0593029B002B26
:102DC00002D0029B012B00E000BF0023184606B092
:102DD000704700BF0000000000000000000000007D
:102DE00008B502F0BDFD00BF08BD00BF0000000037
:102DF00000B587B0059004910392059B124A1A60B2
:102E0000059B04331846FFF703FF059B01221A7246
:102E1000059B03F10C00059B03F15401059B0093F6
:102E2000049B1022FEF77CFE059B03F13000059BFE
:102E300003F16401059B0093039B1022FEF758FFEA
:102E400000BF07B05DF804FB3CEC00080000000088
:102E500000B585B001900091FFF7CAFE0099019876
:102E600002F096FD00230393039B002B03D1019BEB
:102E700002221A7202E0019B01221A72FFF7C0FEC1
:102E8000039B184605B05DF804FB00BF000000007E
:102E900000B583B001900B468DF80330019B5B6950
:102EA000002B05D1019B043304211846FFF7C0FE17
:102EB000019B0C339DF8032011461846FEF758FE7F
:102EC0000346002B06DA019B04334FF48061184659
:102ED000FFF7AEFE00BF03B05DF804FB000000008A
:102EE00082B030230193019B83F3118800BF00BFA0
:102EF00000BF02B0704700BF0000000000000000EB
:102F000082B000230193019B83F3118800BF00BFAF
:102F100000BF02B0704700BF0000000000000000CA
:102F200008B5FFF7DDFF00BF08BD00BF00000000CF
:102F300008B5FFF7E5FF00BF08BD00BF00000000B7
:102F400000B583B0019000910099019804F0E8FA6F
:102F50000346184603B05DF804FB00BF0000000004
:102F600000B583B00190019804F092FC00BF03B05B
:102F70005DF804FB000000000000000000000000FD
:102F800008B502F035F900BF08BD00BF0000000021
:102F900000B583B00190019B01221A70019B0022B1
:102FA0005A60019B00229A60019B0C331846FFF780
:102FB000D7FF00BF03B05DF804FB00BF00000000B6
:102FC00000B585B001900091FFF7AAFF019B009A20
:102FD0005A60019802F044F90390039B002B03D13F
:102FE000019B02221A7002E0019B01221A70FFF776
:102FF0009FFF039B184605B05DF804FB000000002E
:1030000000B583B00190FFF78BFF019802F0F0F953
:10301000019B00225A60019B01221A70FFF788FF72
:1030200000BF03B05DF804FB0000000000000000DA
:1030300000B583B00190FFF773FF019B5B681B69CC
:1030400001229A40019B5B68DB6892B25A83FFF7CA
:103050006FFF00BF03B05DF804FB00BF000000007D
:1030600000B583B00190FFF75BFF019B5B681B69B4
:1030700001229A40019B5B68DB6892B21A83FFF7DA
:1030800057FF00BF03B05DF804FB00BF0000000065
:1030900000B585B001900091019B03221A70009940
:1030A000019802F0FDF90390039B184605B05DF806
:1030B00004FB00BF00000000000000000000000052
:1030C00000B587B0039002910192039B03221A700E
:1030D000019A0299039802F02BFA0590059B184675
:1030E00007B05DF804FB00BF000000000000000016
:1030F00000B587B0039002910192039B03221A70DE
:10310000019A0299039802F05BFA0590059B184614
:1031100007B05DF804FB00BF0000000000000000E5
:1031200000B585B001900091019B1B78032B07D15E
:10313000019B083300991846FFF702FF039001E056
:1031400000230393039B184605B05DF804FB00BF02
:1031500000B585B001900091FFF7E2FE009901985B
:10316000FFF796FF0390039B002B05D14FF0FF3133
:103170000198FFF7D5FF0390FFF7DAFE039B18468F
:1031800005B05DF804FB00BF000000000000000077
:1031900000B587B0039002910192FFF7C1FE019A3A
:1031A00002990398FFF78CFF0590059B002B05D132
:1031B0004FF0FF310398FFF7B3FF0590FFF7B8FE1C
:1031C000059B184607B05DF804FB00BF0000000037
:1031D00000B587B0039002910192FFF7A1FE019A1A
:1031E00002990398FFF784FF0590059B002B05D1FA
:1031F0004FF0FF310398FFF793FF0590FFF798FE1C
:10320000059B184607B05DF804FB00BF00000000F6
:1032100082B030230193019B83F3118800BF00BF6C
:1032200000BF02B0704700BF0000000000000000B7
:1032300082B000230193019B83F3118800BF00BF7C
:1032400000BF02B0704700BF000000000000000097
:1032500008B5FFF7DDFF00BF08BD00BF000000009C
:1032600008B5FFF7E5FF00BF08BD00BF0000000084
:1032700008B502F03DFE00BF08BD00BF0000000021
:1032800082B00190019B01221A70019B00225A70AA
:10329000019B00229A70019B00225A6000BF02B07D
:1032A000704700BF000000000000000000000000A8
:1032B00000B585B001900091FFF7CAFF019B009A0D
:1032C0005A60019802F034FE00230393039B002B05
:1032D00003D1019B02221A7002E0019B01221A70A5
:1032E000FFF7BEFF039B184605B05DF804FB00BF67
:1032F00000B583B00190FFF7ABFF019802F090FE9C
:10330000019B00225A60019B01221A70019B00223E
:103310005A70019B00229A70FFF7A2FF00BF03B012
:103320005DF804FB00000000000000000000000049
:1033300082B001900091009BDBB2114A1B01D9B20F
:10334000019B134403F540730A461A70019B03F076
:103350001F020B49019B5B09012000FA02F2603356
:1033600041F82320019B03F01F020549019B5B09E3
:10337000012000FA02F241F8232000BF02B070479A
:1033800000E100E00000000000000000000000007C
:1033900082B00190019B03F01F020F49019B5B0962
:1033A000012000FA02F2203341F82320019B03F0B0
:1033B0001F020949019B5B09012000FA02F26033F8
:1033C00041F82320044A019B134403F54073002273
:1033D0001A7000BF02B0704700E100E0000000007A
:1033E00000BF704700000000000000000000000067
:1033F00000BF704700000000000000000000000057
:1034000000BF704700000000000000000000000046
:1034100000BF704700000000000000000000000036
:1034200000BF704700000000000000000000000026
:1034300000BF704700000000000000000000000016
:1034400000BF704700000000000000000000000006
:1034500000BF7047000000000000000000000000F6
:1034600000BF7047000000000000000000000000E6
:1034700000BF7047000000000000000000000000D6
:1034800000BF7047000000000000000000000000C6
:1034900000BF7047000000000000000000000000B6
:1034A00000BF7047000000000000000000000000A6
:1034B00000BF704700000000000000000000000096
:1034C00008B50C212520FFF733FF00BF08BD00BF62
:1034D00008B5034802F0DCFD04F03AFE00BF08BD69
:1034E0001C0E002000000000000000000000000092
:1034F00008B50C212620FFF71BFF00BF08BD00BF49
:1035000008B5034802F074FA04F022FE00BF08BDBB
:103510009C0D0020000000000000000000000000E2
:1035200000BF704700000000000000000000000025
:1035300000BF704700000000000000000000000015
:1035400000BF704700000000000000000000000005
:1035500000BF7047000000000000000000000000F5
:1035600000BF7047000000000000000000000000E5
:1035700000BF7047000000000000000000000000D5
:1035800000BF7047000000000000000000000000C5
:1035900000BF7047000000000000000000000000B5
:1035A00000BF7047000000000000000000000000A5
:1035B00008B507211C20FFF7BBFE00BF08BD00BFF8
:1035C00008B502F0BDF804F0C3FD00BF08BD00BFA0
:1035D00000BF704700000000000000000000000075
:1035E00000BF704700000000000000000000000065
:1035F00000BF704700000000000000000000000055
:1036000000BF704700000000000000000000000044
:1036100000BF704700000000000000000000000034
:1036200000BF704700000000000000000000000024
:1036300008B5FFF7D5FEFFF7DBFEFFF7E1FEFFF76A
:10364000E7FEFFF7EDFEFFF7F3FEFFF7F9FEFFF7EA
:10365000FFFEFFF705FFFFF70BFFFFF711FFFFF777
:1036600017FFFFF71DFFFFF723FFFFF799FFFFF796
:103670009FFFFFF7ADFFFFF7B3FFFFF7B9FFFFF7BE
:10368000BFFFFFF7C5FFFFF7CBFFFFF719FFFFF7FE
:103690002FFFFFF745FFFFF74BFFFFF751FFFFF746
:1036A00057FFFFF75DFFFFF763FFFFF769FFFFF7C6
:1036B0006FFF00BF08BD00BF000000000000000059
:1036C0000D4B1B680C4A43F4807313600B4B1B6F4C
:1036D00003F44073B3F5007F06D0084B4FF48032FB
:1036E0001A67064B00221A67034B5B68024A23F4F1
:1036F0000073536000BF7047007000400038024004
:1037000008B5264B1B69254A63F01F031361234B41
:103710001B69224A03F01F031361204B1B691F4BD7
:103720005B691E4B4FF0FF325A611C4B5B691B4BB0
:1037300000225A61194B5B69184B1B6A174A63F0E8
:1037400080531362154B1B6A144A03F080531362B3
:10375000124B1B6A114B5B6A104B4FF0FF325A62DF
:103760000E4B5B6A0D4B00225A620C4B5B6A0B4B93
:103770001B6C0A4A43F080531364084B1B6E074AC4
:1037800043F080531366054B1B6EFFF799FF00F063
:103790000FFBFFF74DFF00BF08BD00BF0038024020
:1037A00082B0494B4FF080521A64484B4FF40042AC
:1037B0001A60454B1B68444A43F00103136000BF85
:1037C000414B1B6803F00203002BF9D03E4B9B6872
:1037D0003D4A23F00303936000BF3B4B9B6803F01B
:1037E0000C03002BF9D1384B1B68374A03F0F9035F
:1037F0001360354B00229A60334B5B6F324A43F0C3
:103800000103536700BF304B5B6F03F00203002BD3
:10381000F9D02D4B2E4A5A602B4B1B682A4A43F095
:103820008073136000BF294B5B6803F48043002B57
:10383000F9D000BF244B1B6803F00073002BF9D0B4
:10384000214B244A9A60002301931F4A019B43F0B5
:103850000303C2F88C30204B1B68204A934209D1E5
:103860001F4B1B681F4A934204D11F4B4FF48172B8
:103870001A6003E01C4B40F202721A6000BF1A4B40
:103880001B6803F00F03022BF9D10F4B9B680E4A04
:1038900043F00203936000BF0B4B9B6803F00C03E3
:1038A000082BF9D1084B5B6C074A43F480435364FF
:1038B000054B5B6E044A43F480435366024B5B6ED8
:1038C00000BF02B0704700BF0038024000700040E7
:1038D0001054010700108838002004E01164002013
:1038E00000ED00E041C20F41003C0240000000003A
:1038F00000B583B00C4B1B6803F03D0301930A4AEB
:10390000019B9360094B5B68002B06D0074B5B68FB
:10391000064A926801991046984704F019FC00BFC6
:1039200003B05DF804FB00BF00600240680C00209B
:1039300000B583B00D4B1B689B0903F03D03019359
:103940000A4A019B9B019360094BDB68002B06D060
:10395000074BDB68064A126901991046984704F044
:10396000F7FB00BF03B05DF804FB00BF006002403E
:10397000680C0020000000000000000000000000B3
:1039800000B583B00D4B1B681B0C03F03D03019386
:103990000A4A019B1B049360094B5B69002B06D00C
:1039A000074B5B69064A926901991046984704F0F3
:1039B000CFFB00BF03B05DF804FB00BF0060024016
:1039C000680C002000000000000000000000000063
:1039D00000B583B00D4B1B689B0D03F03D030193B5
:1039E0000A4A019B9B059360094BDB69002B06D0BB
:1039F000074BDB69064A126A01991046984704F0A2
:103A0000A7FB00BF03B05DF804FB00BF00600240ED
:103A1000680C002000000000000000000000000012
:103A200000B583B00C4B5B6803F03D0301930A4A79
:103A3000019BD360094B5B6A002B06D0074B5B6A86
:103A4000064A926A01991046984704F081FB00BF2C
:103A500003B05DF804FB00BF00600240680C00206A
:103A600000B583B00D4B5B689B0903F03D030193E8
:103A70000A4A019B9B01D360094BDB6A002B06D0ED
:103A8000074BDB6A064A126B01991046984704F00F
:103A90005FFB00BF03B05DF804FB00BF00600240A5
:103AA000680C002000000000000000000000000082
:103AB00000B583B00D4B5B681B0C03F03D03019315
:103AC0000A4A019B1B04D360094B5B6B002B06D099
:103AD000074B5B6B064A926B01991046984704F0BE
:103AE00037FB00BF03B05DF804FB00BF006002407D
:103AF000680C002000000000000000000000000032
:103B000000B583B00D4B5B689B0D03F03D03019343
:103B10000A4A019B9B05D360094BDB6B002B06D047
:103B2000074BDB6B064A126C01991046984704F06C
:103B30000FFB00BF03B05DF804FB00BF0060024054
:103B4000680C0020000000000000000000000000E1
:103B500000B583B00C4B1B6803F03D0301930A4A88
:103B6000019B9360094B5B6C002B06D0074B5B6C91
:103B7000064A926C01991046984704F0E9FA00BF92
:103B800003B05DF804FB00BF00640240680C002035
:103B900000B583B00D4B1B689B0903F03D030193F7
:103BA0000A4A019B9B019360094BDB6C002B06D0FA
:103BB000074BDB6C064A126D01991046984704F0DA
:103BC000C7FA00BF03B05DF804FB00BF0064024009
:103BD000680C002000000000000000000000000051
:103BE00000B583B00D4B1B681B0C03F03D03019324
:103BF0000A4A019B1B049360094B5B6D002B06D0A6
:103C0000074B5B6D064A926D01991046984704F088
:103C10009FFA00BF03B05DF804FB00BF00640240E0
:103C2000680C002000000000000000000000000000
:103C300000B583B00D4B1B689B0D03F03D03019352
:103C40000A4A019B9B059360094BDB6D002B06D054
:103C5000074BDB6D064A126E01991046984704F037
:103C600077FA00BF03B05DF804FB00BF00640240B8
:103C7000680C0020000000000000000000000000B0
:103C800000B583B00C4B5B6803F03D0301930A4A17
:103C9000019BD360094B5B6E002B06D0074B5B6E1C
:103CA000064A926E01991046984704F051FA00BFF7
:103CB00003B05DF804FB00BF00640240680C002004
:103CC00000B583B00D4B5B689B0903F03D03019386
:103CD0000A4A019B9B01D360094BDB6E002B06D087
:103CE000074BDB6E064A126F01991046984704F0A5
:103CF0002FFA00BF03B05DF804FB00BF0064024070
:103D0000680C00200000000000000000000000001F
:103D100000B583B00D4B5B681B0C03F03D030193B2
:103D20000A4A019B1B04D360094B5B6F002B06D032
:103D3000074B5B6F064A926F01991046984704F053
:103D400007FA00BF03B05DF804FB00BF0064024047
:103D5000680C0020000000000000000000000000CF
:103D600000B583B00D4B5B689B0D03F03D030193E1
:103D70000A4A019B9B05D360094BDB6F002B07D0E0
:103D8000074BDB6F064AD2F880200199104698470E
:103D900004F0DEF900BF03B05DF804FB00640240EC
:103DA000680C00200000000000000000000000007F
:103DB00082B0174B00221A600023019312E01549CC
:103DC000019A13465B0013449B000B441B680022BE
:103DD0001A600F4A019BDB00134400225A60019BCA
:103DE00001330193019B0F2BE9D90B4B4FF0FF32AD
:103DF0009A60094B4FF0FF32DA60084B4FF0FF3208
:103E00009A60064B4FF0FF32DA6000BF02B0704795
:103E1000680C002064EC000800600240006402406E
:103E200000B58BB00390029101920093039B0F2B7E
:103E300006D8039B0893039B0793089B099378E09C
:103E400000237BE00122099B02FA03F306933D4B1A
:103E50001A68069B1340002B68D1099A13465B0031
:103E600013449B00384A13440593364A099BDB00F0
:103E70001344019A5A60334A099BDB001344009AA9
:103E80009A60304B1A68069B13432E4A1360069BB8
:103E9000DBB2002B0DD02D4B1B6B2C4A43F40013CF
:103EA00013632A4B1B6D294A43F400131365274BF8
:103EB0001B6D069B03F47F43002B0DD0234B1B6B24
:103EC000224A43F480031363204B1B6D1F4A43F4C3
:103ED000800313651D4B1B6D059B1B681A68059BB2
:103EE0001B6822F01F021A60059B1B681B6803F009
:103EF0000103002BF8D1059B5B7A1946059B5B6893
:103F00003D228A401A60059B1B6800221A60059BAF
:103F10001B6821225A61019B002B05D0059BDB7A8F
:103F200002991846FFF704FA059B07E0099B013345
:103F30000993099A079B9A4284D9002318460BB02B
:103F40005DF804FB680C002064EC000800380240B7
:103F500000B583B00190019BDB7A1846FFF718FA91
:103F60001A4B1A68019B9B7A194601238B40DB434D
:103F70001340164A1360154B1B68DBB2002B0DD1A2
:103F8000134B1B6B124A23F400131363104B1B6D6E
:103F90000F4A23F4001313650D4B1B6D0B4B1B686D
:103FA00003F47F43002B0DD1094B1B6B084A23F40C
:103FB00080031363064B1B6D054A23F480031365CE
:103FC000034B1B6D00BF03B05DF804FB680C0020C1
:103FD0000038024000000000000000000000000067
:103FE00000BF70470000000000000000000000005B
:103FF0008EB0039002910192019B03F003030D9395
:10400000019B9B0803F001030C93019BDB0803F069
:1040100003030B93019B5B0903F003030A93019BCA
:10402000DB0903F00F03089300230993029B03F0BD
:104030000103002B79D0099B03F007039B00089A2A
:1040400002FA03F307930122099B02FA03F3069392
:10405000099B5B00032202FA03F30593099B03F01B
:1040600007039B000F2202FA03F30493039B5A6891
:10407000069BDB431A400C9B1A43039B5A60039B2D
:104080009A68059BDB431A400B9B1A43039B9A607B
:10409000039BDA68059BDB431A400A9B1A43039B88
:1040A000DA60019B03F00303022B1FD1099B072B4E
:1040B00009D8039B1A6A049BDB431A40079B1A43E7
:1040C000039B1A6208E0039B5A6A049BDB431A4075
:1040D000079B1A43039B5A62039B1A68059BDB43A9
:1040E0001A400D9B1A43039B1A601EE0039B1A683B
:1040F000059BDB431A400D9B1A43039B1A60099BE7
:10410000072B09D8039B1A6A049BDB431A40079BC1
:104110001A43039B1A6208E0039B5A6A049BDB4321
:104120001A40079B1A43039B5A62029B5B08029347
:10413000029B002B0FD00C9B5B000C930B9B9B00F6
:104140000B930A9B9B000A930D9B9B000D93099B6D
:10415000013309936AE700BF0EB07047000000000A
:1041600082B001900091019A009B1344184602B05E
:10417000704700BF000000000000000000000000C9
:1041800084B0039002910192039A029BD21A019982
:10419000029BCB1A9A4234BF01230023DBB218469C
:1041A00004B07047000000000000000000000000A4
:1041B00008B5FDF745FB0346184608BD00000000A2
:1041C00082B030230193019B83F3118800BF00BFAD
:1041D00000BF02B0704700BF0000000000000000F8
:1041E00082B000230193019B83F3118800BF00BFBD
:1041F00000BF02B0704700BF0000000000000000D8
:1042000082B030230193019B83F3118800BF00BF6C
:1042100000BF00BF02B070470000000000000000B7
:1042200082B000230193019B83F3118800BF00BF7C
:1042300000BF00BF02B07047000000000000000097
:1042400008B5FFF7B5FF0346184608BD000000009B
:1042500000B583B00190019802F09AF800BF03B056
:104260005DF804FB000000000000000000000000FA
:1042700008B5FFF7A5FF00BF08BD00BF00000000A4
:1042800008B5FFF7ADFF00BF08BD00BF000000008C
:1042900008B5FFF7B5FF00BF08BD00BF0000000074
:1042A00008B5FFF7BDFF00BF08BD00BF000000005C
:1042B00008B5FFF7C5FF0346184608BD000000001B
:1042C00000B583B00190009100990198FFF748FF75
:1042D0000346184603B05DF804FB00BF0000000071
:1042E00000B585B0039002910192019A029903985A
:1042F000FFF746FF0346184605B05DF804FB00BF14
:1043000000B583B0019000910099019803F008F97D
:104310000346184603B05DF804FB00BF0000000030
:1043200000B583B0019000910099019803F020F945
:1043300000BF03B05DF804FB0000000000000000B7
:1043400084B00190019B5B6B0393039B4FF400428D
:104350001A60039B00221A60039B00225A60039B91
:1043600000225A61019B1B6B1B681A68019B1B6B27
:104370001B6822F01F021A60019B1B6B1B681B68E5
:1043800003F00103002BF7D1019B1B6B5B7A1946ED
:10439000019B1B6B5B683D228A401A60019BDB6AB4
:1043A0001B681A68019BDB6A1B6822F01F021A60F7
:1043B000019BDB6A1B681B6803F00103002BF7D12C
:1043C000019BDB6A5B7A1946019BDB6A5B683D22D5
:1043D0008A401A6000BF04B0704700BF00000000B0
:1043E00086B00190019B5B6B0493019B5B685B68EB
:1043F0000393019B5B681B7A8DF80B30049B5A6812
:104400004FF6C0731340049A5360049B5B6843F0FB
:104410002A02049B5A600023ADF8163040F6FF7361
:10442000ADF81430039B2C4A934214DC039B5B00D1
:104430002A4A92FBF3F3ADF81430BDF81430C3F3FD
:104440000B039AB2BDF816301343ADF81630049B37
:104450002B221A6238E0039B214A934234DC9DF8F8
:104460000B30022B09D1039A13465B0013441B4AFD
:1044700092FBF3F3ADF8143014E09DF80B30032BEE
:1044800010D1039A13469B0013449A001344134A15
:1044900092FBF3F3ADF81430BDF8163043F48043CB
:1044A000ADF81630BDF81430C3F30B039AB2BDF863
:1044B000163013439BB26FEA43436FEA5343ADF8A0
:1044C0001630049B0D221A62BDF81620049BDA6197
:1044D00000BF06B0704700BFA086010080DE8002EA
:1044E000801A06000000000000000000000000002C
:1044F00086B00190019B5B6B0493019B5B681B780A
:104500008DF80F30049B1B68ADF816309DF80F3006
:10451000032B1AD0032B1FDC012B02D0022B07D058
:104520001AE0BDF8163023F00A03ADF8163013E098
:10453000BDF8163043F00203ADF81630BDF8163062
:1045400023F00803ADF8163006E0BDF8163043F04E
:104550000A03ADF8163000BFBDF81620049B1A60A0
:1045600000BF06B0704700BF000000000000000060
:1045700000B587B00190019B5B6B0593059B9B6920
:104580000493059B5B690393049B1A04039B1343E9
:1045900003F0FF13754A934200F0A380734A9342DD
:1045A00000F2D680724A934200F08A80704A9342A9
:1045B00000F2CE80B3F1011F36D0B3F1011FC0F07D
:1045C000C7806C4A934200F2C380B3F5403F40F28B
:1045D000BF80A3F54033013B102B00F2B98001A24C
:1045E00052F823F0294600087B460008514700088E
:1045F000514700085147000851470008514700083B
:104600006B46000851470008514700085147000811
:10461000514700085147000851470008514700081A
:10462000514700083D470008019B1B8C1B0A9BB2A9
:10463000002B14D0019B1B8C1B0A9BB203F00603BA
:104640009AB2019B1B8C03F001039BB213439BB2F4
:1046500043F0F0039BB21A46059B1A617BE0019B75
:104660001B8C1A46059B1A6175E0019B1B8C5B082D
:104670009BB2DAB2059B1A616DE0059B5B6823F47F
:104680000072059B5A60019BDB6A1B681A68019BDC
:10469000DB6A1B6842F001021A60059B5B6843F409
:1046A0008052059B5A60019BDB6A1B685B68012B8B
:1046B00050D8059B1B6823F48062059B1A6049E073
:1046C000059B5B6823F40072059B5A60019B1B6B82
:1046D0001B681A68019B1B6B1B6842F001021A6081
:1046E00039E0059B1B69019BDB6A1B685B68002B3B
:1046F0000DD0019B1B8C43F001039AB2019B1A84DD
:10470000059B1B6843F4A062059B1A602AE0059B89
:104710005B6823F40072059B5A60059B1B6843F499
:104720000072059B1A60FFF7B3FD019B1C3300214B
:104730001846FFF7F5FDFFF7B3FD0CE00198FFF712
:10474000FFFD059B5B6823F40072059B5A6002E045
:1047500000BF00E000BF039B03F00A03002B01D061
:10476000059B9B6907B05DF804FB00BF8400070050
:10477000820007001100030000000000000000009C
:1047800000B585B001900091019B5B6B0393009B8A
:1047900003F00C03002B02D01F48FFF759FD019BCB
:1047A000DB6A1B681A68019BDB6A1B6822F01F0228
:1047B0001A6000BF019BDB6A1B681B6803F00103E2
:1047C000002BF7D1019BDB6A5B7A1946019BDB6A00
:1047D0005B683D228A401A60039B5B6823F4805229
:1047E000039B5A60039B1B6823F48062039B1A603F
:1047F000039B1B6843F40072039B1A60FFF748FD9C
:10480000019B1C3300211846FFF78AFDFFF748FD86
:1048100000BF05B05DF804FB24ED000800000000B7
:1048200000B585B001900091019B5B6B0393009BE9
:1048300003F00C03002B02D01448FFF709FD019B85
:104840001B6B1B681A68019B1B6B1B6822F01F0205
:104850001A6000BF019B1B6B1B681B6803F0010300
:10486000002BF7D1019B1B6B5B7A1946019B1B6BDD
:104870005B683D228A401A60039B5B6843F40072C8
:10488000039B5A6000BF05B05DF804FB24ED0008EF
:1048900000B583B001900B46ADF80230019B1B6B55
:1048A0001B681A68019B1B6B1B6822F01F021A60B1
:1048B000019B1B6B1B681B6803F00103002BF7D1E6
:1048C000019B1B6B5B7A1946019B1B6B5B683D224E
:1048D0008A401A60019BDB6A1B681A68019BDB6ACD
:1048E0001B6822F01F021A60019BDB6A1B681B68B1
:1048F00003F00103002BF7D1019BDB6A5B7A1946B9
:10490000019BDB6A5B683D228A401A60019B0022A2
:104910009A60BDF8023003F48073002B05D0019B30
:104920009B6843F00102019B9A60BDF8023003F4DA
:104930000073002B05D0019B9B6843F00202019B92
:104940009A60BDF8023003F48063002B15D0019B00
:104950005B6B5A68019B5B6B22F400725A60019B8F
:104960005B6B1A68019B5B6B42F400721A60019BDF
:104970009B6843F00402019B9A60BDF8023003F487
:104980000063002B05D0019B9B6843F00802019B4C
:104990009A60BDF8023003F48043002B05D0019BE0
:1049A0009B6843F02002019B9A60BDF8023003F43B
:1049B0008053002B05D0019B9B6843F01002019BA4
:1049C0009A60BDF90230002B05DA019B9B6843F029
:1049D0004002019B9A60019B9B68002B0AD0FFF765
:1049E00057FC019B1C336FF001011846FFF798FC40
:1049F000FFF756FC00BF03B05DF804FB00000000A9
:104A000008B50348FFF7B4FD03F0A2FB00BF08BDE3
:104A1000EC0C00200000000000000000000000007E
:104A200000B583B00C4B5B6B5B69ADF80630BDF82D
:104A3000063003F45F43DA43074B5B6B5A61BDF802
:104A4000063019460448FFF723FF03F081FB00BF3F
:104A500003B05DF804FB00BFEC0C00200000000078
:104A600008B50848FDF7F4FA064B0022DA61054B59
:104A7000054A5A63034B0022DA62024B00221A6392
:104A800000BF08BDEC0C00200054004000000000F6
:104A900000B585B00190019B5B6B0393019B1B7874
:104AA000012B51D1019B40F256429A62019B40F288
:104AB00016425A62019B394A934245D1384B1B6AD0
:104AC000374A43F400131362354B1B6A344A23F40C
:104AD00000131362324B1B6A019B324A05210020EE
:104AE000FFF79EF90246019BDA62019B2E4A0521DF
:104AF0000620FFF795F90246019B1A63284B1B6CB1
:104B0000274A43F400131364254B1B6E244A43F4D5
:104B100000131366224B1B6E05211F20FEF708FCB5
:104B200005212020FEF704FC019B5B6A43F0007323
:104B300043F44033019A5362019B9B6A43F0007334
:104B400043F44033019A9362039B03F11002019BEB
:104B5000DB6A1B689A60039B03F11002019B1B6BCD
:104B60001B689A60039B4FF400421A60039B00226B
:104B70001A60039B4FF410625A600198FFF730FCF3
:104B80000198FFF7B5FC039B1B6843F00102039BF0
:104B90001A6000BF05B05DF804FB00BFEC0C0020FC
:104BA000003802408147000821480008000000004A
:104BB00000B589B00390019200930B46ADF80A301E
:104BC000039B5B6B0793039B00229A60BDF80A303E
:104BD0005B009AB2039B1A84FFF752FB039B1B6B8B
:104BE0001B68039A926A1A60039B1B6B1B68019AED
:104BF000DA60039B1B6B1B68009A5A60039BDB6A9D
:104C00001B68039A526A1A60039BDB6A1B680A9A44
:104C1000DA60039BDB6A1B680B9A5A60FFF748FB5C
:104C200006904FF4FA710698FFF74AFB0590FFF7DC
:104C30001FFB079B9B6903F00203002B05D1079B19
:104C40001B6803F40073002B4BD0FFF731FB0346C6
:104C5000059A06991846FFF743FB034683F00103C4
:104C6000DBB2002B3AD0039B1B6B1B681A68039BBB
:104C70001B6B1B6822F01F021A60039B1B6B1B68D7
:104C80001B6803F00103002BF7D1039B1B6B5B7ABE
:104C90001946039B1B6B5B683D228A401A60039B8D
:104CA000DB6A1B681A68039BDB6A1B6822F01F0221
:104CB0001A60039BDB6A1B681B6803F00103002B6F
:104CC000F7D1039BDB6A5B7A1946039BDB6A5B685F
:104CD0003D228A401A604FF0FF3352E0FFF7D0FACE
:104CE000A5E700BF079B5B6843F40072079B5A600F
:104CF000079B1B6843F48072079B1A60039B1C335D
:104D00000C991846FFF7FCFA0490049B002B37D04F
:104D1000039B1B6B1B681A68039B1B6B1B6822F0B1
:104D20001F021A60039B1B6B1B681B6803F00103C7
:104D3000002BF7D1039B1B6B5B7A1946039B1B6B04
:104D40005B683D228A401A60039BDB6A1B681A6815
:104D5000039BDB6A1B6822F01F021A60039BDB6A5D
:104D60001B681B6803F00103002BF7D1039BDB6A70
:104D70005B7A1946039BDB6A5B683D228A401A60B6
:104D8000049B184609B05DF804FB00BF000000005A
:104D900082B030230193019B83F3118800BF00BFD1
:104DA00000BF00BF02B0704700000000000000001C
:104DB00082B000230193019B83F3118800BF00BFE1
:104DC00000BF00BF02B070470000000000000000FC
:104DD00000B583B00190019801F0DAFA00BF03B08A
:104DE0005DF804FB0000000000000000000000006F
:104DF00008B5FFF7CDFF00BF08BD00BF00000000F1
:104E000008B5FFF7D5FF00BF08BD00BF00000000D8
:104E100000B583B0019000910099019802F0A8FBC1
:104E200000BF03B05DF804FB0000000000000000BC
:104E300082B00190019B5B685B78002B12D0019BD4
:104E40005B689B8A1A46019BDB6922F044021A6068
:104E5000019B5B68DB8A43F003039AB2019BDB6929
:104E60005A6014E0019B5B689B8A43F004039BB289
:104E70001A46019BDB6922F040021A60019B5B68C5
:104E8000DB8A43F007039AB2019BDB695A6000BFDB
:104E900002B07047000000000000000000000000A9
:104EA00000B583B00190019B5B685B7883F00103E0
:104EB000DBB2002B48D0019B9B6A1B681A68019BE0
:104EC0009B6A1B6822F01F021A60019B9B6A1B6889
:104ED0001B6803F00103002BF7D1019B9B6A5B7AEF
:104EE0001946019B9B6A5B683D228A401A6000BF9D
:104EF000019BDB699B6803F08003002BF8D1019BC9
:104F0000DB691A68019BDB6922F040021A60019B91
:104F10005B6A1B681A68019B5B6A1B6822F01F02B0
:104F20001A60019B5B6A1B681B6803F00103002B7E
:104F3000F7D1019B5B6A5B7A1946019B5B6A5B68F0
:104F40003D228A401A605FE0019B9B6A1B681A68D9
:104F5000019B9B6A1B6822F01F021A60019B9B6ADF
:104F60001B681B6803F00103002BF7D1019B9B6AB0
:104F70005B7A1946019B9B6A5B683D228A401A60F6
:104F8000019B5B6A1B681A68019B5B6A1B6822F0C5
:104F90001F021A60019B5B6A1B681B6803F0010318
:104FA000002BF7D1019B5B6A5B7A1946019B5B6A18
:104FB0005B683D228A401A60019B164A93420ED1DB
:104FC000154B5B6A144A43F480535362124B5B6A7D
:104FD000114A23F4805353620F4B5B6A11E0019B2B
:104FE0000E4A93420DD10C4B1B6A0B4A43F480438B
:104FF0001362094B1B6A084A23F480431362064B71
:105000001B6A0198FFF714FF0023184603B05DF8F0
:1050100004FB00BF240D002000380240600D00207A
:1050200000B583B001900091009B03F00C03002BAE
:105030001AD03948FFF7CCFE0198FFF731FF019BEA
:105040005B689B68002B04D0019B5B689B680198A0
:105050009847FFF7CDFE019B083300211846FFF764
:10506000D7FEFFF7CDFE52E0019B5B681B78002B5B
:1050700028D0009B03F01003002B09D0019B5B6834
:105080005B68002B04D0019B5B685B6801989847C4
:10509000009B03F02003002B39D0019B5B685B6809
:1050A000002B34D0019B04221A70019B5B685B6863
:1050B00001989847019B1B78042B28D1019B032260
:1050C0001A7024E00198FFF7EBFE019B5B685B68B8
:1050D000002B0FD0019B04221A70019B5B685B6858
:1050E00001989847019B1B78042B06D1019B022253
:1050F0001A7002E0019B02221A70FFF779FE019BF1
:10510000083300211846FFF783FEFFF779FE00BF42
:1051100003B05DF804FB00BF24ED000800000000B0
:1051200000B583B001900091009B03F00C03002BAD
:1051300019D00F48FFF74CFE0198FFF7B1FE019B15
:105140005B689B68002B04D0019B5B689B6801989F
:105150009847FFF74DFE019B083300211846FFF7E3
:1051600057FEFFF74DFE00BF03B05DF804FB00BF24
:1051700024ED000800000000000000000000000016
:1051800000B585B00390029101920093039B154AEC
:1051900000990298FEF744FE0246039B5A62039B65
:1051A0005B6A002B02D16FF0100316E0039B0E4ADE
:1051B00000990198FEF734FE0246039B9A62039B16
:1051C0009B6A002B07D1039B5B6A1846FEF7C0FE63
:1051D0006FF0100301E0002300BF184605B05DF832
:1051E00004FB00BF2150000821510008000000000E
:1051F00008B51348FDF7CCFE114B124ADA61104B8B
:1052000000225A620E4B00229A620D4B0E4ADA625D
:105210000B4B0E4A1A630E48FDF7BAFE0C4B0D4AB3
:10522000DA610B4B00225A62094B00229A62084B4A
:10523000094ADA62064B094A1A6300BF08BD00BF7B
:10524000240D002000300140160001064600010632
:10525000600D0020003800401600010046000100EB
:1052600000B585B00190019B4FF0FF329A63019B1E
:105270001B78012B68D1019B584A934228D10A23FD
:105280000B2208210198FFF77BFF0390039B002B63
:1052900001D0039B9EE0524B5B6C514A43F4805318
:1052A00053644F4B5B6E4E4A43F4805353664C4BF2
:1052B0005B6E4B4B5B6A4A4A43F480535362484BE4
:1052C0005B6A474A23F480535362454B5B6A2BE089
:1052D000019B444A934227D10A23042203210198C7
:1052E000FFF74EFF0390039B002B01D0039B71E05F
:1052F0003B4B1B6C3A4A43F480431364384B1B6EA0
:10530000374A43F480431366354B1B6E344B1B6A9C
:10531000334A43F480431362314B1B6A304A23F40F
:10532000804313622E4B1B6A019BDB6903F10C0265
:10533000019B5B6A1B689A60019BDB6903F10C02AD
:10534000019B9B6A1B689A60019B5B689B8A03F4C4
:105350000063002B0CD1019BDB6A23F4F042019B1C
:10536000DA62019B1B6B23F4F042019B1A630FE08E
:10537000019BDB6A23F4F04343F42052019BDA6281
:10538000019B1B6B23F4F04343F42052019B1A63EF
:10539000019B5B681B78002B0CD0019BDB6A43F4FC
:1053A0008472019BDA62019B1B6B43F48472019B44
:1053B0001A630BE0019BDB6A23F48472019BDA62BF
:1053C000019B1B6B23F48472019B1A630198FFF706
:1053D0002FFD0023184605B05DF804FB240D0020C6
:1053E00000380240600D00200000000000000000B6
:1053F00000B583B00190019B1B78022B3FD101982F
:10540000FFF74EFD019BDB6900221A60019BDB69FF
:1054100000225A60019B9B6A1846FEF799FD019B8A
:105420005B6A1846FEF794FD019B00225A62019BBD
:1054300000229A62019B144A93420ED1134B5B6C7B
:10544000124A23F480535364104B5B6E0F4A23F4CB
:10545000805353660D4B5B6E11E0019B0C4A9342E7
:105460000DD10A4B1B6C094A23F480431364074B8C
:105470001B6E064A23F480431366044B1B6E00BF69
:1054800003B05DF804FB00BF240D0020003802408B
:10549000600D00200000000000000000000000007F
:1054A00082B001900091019B03F13402019B5B6A81
:1054B0001B68DA60019B5B6A1B68009A5A60019B5B
:1054C0005B6A1B68019AD26A1A60019B03F1380279
:1054D000019B9B6A1B68DA60019B9B6A1B68009AB0
:1054E0005A60019B9B6A1B68019A126B1A60019BB0
:1054F0005B6A1B681A68019B5B6A1B6842F00102C9
:105500001A60019B9B6A1B681A68019B9B6A1B6857
:1055100042F001021A60019BDB691A68019BDB699A
:1055200042F040021A600023184602B0704700BFE4
:1055300084B0039002910192039B03F13402039B18
:105540005B6A1B68DA60039B5B6A1B68029A5A609D
:10555000039B5B6A1B68039AD26A1A60039B9B6A6F
:105560001B68019ADA60039B9B6A1B68029A5A6067
:10557000039B1A6B039B9B6A1B6842F480621A6050
:10558000039B5B6A1B681A68039B5B6A1B6842F09B
:1055900001021A60039B9B6A1B681A68039B9B6A43
:1055A0001B6842F001021A60039BDB691A68039BC7
:1055B000DB6942F040021A600023184604B07047CD
:1055C00084B0039002910192039B5B6A1B68019A6D
:1055D000DA60039B5B6A1B68029A5A60039BDA6A73
:1055E000039B5B6A1B6842F480621A60039B03F1B1
:1055F0003802039B9B6A1B68DA60039B9B6A1B68EB
:10560000029A5A60039B9B6A1B68039A126B1A608A
:10561000039B5B6A1B681A68039B5B6A1B6842F00A
:1056200001021A60039B9B6A1B681A68039B9B6AB2
:105630001B6842F001021A60039BDB691A68039B36
:10564000DB6942F040021A600023184604B070473C
:1056500082B030230193019B83F3118800BF00BF08
:1056600000BF00BF02B07047000000000000000053
:1056700082B000230193019B83F3118800BF00BF18
:1056800000BF00BF02B07047000000000000000033
:1056900008B5FFF7DDFF00BF08BD00BF0000000038
:1056A00008B5FFF7E5FF00BF08BD00BF0000000020
:1056B00008B500F085FE00BF08BD00BF0000000077
:1056C0001B4B1B6C1A4A43F001031364184B1B6EEF
:1056D000174A43F001031366154B1B6E154B9B686D
:1056E000144A43F0010393604FF0804342F2CF022B
:1056F0009A624FF080434FF0FF32DA624FF08043FE
:1057000000229A614FF0804300225A634FF0804399
:105710000022DA604FF0804300225A604FF080434D
:1057200001225A614FF0804301221A6000BF704786
:1057300000380240002004E00000000000000000EB
:1057400000B583B04FF080430193019B1B69009328
:10575000019BDB68DBB2009A13400093009BDA43A5
:10576000019B1A61009B03F00203002B05D0FFF799
:105770008FFFFFF79DFFFFF793FF00BF03B05DF8BA
:1057800004FB00BF0000000000000000000000005B
:1057900082B030230193019B83F3118800BF00BFC7
:1057A00000BF00BF02B07047000000000000000012
:1057B00082B000230193019B83F3118800BF00BFD7
:1057C00000BF00BF02B070470000000000000000F2
:1057D00008B5FFF7DDFF00BF08BD00BF00000000F7
:1057E00008B5FFF7E5FF00BF08BD00BF00000000DF
:1057F00000B583B0019000910099019802F088F8FB
:1058000000BF03B05DF804FB0000000000000000D2
:1058100084B001900091019B5B6F0293019B9A6F92
:10582000009B1B685B081A44009B1B68B2FBF3F3E8
:105830000393009B9B881BB2002B08DA039B23F089
:1058400007035A00039B03F0070313430393029BD0
:10585000039A9A60009BDB8843F040039BB21A4690
:10586000029B1A61009B1B8943F001039BB21A46FD
:10587000029B5A61009B9B8843F4045343F02C0322
:105880009BB21A46029BDA60029B00221A60029BBE
:105890001B68029B5B68009B9B8803F4A053B3F5D5
:1058A000806F04D1019B7F2283F87C2003E0019B61
:1058B000FF2283F87C2000BF04B070470000000086
:1058C00000B585B001900B46ADF80230002303937C
:1058D000BDF8023003F00803002B03D0039B43F014
:1058E00080030393BDF8023003F00103002B03D0C3
:1058F000039B43F020030393BDF8023003F002033F
:10590000002B03D0039B43F040030393BDF8023008
:1059100003F00403002B03D0039B43F48073039331
:10592000019B043303991846FFF762FF00BF05B0DF
:105930005DF804FB00000000000000000000000013
:1059400082B00190044BDB68034A43F0C003D3608C
:1059500000BF02B0704700BF0044004000000000DC
:1059600008B5064A00210648FDF742FA044B054AED
:105970005A67034B044A9A6700BF08BD41590008A3
:105980009C0D00200044004080DE800200000000EA
:1059900000B583B001900091009B002B01D1104B0A
:1059A0000093019B1B7A012B11D1019B0D4A93425D
:1059B0000DD10D4B1B6C0C4A43F4003313640A4B9E
:1059C0001B6E094A43F400331366074B1B6E0099A4
:1059D0000198FFF71DFF00BF03B05DF804FB00BF97
:1059E00030ED00089C0D002000380240000000004F
:1059F00000B589B00190019B5B6F0693069BDB6845
:105A0000ADF81630069B1B68ADF81E30BDF81E3091
:105A100003F48073002B0ED0FFF7DAFE019B0433F2
:105A20004FF400711846FFF7E3FE069B6FF4807297
:105A30001A60FFF7D5FEFFF7CBFE24E0BDF81E305D
:105A400003F00F03002B05D0BDF81E301946019856
:105A5000FFF736FF069B5B68DAB2019B93F87C3058
:105A600013408DF80F30BDF81E3003F02003002BDB
:105A700005D09DF80F3019460198FDF709FA069BED
:105A80001B68ADF81E30BDF81E3003F02F03002B4D
:105A9000D4D1FFF7A5FEBDF8163003F08003002B2C
:105AA00022D0BDF81E3003F08003002B1CD0FFF77E
:105AB0008FFE019B30331846FCF78AF90490049B53
:105AC000002B0CDA019B043308211846FFF790FEE7
:105AD000BDF8163023F08002069BDA6002E0049ADB
:105AE000069B5A60FFF77CFEBDF8163003F04003BA
:105AF000002B27D0BDF81E3003F04003002B21D02F
